{
  "_format": "hh-sol-artifact-1",
  "contractName": "FanClubs",
  "sourceName": "contracts/FanClubs.sol",
  "abi": [
    {
      "inputs": [],
      "stateMutability": "nonpayable",
      "type": "constructor"
    },
    {
      "inputs": [
        {
          "internalType": "string",
          "name": "fanClubId",
          "type": "string"
        },
        {
          "internalType": "address",
          "name": "nftAddress",
          "type": "address"
        },
        {
          "internalType": "uint256",
          "name": "tokenId",
          "type": "uint256"
        }
      ],
      "name": "buy",
      "outputs": [],
      "stateMutability": "nonpayable",
      "type": "function"
    },
    {
      "inputs": [
        {
          "internalType": "string",
          "name": "fanClubId",
          "type": "string"
        },
        {
          "internalType": "address",
          "name": "user",
          "type": "address"
        }
      ],
      "name": "checkMember",
      "outputs": [
        {
          "internalType": "bool",
          "name": "",
          "type": "bool"
        }
      ],
      "stateMutability": "view",
      "type": "function"
    },
    {
      "inputs": [
        {
          "internalType": "string",
          "name": "fanClubId",
          "type": "string"
        },
        {
          "internalType": "uint256",
          "name": "_price",
          "type": "uint256"
        }
      ],
      "name": "createFanClub",
      "outputs": [],
      "stateMutability": "nonpayable",
      "type": "function"
    },
    {
      "inputs": [
        {
          "internalType": "string",
          "name": "fanClubId",
          "type": "string"
        },
        {
          "internalType": "address",
          "name": "tokenAddress",
          "type": "address"
        }
      ],
      "name": "createMarketplace",
      "outputs": [],
      "stateMutability": "nonpayable",
      "type": "function"
    },
    {
      "inputs": [
        {
          "internalType": "string",
          "name": "fanClubId",
          "type": "string"
        },
        {
          "internalType": "address",
          "name": "nftAddress",
          "type": "address"
        },
        {
          "internalType": "uint256",
          "name": "tokenId",
          "type": "uint256"
        }
      ],
      "name": "delistItem",
      "outputs": [],
      "stateMutability": "nonpayable",
      "type": "function"
    },
    {
      "inputs": [
        {
          "internalType": "string",
          "name": "fanClubId",
          "type": "string"
        },
        {
          "internalType": "address",
          "name": "nftAddress",
          "type": "address"
        },
        {
          "internalType": "uint256",
          "name": "tokenId",
          "type": "uint256"
        }
      ],
      "name": "depositFanNFT",
      "outputs": [],
      "stateMutability": "nonpayable",
      "type": "function"
    },
    {
      "inputs": [
        {
          "internalType": "string",
          "name": "fanClubId",
          "type": "string"
        },
        {
          "internalType": "address",
          "name": "tokenAddress",
          "type": "address"
        },
        {
          "internalType": "uint256",
          "name": "amount",
          "type": "uint256"
        }
      ],
      "name": "depositFanTokens",
      "outputs": [],
      "stateMutability": "nonpayable",
      "type": "function"
    },
    {
      "inputs": [
        {
          "internalType": "string",
          "name": "fanClubId",
          "type": "string"
        }
      ],
      "name": "getBalance",
      "outputs": [
        {
          "internalType": "uint256",
          "name": "",
          "type": "uint256"
        }
      ],
      "stateMutability": "view",
      "type": "function"
    },
    {
      "inputs": [
        {
          "internalType": "string",
          "name": "fanClubId",
          "type": "string"
        },
        {
          "internalType": "address",
          "name": "nftAddress",
          "type": "address"
        },
        {
          "internalType": "uint256",
          "name": "tokenId",
          "type": "uint256"
        }
      ],
      "name": "getFanNFT",
      "outputs": [
        {
          "internalType": "bool",
          "name": "",
          "type": "bool"
        }
      ],
      "stateMutability": "view",
      "type": "function"
    },
    {
      "inputs": [
        {
          "internalType": "string",
          "name": "fanClubId",
          "type": "string"
        },
        {
          "internalType": "address",
          "name": "tokenAddress",
          "type": "address"
        }
      ],
      "name": "getFanTokenBalance",
      "outputs": [
        {
          "internalType": "uint256",
          "name": "",
          "type": "uint256"
        }
      ],
      "stateMutability": "view",
      "type": "function"
    },
    {
      "inputs": [
        {
          "internalType": "string",
          "name": "fanClubId",
          "type": "string"
        }
      ],
      "name": "getItems",
      "outputs": [
        {
          "components": [
            {
              "internalType": "address",
              "name": "nftAddress",
              "type": "address"
            },
            {
              "internalType": "uint256",
              "name": "tokenId",
              "type": "uint256"
            },
            {
              "internalType": "uint256",
              "name": "price",
              "type": "uint256"
            },
            {
              "internalType": "bool",
              "name": "isListed",
              "type": "bool"
            }
          ],
          "internalType": "struct FanClubs.MarketplaceItem[]",
          "name": "",
          "type": "tuple[]"
        }
      ],
      "stateMutability": "view",
      "type": "function"
    },
    {
      "inputs": [
        {
          "internalType": "string",
          "name": "fanClubId",
          "type": "string"
        }
      ],
      "name": "getJoinPrice",
      "outputs": [
        {
          "internalType": "uint256",
          "name": "",
          "type": "uint256"
        }
      ],
      "stateMutability": "view",
      "type": "function"
    },
    {
      "inputs": [
        {
          "internalType": "string",
          "name": "fanClubId",
          "type": "string"
        }
      ],
      "name": "getMembers",
      "outputs": [
        {
          "internalType": "address[]",
          "name": "",
          "type": "address[]"
        }
      ],
      "stateMutability": "view",
      "type": "function"
    },
    {
      "inputs": [
        {
          "internalType": "string",
          "name": "fanClubId",
          "type": "string"
        }
      ],
      "name": "getOwner",
      "outputs": [
        {
          "internalType": "address",
          "name": "",
          "type": "address"
        }
      ],
      "stateMutability": "view",
      "type": "function"
    },
    {
      "inputs": [
        {
          "internalType": "string",
          "name": "fanClubId",
          "type": "string"
        }
      ],
      "name": "join",
      "outputs": [],
      "stateMutability": "payable",
      "type": "function"
    },
    {
      "inputs": [
        {
          "internalType": "string",
          "name": "fanClubId",
          "type": "string"
        }
      ],
      "name": "leave",
      "outputs": [],
      "stateMutability": "nonpayable",
      "type": "function"
    },
    {
      "inputs": [
        {
          "internalType": "string",
          "name": "fanClubId",
          "type": "string"
        },
        {
          "internalType": "address",
          "name": "nftAddress",
          "type": "address"
        },
        {
          "internalType": "uint256",
          "name": "tokenId",
          "type": "uint256"
        },
        {
          "internalType": "uint256",
          "name": "price",
          "type": "uint256"
        }
      ],
      "name": "listItem",
      "outputs": [],
      "stateMutability": "nonpayable",
      "type": "function"
    },
    {
      "inputs": [
        {
          "internalType": "string",
          "name": "fanClubId",
          "type": "string"
        },
        {
          "internalType": "address",
          "name": "nftAddress",
          "type": "address"
        },
        {
          "internalType": "address",
          "name": "recipient",
          "type": "address"
        },
        {
          "internalType": "uint256",
          "name": "tokenId",
          "type": "uint256"
        }
      ],
      "name": "rewardFanNFT",
      "outputs": [],
      "stateMutability": "nonpayable",
      "type": "function"
    },
    {
      "inputs": [
        {
          "internalType": "string",
          "name": "fanClubId",
          "type": "string"
        },
        {
          "internalType": "address",
          "name": "tokenAddress",
          "type": "address"
        },
        {
          "internalType": "address",
          "name": "recipient",
          "type": "address"
        },
        {
          "internalType": "uint256",
          "name": "amount",
          "type": "uint256"
        }
      ],
      "name": "rewardFanToken",
      "outputs": [],
      "stateMutability": "nonpayable",
      "type": "function"
    },
    {
      "inputs": [
        {
          "internalType": "string",
          "name": "fanClubId",
          "type": "string"
        },
        {
          "internalType": "uint256",
          "name": "newPrice",
          "type": "uint256"
        }
      ],
      "name": "updatePrice",
      "outputs": [],
      "stateMutability": "nonpayable",
      "type": "function"
    },
    {
      "inputs": [
        {
          "internalType": "string",
          "name": "fanClubId",
          "type": "string"
        },
        {
          "internalType": "uint256",
          "name": "amount",
          "type": "uint256"
        }
      ],
      "name": "withdraw",
      "outputs": [],
      "stateMutability": "nonpayable",
      "type": "function"
    },
    {
      "inputs": [
        {
          "internalType": "string",
          "name": "fanClubId",
          "type": "string"
        },
        {
          "internalType": "address",
          "name": "nftAddress",
          "type": "address"
        },
        {
          "internalType": "uint256",
          "name": "tokenId",
          "type": "uint256"
        }
      ],
      "name": "withdrawFanNFT",
      "outputs": [],
      "stateMutability": "nonpayable",
      "type": "function"
    },
    {
      "inputs": [
        {
          "internalType": "string",
          "name": "fanClubId",
          "type": "string"
        },
        {
          "internalType": "address",
          "name": "tokenAddress",
          "type": "address"
        },
        {
          "internalType": "uint256",
          "name": "amount",
          "type": "uint256"
        }
      ],
      "name": "withdrawFanTokens",
      "outputs": [],
      "stateMutability": "nonpayable",
      "type": "function"
    }
  ],
  "bytecode": "0x608060405234801561001057600080fd5b50615191806100206000396000f3fe6080604052600436106101405760003560e01c80637782ec50116100b6578063ca4aab8d1161006f578063ca4aab8d14610469578063cb78b52714610492578063e1292810146104cf578063e824f6cb146104f8578063f4f1e17014610535578063fa1452661461055e57610140565b80637782ec501461034b5780638bf918d71461037457806393230fe8146103b1578063a3f6825d146103ee578063ba8fe46514610417578063c41844441461044057610140565b80634a432a46116101085780634a432a461461023a5780634aaf4a121461026357806356250571146102a0578063612e61c8146102dd5780636a60883a146103065780636a786b071461032f57610140565b8063237a4d511461014557806330b39a621461016e5780633779e049146101975780633a51d246146101d4578063486017e014610211575b600080fd5b34801561015157600080fd5b5061016c60048036038101906101679190613d8a565b610587565b005b34801561017a57600080fd5b5061019560048036038101906101909190613e09565b610897565b005b3480156101a357600080fd5b506101be60048036038101906101b99190613ec3565b610ad7565b6040516101cb9190613f2e565b60405180910390f35b3480156101e057600080fd5b506101fb60048036038101906101f69190613d8a565b610c59565b6040516102089190613f2e565b60405180910390f35b34801561021d57600080fd5b5061023860048036038101906102339190613ec3565b610e08565b005b34801561024657600080fd5b50610261600480360381019061025c9190613e09565b61105f565b005b34801561026f57600080fd5b5061028a60048036038101906102859190613d8a565b6111e8565b6040516102979190613f58565b60405180910390f35b3480156102ac57600080fd5b506102c760048036038101906102c29190613d8a565b61129e565b6040516102d49190614031565b60405180910390f35b3480156102e957600080fd5b5061030460048036038101906102ff9190614053565b6113b8565b005b34801561031257600080fd5b5061032d60048036038101906103289190613e09565b611537565b005b61034960048036038101906103449190613d8a565b61174d565b005b34801561035757600080fd5b50610372600480360381019061036d9190614053565b6119a6565b005b34801561038057600080fd5b5061039b60048036038101906103969190613ec3565b61216a565b6040516103a891906140dd565b60405180910390f35b3480156103bd57600080fd5b506103d860048036038101906103d39190613d8a565b61224b565b6040516103e59190613f2e565b60405180910390f35b3480156103fa57600080fd5b5061041560048036038101906104109190614053565b6122e1565b005b34801561042357600080fd5b5061043e600480360381019061043991906140f8565b61264d565b005b34801561044c57600080fd5b5061046760048036038101906104629190614053565b612a3f565b005b34801561047557600080fd5b50610490600480360381019061048b919061417b565b612d9e565b005b34801561049e57600080fd5b506104b960048036038101906104b49190613d8a565b6130d6565b6040516104c69190614320565b60405180910390f35b3480156104db57600080fd5b506104f660048036038101906104f19190614053565b6131d8565b005b34801561050457600080fd5b5061051f600480360381019061051a9190614053565b6133a8565b60405161052c91906140dd565b60405180910390f35b34801561054157600080fd5b5061055c6004803603810190610557919061417b565b6134d1565b005b34801561056a57600080fd5b5061058560048036038101906105809190614053565b6138ad565b005b60018160405161059791906143b3565b908152602001604051809103902060009054906101000a900460ff166105f2576040517f08c379a00000000000000000000000000000000000000000000000000000000081526004016105e990614427565b60405180910390fd5b6000808260405161060391906143b3565b908152602001604051809103902090508060030160003373ffffffffffffffffffffffffffffffffffffffff1673ffffffffffffffffffffffffffffffffffffffff16815260200190815260200160002060009054906101000a900460ff166106a1576040517f08c379a000000000000000000000000000000000000000000000000000000000815260040161069890614493565b60405180910390fd5b60008160020180549050905060005b81811015610837573373ffffffffffffffffffffffffffffffffffffffff168360020182815481106106e5576106e46144b3565b5b9060005260206000200160009054906101000a900473ffffffffffffffffffffffffffffffffffffffff1673ffffffffffffffffffffffffffffffffffffffff1603610824578260020160018361073c9190614511565b8154811061074d5761074c6144b3565b5b9060005260206000200160009054906101000a900473ffffffffffffffffffffffffffffffffffffffff1683600201828154811061078e5761078d6144b3565b5b9060005260206000200160006101000a81548173ffffffffffffffffffffffffffffffffffffffff021916908373ffffffffffffffffffffffffffffffffffffffff160217905550826002018054806107ea576107e9614545565b5b6001900381819060005260206000200160006101000a81549073ffffffffffffffffffffffffffffffffffffffff02191690559055610837565b808061082f90614574565b9150506106b0565b5060008260030160003373ffffffffffffffffffffffffffffffffffffffff1673ffffffffffffffffffffffffffffffffffffffff16815260200190815260200160002060006101000a81548160ff021916908315150217905550505050565b816001816040516108a891906143b3565b908152602001604051809103902060009054906101000a900460ff16610903576040517f08c379a00000000000000000000000000000000000000000000000000000000081526004016108fa90614427565b60405180910390fd5b60008160405161091391906143b3565b908152602001604051809103902060000160009054906101000a900473ffffffffffffffffffffffffffffffffffffffff1673ffffffffffffffffffffffffffffffffffffffff163373ffffffffffffffffffffffffffffffffffffffff16146109b2576040517f08c379a00000000000000000000000000000000000000000000000000000000081526004016109a990614608565b60405180910390fd5b600082116109f5576040517f08c379a00000000000000000000000000000000000000000000000000000000081526004016109ec90614674565b60405180910390fd5b81600284604051610a0691906143b3565b9081526020016040518091039020541015610a56576040517f08c379a0000000000000000000000000000000000000000000000000000000008152600401610a4d906146e0565b60405180910390fd5b81600284604051610a6791906143b3565b90815260200160405180910390206000828254610a849190614511565b925050819055503373ffffffffffffffffffffffffffffffffffffffff166108fc839081150290604051600060405180830381858888f19350505050158015610ad1573d6000803e3d6000fd5b50505050565b600082600181604051610aea91906143b3565b908152602001604051809103902060009054906101000a900460ff16610b45576040517f08c379a0000000000000000000000000000000000000000000000000000000008152600401610b3c90614427565b60405180910390fd5b600081604051610b5591906143b3565b908152602001604051809103902060000160009054906101000a900473ffffffffffffffffffffffffffffffffffffffff1673ffffffffffffffffffffffffffffffffffffffff163373ffffffffffffffffffffffffffffffffffffffff1614610bf4576040517f08c379a0000000000000000000000000000000000000000000000000000000008152600401610beb90614608565b60405180910390fd5b600484604051610c0491906143b3565b908152602001604051809103902060008473ffffffffffffffffffffffffffffffffffffffff1673ffffffffffffffffffffffffffffffffffffffff1681526020019081526020016000205491505092915050565b600081600181604051610c6c91906143b3565b908152602001604051809103902060009054906101000a900460ff16610cc7576040517f08c379a0000000000000000000000000000000000000000000000000000000008152600401610cbe90614427565b60405180910390fd5b600081604051610cd791906143b3565b908152602001604051809103902060000160009054906101000a900473ffffffffffffffffffffffffffffffffffffffff1673ffffffffffffffffffffffffffffffffffffffff163373ffffffffffffffffffffffffffffffffffffffff1614610d76576040517f08c379a0000000000000000000000000000000000000000000000000000000008152600401610d6d90614608565b60405180910390fd5b600183604051610d8691906143b3565b908152602001604051809103902060009054906101000a900460ff16610de1576040517f08c379a0000000000000000000000000000000000000000000000000000000008152600401610dd890614427565b60405180910390fd5b600283604051610df191906143b3565b908152602001604051809103902054915050919050565b81600181604051610e1991906143b3565b908152602001604051809103902060009054906101000a900460ff16610e74576040517f08c379a0000000000000000000000000000000000000000000000000000000008152600401610e6b90614427565b60405180910390fd5b600081604051610e8491906143b3565b908152602001604051809103902060000160009054906101000a900473ffffffffffffffffffffffffffffffffffffffff1673ffffffffffffffffffffffffffffffffffffffff163373ffffffffffffffffffffffffffffffffffffffff1614610f23576040517f08c379a0000000000000000000000000000000000000000000000000000000008152600401610f1a90614608565b60405180910390fd5b600183604051610f3391906143b3565b908152602001604051809103902060009054906101000a900460ff16610f8e576040517f08c379a0000000000000000000000000000000000000000000000000000000008152600401610f8590614427565b60405180910390fd5b600073ffffffffffffffffffffffffffffffffffffffff168273ffffffffffffffffffffffffffffffffffffffff1603610ffd576040517f08c379a0000000000000000000000000000000000000000000000000000000008152600401610ff49061474c565b60405180910390fd5b8160058460405161100e91906143b3565b908152602001604051809103902060006101000a81548173ffffffffffffffffffffffffffffffffffffffff021916908373ffffffffffffffffffffffffffffffffffffffff160217905550505050565b8160018160405161107091906143b3565b908152602001604051809103902060009054906101000a900460ff166110cb576040517f08c379a00000000000000000000000000000000000000000000000000000000081526004016110c290614427565b60405180910390fd5b6000816040516110db91906143b3565b908152602001604051809103902060000160009054906101000a900473ffffffffffffffffffffffffffffffffffffffff1673ffffffffffffffffffffffffffffffffffffffff163373ffffffffffffffffffffffffffffffffffffffff161461117a576040517f08c379a000000000000000000000000000000000000000000000000000000000815260040161117190614608565b60405180910390fd5b600082116111bd576040517f08c379a00000000000000000000000000000000000000000000000000000000081526004016111b4906147b8565b60405180910390fd5b816000846040516111ce91906143b3565b908152602001604051809103902060010181905550505050565b60006001826040516111fa91906143b3565b908152602001604051809103902060009054906101000a900460ff16611255576040517f08c379a000000000000000000000000000000000000000000000000000000000815260040161124c90614427565b60405180910390fd5b60008260405161126591906143b3565b908152602001604051809103902060000160009054906101000a900473ffffffffffffffffffffffffffffffffffffffff169050919050565b60606001826040516112b091906143b3565b908152602001604051809103902060009054906101000a900460ff1661130b576040517f08c379a000000000000000000000000000000000000000000000000000000000815260040161130290614427565b60405180910390fd5b60008260405161131b91906143b3565b90815260200160405180910390206002018054806020026020016040519081016040528092919081815260200182805480156113ac57602002820191906000526020600020905b8160009054906101000a900473ffffffffffffffffffffffffffffffffffffffff1673ffffffffffffffffffffffffffffffffffffffff1681526020019060010190808311611362575b50505050509050919050565b600081116113fb576040517f08c379a00000000000000000000000000000000000000000000000000000000081526004016113f290614824565b60405180910390fd5b60008273ffffffffffffffffffffffffffffffffffffffff166323b872dd3330856040518463ffffffff1660e01b815260040161143a93929190614844565b6020604051808303816000875af1158015611459573d6000803e3d6000fd5b505050506040513d601f19601f8201168201806040525081019061147d91906148a7565b9050806114bf576040517f08c379a00000000000000000000000000000000000000000000000000000000081526004016114b690614920565b60405180910390fd5b816004856040516114d091906143b3565b908152602001604051809103902060008573ffffffffffffffffffffffffffffffffffffffff1673ffffffffffffffffffffffffffffffffffffffff168152602001908152602001600020600082825461152a9190614940565b9250508190555050505050565b60018260405161154791906143b3565b908152602001604051809103902060009054906101000a900460ff16156115a3576040517f08c379a000000000000000000000000000000000000000000000000000000000815260040161159a906149c0565b60405180910390fd5b600081116115e6576040517f08c379a00000000000000000000000000000000000000000000000000000000081526004016115dd906147b8565b60405180910390fd5b600080836040516115f791906143b3565b90815260200160405180910390209050338160000160006101000a81548173ffffffffffffffffffffffffffffffffffffffff021916908373ffffffffffffffffffffffffffffffffffffffff16021790555081816001018190555080600201339080600181540180825580915050600190039060005260206000200160009091909190916101000a81548173ffffffffffffffffffffffffffffffffffffffff021916908373ffffffffffffffffffffffffffffffffffffffff16021790555060018160030160003373ffffffffffffffffffffffffffffffffffffffff1673ffffffffffffffffffffffffffffffffffffffff16815260200190815260200160002060006101000a81548160ff0219169083151502179055506001808460405161172391906143b3565b908152602001604051809103902060006101000a81548160ff021916908315150217905550505050565b60018160405161175d91906143b3565b908152602001604051809103902060009054906101000a900460ff166117b8576040517f08c379a00000000000000000000000000000000000000000000000000000000081526004016117af90614427565b60405180910390fd5b600080826040516117c991906143b3565b908152602001604051809103902090508060030160003373ffffffffffffffffffffffffffffffffffffffff1673ffffffffffffffffffffffffffffffffffffffff16815260200190815260200160002060009054906101000a900460ff1615611868576040517f08c379a000000000000000000000000000000000000000000000000000000000815260040161185f90614a2c565b60405180910390fd5b806001015434146118ae576040517f08c379a00000000000000000000000000000000000000000000000000000000081526004016118a590614a98565b60405180910390fd5b80600201339080600181540180825580915050600190039060005260206000200160009091909190916101000a81548173ffffffffffffffffffffffffffffffffffffffff021916908373ffffffffffffffffffffffffffffffffffffffff16021790555060018160030160003373ffffffffffffffffffffffffffffffffffffffff1673ffffffffffffffffffffffffffffffffffffffff16815260200190815260200160002060006101000a81548160ff0219169083151502179055503460028360405161197e91906143b3565b9081526020016040518091039020600082825461199b9190614940565b925050819055505050565b6001836040516119b691906143b3565b908152602001604051809103902060009054906101000a900460ff16611a11576040517f08c379a0000000000000000000000000000000000000000000000000000000008152600401611a0890614427565b60405180910390fd5b600083604051611a2191906143b3565b908152602001604051809103902060030160003373ffffffffffffffffffffffffffffffffffffffff1673ffffffffffffffffffffffffffffffffffffffff16815260200190815260200160002060009054906101000a900460ff16611abc576040517f08c379a0000000000000000000000000000000000000000000000000000000008152600401611ab390614b04565b60405180910390fd5b600783604051611acc91906143b3565b908152602001604051809103902060008373ffffffffffffffffffffffffffffffffffffffff1673ffffffffffffffffffffffffffffffffffffffff168152602001908152602001600020600082815260200190815260200160002060009054906101000a900460ff16611b75576040517f08c379a0000000000000000000000000000000000000000000000000000000008152600401611b6c90614b70565b60405180910390fd5b6000600584604051611b8791906143b3565b908152602001604051809103902060009054906101000a900473ffffffffffffffffffffffffffffffffffffffff169050600073ffffffffffffffffffffffffffffffffffffffff168173ffffffffffffffffffffffffffffffffffffffff1603611c27576040517f08c379a0000000000000000000000000000000000000000000000000000000008152600401611c1e90614bdc565b60405180910390fd5b6000600685604051611c3991906143b3565b9081526020016040518091039020905060007fffffffffffffffffffffffffffffffffffffffffffffffffffffffffffffffff9050600080600090505b8380549050811015611da5578673ffffffffffffffffffffffffffffffffffffffff16848281548110611cac57611cab6144b3565b5b906000526020600020906004020160000160009054906101000a900473ffffffffffffffffffffffffffffffffffffffff1673ffffffffffffffffffffffffffffffffffffffff16148015611d24575085848281548110611d1057611d0f6144b3565b5b906000526020600020906004020160010154145b8015611d5e5750838181548110611d3e57611d3d6144b3565b5b906000526020600020906004020160030160009054906101000a900460ff165b15611d9257809250838181548110611d7957611d786144b3565b5b9060005260206000209060040201600201549150611da5565b8080611d9d90614574565b915050611c76565b507fffffffffffffffffffffffffffffffffffffffffffffffffffffffffffffffff8203611e08576040517f08c379a0000000000000000000000000000000000000000000000000000000008152600401611dff90614c48565b60405180910390fd5b60008473ffffffffffffffffffffffffffffffffffffffff166323b872dd3360008b604051611e3791906143b3565b908152602001604051809103902060000160009054906101000a900473ffffffffffffffffffffffffffffffffffffffff16856040518463ffffffff1660e01b8152600401611e8893929190614844565b6020604051808303816000875af1158015611ea7573d6000803e3d6000fd5b505050506040513d601f19601f82011682018060405250810190611ecb91906148a7565b905080611f0d576040517f08c379a0000000000000000000000000000000000000000000000000000000008152600401611f0490614cb4565b60405180910390fd5b8673ffffffffffffffffffffffffffffffffffffffff166323b872dd3033896040518463ffffffff1660e01b8152600401611f4a93929190614844565b600060405180830381600087803b158015611f6457600080fd5b505af1158015611f78573d6000803e3d6000fd5b505050506000848481548110611f9157611f906144b3565b5b906000526020600020906004020160030160006101000a81548160ff0219169083151502179055506000600789604051611fcb91906143b3565b908152602001604051809103902060008973ffffffffffffffffffffffffffffffffffffffff1673ffffffffffffffffffffffffffffffffffffffff168152602001908152602001600020600088815260200190815260200160002060006101000a81548160ff021916908315150217905550600060038960405161205091906143b3565b908152602001604051809103902060008973ffffffffffffffffffffffffffffffffffffffff1673ffffffffffffffffffffffffffffffffffffffff168152602001908152602001600020905060005b818054905081101561215e57878282815481106120c0576120bf6144b3565b5b90600052602060002001540361214b5781600183805490506120e29190614511565b815481106120f3576120f26144b3565b5b9060005260206000200154828281548110612111576121106144b3565b5b9060005260206000200181905550818054806121305761212f614545565b5b6001900381819060005260206000200160009055905561215e565b808061215690614574565b9150506120a0565b50505050505050505050565b600060018360405161217c91906143b3565b908152602001604051809103902060009054906101000a900460ff166121d7576040517f08c379a00000000000000000000000000000000000000000000000000000000081526004016121ce90614427565b60405180910390fd5b6000836040516121e791906143b3565b908152602001604051809103902060030160008373ffffffffffffffffffffffffffffffffffffffff1673ffffffffffffffffffffffffffffffffffffffff16815260200190815260200160002060009054906101000a900460ff16905092915050565b600060018260405161225d91906143b3565b908152602001604051809103902060009054906101000a900460ff166122b8576040517f08c379a00000000000000000000000000000000000000000000000000000000081526004016122af90614427565b60405180910390fd5b6000826040516122c891906143b3565b9081526020016040518091039020600101549050919050565b826001816040516122f291906143b3565b908152602001604051809103902060009054906101000a900460ff1661234d576040517f08c379a000000000000000000000000000000000000000000000000000000000815260040161234490614427565b60405180910390fd5b60008160405161235d91906143b3565b908152602001604051809103902060000160009054906101000a900473ffffffffffffffffffffffffffffffffffffffff1673ffffffffffffffffffffffffffffffffffffffff163373ffffffffffffffffffffffffffffffffffffffff16146123fc576040517f08c379a00000000000000000000000000000000000000000000000000000000081526004016123f390614608565b60405180910390fd5b60018460405161240c91906143b3565b908152602001604051809103902060009054906101000a900460ff16612467576040517f08c379a000000000000000000000000000000000000000000000000000000000815260040161245e90614427565b60405180910390fd5b600060038560405161247991906143b3565b908152602001604051809103902060008573ffffffffffffffffffffffffffffffffffffffff1673ffffffffffffffffffffffffffffffffffffffff168152602001908152602001600020905060008080600090505b838054905081101561251e57858482815481106124ef576124ee6144b3565b5b90600052602060002001540361250b576001925080915061251e565b808061251690614574565b9150506124cf565b508161255f576040517f08c379a000000000000000000000000000000000000000000000000000000000815260040161255690614d46565b60405180910390fd5b82600184805490506125719190614511565b81548110612582576125816144b3565b5b90600052602060002001548382815481106125a05761259f6144b3565b5b9060005260206000200181905550828054806125bf576125be614545565b5b600190038181906000526020600020016000905590558573ffffffffffffffffffffffffffffffffffffffff166323b872dd3033886040518463ffffffff1660e01b815260040161261293929190614844565b600060405180830381600087803b15801561262c57600080fd5b505af1158015612640573d6000803e3d6000fd5b5050505050505050505050565b8360018160405161265e91906143b3565b908152602001604051809103902060009054906101000a900460ff166126b9576040517f08c379a00000000000000000000000000000000000000000000000000000000081526004016126b090614427565b60405180910390fd5b6000816040516126c991906143b3565b908152602001604051809103902060000160009054906101000a900473ffffffffffffffffffffffffffffffffffffffff1673ffffffffffffffffffffffffffffffffffffffff163373ffffffffffffffffffffffffffffffffffffffff1614612768576040517f08c379a000000000000000000000000000000000000000000000000000000000815260040161275f90614608565b60405180910390fd5b600082116127ab576040517f08c379a00000000000000000000000000000000000000000000000000000000081526004016127a290614db2565b60405180910390fd5b6127b68585856133a8565b6127f5576040517f08c379a00000000000000000000000000000000000000000000000000000000081526004016127ec90614e1e565b60405180910390fd5b60078560405161280591906143b3565b908152602001604051809103902060008573ffffffffffffffffffffffffffffffffffffffff1673ffffffffffffffffffffffffffffffffffffffff168152602001908152602001600020600084815260200190815260200160002060009054906101000a900460ff16156128af576040517f08c379a00000000000000000000000000000000000000000000000000000000081526004016128a690614e8a565b60405180910390fd5b600060405180608001604052808673ffffffffffffffffffffffffffffffffffffffff1681526020018581526020018481526020016001151581525090506006866040516128fd91906143b3565b908152602001604051809103902081908060018154018082558091505060019003906000526020600020906004020160009091909190915060008201518160000160006101000a81548173ffffffffffffffffffffffffffffffffffffffff021916908373ffffffffffffffffffffffffffffffffffffffff160217905550602082015181600101556040820151816002015560608201518160030160006101000a81548160ff021916908315150217905550505060016007876040516129c491906143b3565b908152602001604051809103902060008773ffffffffffffffffffffffffffffffffffffffff1673ffffffffffffffffffffffffffffffffffffffff168152602001908152602001600020600086815260200190815260200160002060006101000a81548160ff021916908315150217905550505050505050565b82600181604051612a5091906143b3565b908152602001604051809103902060009054906101000a900460ff16612aab576040517f08c379a0000000000000000000000000000000000000000000000000000000008152600401612aa290614427565b60405180910390fd5b600081604051612abb91906143b3565b908152602001604051809103902060000160009054906101000a900473ffffffffffffffffffffffffffffffffffffffff1673ffffffffffffffffffffffffffffffffffffffff163373ffffffffffffffffffffffffffffffffffffffff1614612b5a576040517f08c379a0000000000000000000000000000000000000000000000000000000008152600401612b5190614608565b60405180910390fd5b600184604051612b6a91906143b3565b908152602001604051809103902060009054906101000a900460ff16612bc5576040517f08c379a0000000000000000000000000000000000000000000000000000000008152600401612bbc90614427565b60405180910390fd5b81600485604051612bd691906143b3565b908152602001604051809103902060008573ffffffffffffffffffffffffffffffffffffffff1673ffffffffffffffffffffffffffffffffffffffff168152602001908152602001600020541015612c63576040517f08c379a0000000000000000000000000000000000000000000000000000000008152600401612c5a90614ef6565b60405180910390fd5b81600485604051612c7491906143b3565b908152602001604051809103902060008573ffffffffffffffffffffffffffffffffffffffff1673ffffffffffffffffffffffffffffffffffffffff1681526020019081526020016000206000828254612cce9190614511565b9250508190555060008373ffffffffffffffffffffffffffffffffffffffff1663a9059cbb33856040518363ffffffff1660e01b8152600401612d12929190614f16565b6020604051808303816000875af1158015612d31573d6000803e3d6000fd5b505050506040513d601f19601f82011682018060405250810190612d5591906148a7565b905080612d97576040517f08c379a0000000000000000000000000000000000000000000000000000000008152600401612d8e90614f8b565b60405180910390fd5b5050505050565b83600181604051612daf91906143b3565b908152602001604051809103902060009054906101000a900460ff16612e0a576040517f08c379a0000000000000000000000000000000000000000000000000000000008152600401612e0190614427565b60405180910390fd5b600081604051612e1a91906143b3565b908152602001604051809103902060000160009054906101000a900473ffffffffffffffffffffffffffffffffffffffff1673ffffffffffffffffffffffffffffffffffffffff163373ffffffffffffffffffffffffffffffffffffffff1614612eb9576040517f08c379a0000000000000000000000000000000000000000000000000000000008152600401612eb090614608565b60405180910390fd5b60008211612efc576040517f08c379a0000000000000000000000000000000000000000000000000000000008152600401612ef390614824565b60405180910390fd5b81600486604051612f0d91906143b3565b908152602001604051809103902060008673ffffffffffffffffffffffffffffffffffffffff1673ffffffffffffffffffffffffffffffffffffffff168152602001908152602001600020541015612f9a576040517f08c379a0000000000000000000000000000000000000000000000000000000008152600401612f9190614ef6565b60405180910390fd5b81600486604051612fab91906143b3565b908152602001604051809103902060008673ffffffffffffffffffffffffffffffffffffffff1673ffffffffffffffffffffffffffffffffffffffff16815260200190815260200160002060008282546130059190614511565b9250508190555060008473ffffffffffffffffffffffffffffffffffffffff1663a9059cbb85856040518363ffffffff1660e01b8152600401613049929190614f16565b6020604051808303816000875af1158015613068573d6000803e3d6000fd5b505050506040513d601f19601f8201168201806040525081019061308c91906148a7565b9050806130ce576040517f08c379a00000000000000000000000000000000000000000000000000000000081526004016130c590614ff7565b60405180910390fd5b505050505050565b60606006826040516130e891906143b3565b9081526020016040518091039020805480602002602001604051908101604052809291908181526020016000905b828210156131cd57838290600052602060002090600402016040518060800160405290816000820160009054906101000a900473ffffffffffffffffffffffffffffffffffffffff1673ffffffffffffffffffffffffffffffffffffffff1673ffffffffffffffffffffffffffffffffffffffff16815260200160018201548152602001600282015481526020016003820160009054906101000a900460ff16151515158152505081526020019060010190613116565b505050509050919050565b6001836040516131e891906143b3565b908152602001604051809103902060009054906101000a900460ff16613243576040517f08c379a000000000000000000000000000000000000000000000000000000000815260040161323a90614427565b60405180910390fd5b600073ffffffffffffffffffffffffffffffffffffffff168273ffffffffffffffffffffffffffffffffffffffff16036132b2576040517f08c379a00000000000000000000000000000000000000000000000000000000081526004016132a990615063565b60405180910390fd5b8173ffffffffffffffffffffffffffffffffffffffff166323b872dd3330846040518463ffffffff1660e01b81526004016132ef93929190614844565b600060405180830381600087803b15801561330957600080fd5b505af115801561331d573d6000803e3d6000fd5b5050505060038360405161333191906143b3565b908152602001604051809103902060008373ffffffffffffffffffffffffffffffffffffffff1673ffffffffffffffffffffffffffffffffffffffff168152602001908152602001600020819080600181540180825580915050600190039060005260206000200160009091909190915055505050565b60006001846040516133ba91906143b3565b908152602001604051809103902060009054906101000a900460ff16613415576040517f08c379a000000000000000000000000000000000000000000000000000000000815260040161340c90614427565b60405180910390fd5b600060038560405161342791906143b3565b908152602001604051809103902060008573ffffffffffffffffffffffffffffffffffffffff1673ffffffffffffffffffffffffffffffffffffffff16815260200190815260200160002090506000805b82805490508110156134c45784838281548110613498576134976144b3565b5b9060005260206000200154036134b157600191506134c4565b80806134bc90614574565b915050613478565b5080925050509392505050565b836001816040516134e291906143b3565b908152602001604051809103902060009054906101000a900460ff1661353d576040517f08c379a000000000000000000000000000000000000000000000000000000000815260040161353490614427565b60405180910390fd5b60008160405161354d91906143b3565b908152602001604051809103902060000160009054906101000a900473ffffffffffffffffffffffffffffffffffffffff1673ffffffffffffffffffffffffffffffffffffffff163373ffffffffffffffffffffffffffffffffffffffff16146135ec576040517f08c379a00000000000000000000000000000000000000000000000000000000081526004016135e390614608565b60405180910390fd5b600073ffffffffffffffffffffffffffffffffffffffff168373ffffffffffffffffffffffffffffffffffffffff160361365b576040517f08c379a0000000000000000000000000000000000000000000000000000000008152600401613652906150cf565b60405180910390fd5b60018560405161366b91906143b3565b908152602001604051809103902060009054906101000a900460ff166136c6576040517f08c379a00000000000000000000000000000000000000000000000000000000081526004016136bd90614427565b60405180910390fd5b60006003866040516136d891906143b3565b908152602001604051809103902060008673ffffffffffffffffffffffffffffffffffffffff1673ffffffffffffffffffffffffffffffffffffffff168152602001908152602001600020905060008080600090505b838054905081101561377d578584828154811061374e5761374d6144b3565b5b90600052602060002001540361376a576001925080915061377d565b808061377590614574565b91505061372e565b50816137be576040517f08c379a00000000000000000000000000000000000000000000000000000000081526004016137b59061513b565b60405180910390fd5b82600184805490506137d09190614511565b815481106137e1576137e06144b3565b5b90600052602060002001548382815481106137ff576137fe6144b3565b5b90600052602060002001819055508280548061381e5761381d614545565b5b600190038181906000526020600020016000905590558673ffffffffffffffffffffffffffffffffffffffff166323b872dd3088886040518463ffffffff1660e01b815260040161387193929190614844565b600060405180830381600087803b15801561388b57600080fd5b505af115801561389f573d6000803e3d6000fd5b505050505050505050505050565b826001816040516138be91906143b3565b908152602001604051809103902060009054906101000a900460ff16613919576040517f08c379a000000000000000000000000000000000000000000000000000000000815260040161391090614427565b60405180910390fd5b60008160405161392991906143b3565b908152602001604051809103902060000160009054906101000a900473ffffffffffffffffffffffffffffffffffffffff1673ffffffffffffffffffffffffffffffffffffffff163373ffffffffffffffffffffffffffffffffffffffff16146139c8576040517f08c379a00000000000000000000000000000000000000000000000000000000081526004016139bf90614608565b60405180910390fd5b60006006856040516139da91906143b3565b908152602001604051809103902080549050905060005b81811015613c28578473ffffffffffffffffffffffffffffffffffffffff16600687604051613a2091906143b3565b90815260200160405180910390208281548110613a4057613a3f6144b3565b5b906000526020600020906004020160000160009054906101000a900473ffffffffffffffffffffffffffffffffffffffff1673ffffffffffffffffffffffffffffffffffffffff16148015613ad5575083600687604051613aa191906143b3565b90815260200160405180910390208281548110613ac157613ac06144b3565b5b906000526020600020906004020160010154145b8015613b2c5750600686604051613aec91906143b3565b90815260200160405180910390208181548110613b0c57613b0b6144b3565b5b906000526020600020906004020160030160009054906101000a900460ff165b15613c15576000600687604051613b4391906143b3565b90815260200160405180910390208281548110613b6357613b626144b3565b5b906000526020600020906004020160030160006101000a81548160ff0219169083151502179055506000600787604051613b9d91906143b3565b908152602001604051809103902060008773ffffffffffffffffffffffffffffffffffffffff1673ffffffffffffffffffffffffffffffffffffffff168152602001908152602001600020600086815260200190815260200160002060006101000a81548160ff021916908315150217905550613c28565b8080613c2090614574565b9150506139f1565b505050505050565b6000604051905090565b600080fd5b600080fd5b600080fd5b600080fd5b6000601f19601f8301169050919050565b7f4e487b7100000000000000000000000000000000000000000000000000000000600052604160045260246000fd5b613c9782613c4e565b810181811067ffffffffffffffff82111715613cb657613cb5613c5f565b5b80604052505050565b6000613cc9613c30565b9050613cd58282613c8e565b919050565b600067ffffffffffffffff821115613cf557613cf4613c5f565b5b613cfe82613c4e565b9050602081019050919050565b82818337600083830152505050565b6000613d2d613d2884613cda565b613cbf565b905082815260208101848484011115613d4957613d48613c49565b5b613d54848285613d0b565b509392505050565b600082601f830112613d7157613d70613c44565b5b8135613d81848260208601613d1a565b91505092915050565b600060208284031215613da057613d9f613c3a565b5b600082013567ffffffffffffffff811115613dbe57613dbd613c3f565b5b613dca84828501613d5c565b91505092915050565b6000819050919050565b613de681613dd3565b8114613df157600080fd5b50565b600081359050613e0381613ddd565b92915050565b60008060408385031215613e2057613e1f613c3a565b5b600083013567ffffffffffffffff811115613e3e57613e3d613c3f565b5b613e4a85828601613d5c565b9250506020613e5b85828601613df4565b9150509250929050565b600073ffffffffffffffffffffffffffffffffffffffff82169050919050565b6000613e9082613e65565b9050919050565b613ea081613e85565b8114613eab57600080fd5b50565b600081359050613ebd81613e97565b92915050565b60008060408385031215613eda57613ed9613c3a565b5b600083013567ffffffffffffffff811115613ef857613ef7613c3f565b5b613f0485828601613d5c565b9250506020613f1585828601613eae565b9150509250929050565b613f2881613dd3565b82525050565b6000602082019050613f436000830184613f1f565b92915050565b613f5281613e85565b82525050565b6000602082019050613f6d6000830184613f49565b92915050565b600081519050919050565b600082825260208201905092915050565b6000819050602082019050919050565b613fa881613e85565b82525050565b6000613fba8383613f9f565b60208301905092915050565b6000602082019050919050565b6000613fde82613f73565b613fe88185613f7e565b9350613ff383613f8f565b8060005b8381101561402457815161400b8882613fae565b975061401683613fc6565b925050600181019050613ff7565b5085935050505092915050565b6000602082019050818103600083015261404b8184613fd3565b905092915050565b60008060006060848603121561406c5761406b613c3a565b5b600084013567ffffffffffffffff81111561408a57614089613c3f565b5b61409686828701613d5c565b93505060206140a786828701613eae565b92505060406140b886828701613df4565b9150509250925092565b60008115159050919050565b6140d7816140c2565b82525050565b60006020820190506140f260008301846140ce565b92915050565b6000806000806080858703121561411257614111613c3a565b5b600085013567ffffffffffffffff8111156141305761412f613c3f565b5b61413c87828801613d5c565b945050602061414d87828801613eae565b935050604061415e87828801613df4565b925050606061416f87828801613df4565b91505092959194509250565b6000806000806080858703121561419557614194613c3a565b5b600085013567ffffffffffffffff8111156141b3576141b2613c3f565b5b6141bf87828801613d5c565b94505060206141d087828801613eae565b93505060406141e187828801613eae565b92505060606141f287828801613df4565b91505092959194509250565b600081519050919050565b600082825260208201905092915050565b6000819050602082019050919050565b61423381613dd3565b82525050565b614242816140c2565b82525050565b60808201600082015161425e6000850182613f9f565b506020820151614271602085018261422a565b506040820151614284604085018261422a565b5060608201516142976060850182614239565b50505050565b60006142a98383614248565b60808301905092915050565b6000602082019050919050565b60006142cd826141fe565b6142d78185614209565b93506142e28361421a565b8060005b838110156143135781516142fa888261429d565b9750614305836142b5565b9250506001810190506142e6565b5085935050505092915050565b6000602082019050818103600083015261433a81846142c2565b905092915050565b600081519050919050565b600081905092915050565b60005b8381101561437657808201518184015260208101905061435b565b60008484015250505050565b600061438d82614342565b614397818561434d565b93506143a7818560208601614358565b80840191505092915050565b60006143bf8284614382565b915081905092915050565b600082825260208201905092915050565b7f46616e20636c756220646f6573206e6f74206578697374000000000000000000600082015250565b60006144116017836143ca565b915061441c826143db565b602082019050919050565b6000602082019050818103600083015261444081614404565b9050919050565b7f4e6f742061206d656d6265720000000000000000000000000000000000000000600082015250565b600061447d600c836143ca565b915061448882614447565b602082019050919050565b600060208201905081810360008301526144ac81614470565b9050919050565b7f4e487b7100000000000000000000000000000000000000000000000000000000600052603260045260246000fd5b7f4e487b7100000000000000000000000000000000000000000000000000000000600052601160045260246000fd5b600061451c82613dd3565b915061452783613dd3565b925082820390508181111561453f5761453e6144e2565b5b92915050565b7f4e487b7100000000000000000000000000000000000000000000000000000000600052603160045260246000fd5b600061457f82613dd3565b91507fffffffffffffffffffffffffffffffffffffffffffffffffffffffffffffffff82036145b1576145b06144e2565b5b600182019050919050565b7f4f6e6c792066616e20636c7562206f776e657200000000000000000000000000600082015250565b60006145f26013836143ca565b91506145fd826145bc565b602082019050919050565b60006020820190508181036000830152614621816145e5565b9050919050565b7f4e6f2062616c616e636520746f20776974686472617700000000000000000000600082015250565b600061465e6016836143ca565b915061466982614628565b602082019050919050565b6000602082019050818103600083015261468d81614651565b9050919050565b7f496e73756666696369656e742062616c616e6365000000000000000000000000600082015250565b60006146ca6014836143ca565b91506146d582614694565b602082019050919050565b600060208201905081810360008301526146f9816146bd565b9050919050565b7f496e76616c696420746f6b656e20616464726573730000000000000000000000600082015250565b60006147366015836143ca565b915061474182614700565b602082019050919050565b6000602082019050818103600083015261476581614729565b9050919050565b7f5072696365206d7573742062652067726561746572207468616e207a65726f00600082015250565b60006147a2601f836143ca565b91506147ad8261476c565b602082019050919050565b600060208201905081810360008301526147d181614795565b9050919050565b7f416d6f756e74206d7573742062652067726561746572207468616e2030000000600082015250565b600061480e601d836143ca565b9150614819826147d8565b602082019050919050565b6000602082019050818103600083015261483d81614801565b9050919050565b60006060820190506148596000830186613f49565b6148666020830185613f49565b6148736040830184613f1f565b949350505050565b614884816140c2565b811461488f57600080fd5b50565b6000815190506148a18161487b565b92915050565b6000602082840312156148bd576148bc613c3a565b5b60006148cb84828501614892565b91505092915050565b7f546f6b656e207472616e73666572206661696c65640000000000000000000000600082015250565b600061490a6015836143ca565b9150614915826148d4565b602082019050919050565b60006020820190508181036000830152614939816148fd565b9050919050565b600061494b82613dd3565b915061495683613dd3565b925082820190508082111561496e5761496d6144e2565b5b92915050565b7f46616e20636c756220616c726561647920657869737473000000000000000000600082015250565b60006149aa6017836143ca565b91506149b582614974565b602082019050919050565b600060208201905081810360008301526149d98161499d565b9050919050565b7f416c72656164792061206d656d62657200000000000000000000000000000000600082015250565b6000614a166010836143ca565b9150614a21826149e0565b602082019050919050565b60006020820190508181036000830152614a4581614a09565b9050919050565b7f496e636f7272656374207061796d656e74000000000000000000000000000000600082015250565b6000614a826011836143ca565b9150614a8d82614a4c565b602082019050919050565b60006020820190508181036000830152614ab181614a75565b9050919050565b7f4f6e6c79206d656d626572732063616e20627579000000000000000000000000600082015250565b6000614aee6014836143ca565b9150614af982614ab8565b602082019050919050565b60006020820190508181036000830152614b1d81614ae1565b9050919050565b7f4974656d206e6f74206c69737465640000000000000000000000000000000000600082015250565b6000614b5a600f836143ca565b9150614b6582614b24565b602082019050919050565b60006020820190508181036000830152614b8981614b4d565b9050919050565b7f4d61726b6574706c616365206e6f7420696e697469616c697a65640000000000600082015250565b6000614bc6601b836143ca565b9150614bd182614b90565b602082019050919050565b60006020820190508181036000830152614bf581614bb9565b9050919050565b7f4974656d206e6f7420666f756e64000000000000000000000000000000000000600082015250565b6000614c32600e836143ca565b9150614c3d82614bfc565b602082019050919050565b60006020820190508181036000830152614c6181614c25565b9050919050565b7f5061796d656e74206661696c6564000000000000000000000000000000000000600082015250565b6000614c9e600e836143ca565b9150614ca982614c68565b602082019050919050565b60006020820190508181036000830152614ccd81614c91565b9050919050565b7f546f6b656e206e6f7420666f756e6420666f7220746869732066616e20636c7560008201527f6200000000000000000000000000000000000000000000000000000000000000602082015250565b6000614d306021836143ca565b9150614d3b82614cd4565b604082019050919050565b60006020820190508181036000830152614d5f81614d23565b9050919050565b7f5072696365206d7573742062652067726561746572207468616e203000000000600082015250565b6000614d9c601c836143ca565b9150614da782614d66565b602082019050919050565b60006020820190508181036000830152614dcb81614d8f565b9050919050565b7f4e4654206e6f742068656c642062792066616e20636c75620000000000000000600082015250565b6000614e086018836143ca565b9150614e1382614dd2565b602082019050919050565b60006020820190508181036000830152614e3781614dfb565b9050919050565b7f416c7265616479206c6973746564000000000000000000000000000000000000600082015250565b6000614e74600e836143ca565b9150614e7f82614e3e565b602082019050919050565b60006020820190508181036000830152614ea381614e67565b9050919050565b7f496e73756666696369656e7420746f6b656e2062616c616e6365000000000000600082015250565b6000614ee0601a836143ca565b9150614eeb82614eaa565b602082019050919050565b60006020820190508181036000830152614f0f81614ed3565b9050919050565b6000604082019050614f2b6000830185613f49565b614f386020830184613f1f565b9392505050565b7f546f6b656e207769746864726177616c206661696c6564000000000000000000600082015250565b6000614f756017836143ca565b9150614f8082614f3f565b602082019050919050565b60006020820190508181036000830152614fa481614f68565b9050919050565b7f546f6b656e20726577617264206661696c656400000000000000000000000000600082015250565b6000614fe16013836143ca565b9150614fec82614fab565b602082019050919050565b6000602082019050818103600083015261501081614fd4565b9050919050565b7f496e76616c6964204e465420636f6e7472616374000000000000000000000000600082015250565b600061504d6014836143ca565b915061505882615017565b602082019050919050565b6000602082019050818103600083015261507c81615040565b9050919050565b7f496e76616c696420726563697069656e74000000000000000000000000000000600082015250565b60006150b96011836143ca565b91506150c482615083565b602082019050919050565b600060208201905081810360008301526150e8816150ac565b9050919050565b7f546f6b656e206e6f74206f776e65642062792066616e20636c75620000000000600082015250565b6000615125601b836143ca565b9150615130826150ef565b602082019050919050565b6000602082019050818103600083015261515481615118565b905091905056fea26469706673582212204bf9244bc7636031722e0d29dcddaf62f9100dc73a95fdd055474e3901b0e65d64736f6c63430008140033",
  "linkReferences": {},
  "deployedLinkReferences": {}
}