{
  "_format": "hh-sol-artifact-1",
  "contractName": "FanClubs",
  "sourceName": "contracts/FanClubs.sol",
  "abi": [
    {
      "inputs": [],
      "stateMutability": "nonpayable",
      "type": "constructor"
    },
    {
      "inputs": [
        {
          "internalType": "string",
          "name": "fanClubId",
          "type": "string"
        },
        {
          "internalType": "address",
          "name": "user",
          "type": "address"
        }
      ],
      "name": "checkMember",
      "outputs": [
        {
          "internalType": "bool",
          "name": "",
          "type": "bool"
        }
      ],
      "stateMutability": "view",
      "type": "function"
    },
    {
      "inputs": [
        {
          "internalType": "string",
          "name": "fanClubId",
          "type": "string"
        },
        {
          "internalType": "uint256",
          "name": "_price",
          "type": "uint256"
        }
      ],
      "name": "createFanClub",
      "outputs": [],
      "stateMutability": "nonpayable",
      "type": "function"
    },
    {
      "inputs": [
        {
          "internalType": "string",
          "name": "fanClubId",
          "type": "string"
        },
        {
          "internalType": "address",
          "name": "tokenAddress",
          "type": "address"
        },
        {
          "internalType": "uint256",
          "name": "amount",
          "type": "uint256"
        }
      ],
      "name": "depositFanTokens",
      "outputs": [],
      "stateMutability": "nonpayable",
      "type": "function"
    },
    {
      "inputs": [
        {
          "internalType": "string",
          "name": "fanClubId",
          "type": "string"
        }
      ],
      "name": "getBalance",
      "outputs": [
        {
          "internalType": "uint256",
          "name": "",
          "type": "uint256"
        }
      ],
      "stateMutability": "view",
      "type": "function"
    },
    {
      "inputs": [
        {
          "internalType": "string",
          "name": "fanClubId",
          "type": "string"
        },
        {
          "internalType": "address",
          "name": "tokenAddress",
          "type": "address"
        }
      ],
      "name": "getFanTokenBalance",
      "outputs": [
        {
          "internalType": "uint256",
          "name": "",
          "type": "uint256"
        }
      ],
      "stateMutability": "view",
      "type": "function"
    },
    {
      "inputs": [
        {
          "internalType": "string",
          "name": "fanClubId",
          "type": "string"
        }
      ],
      "name": "getJoinPrice",
      "outputs": [
        {
          "internalType": "uint256",
          "name": "",
          "type": "uint256"
        }
      ],
      "stateMutability": "view",
      "type": "function"
    },
    {
      "inputs": [
        {
          "internalType": "string",
          "name": "fanClubId",
          "type": "string"
        }
      ],
      "name": "getMembers",
      "outputs": [
        {
          "internalType": "address[]",
          "name": "",
          "type": "address[]"
        }
      ],
      "stateMutability": "view",
      "type": "function"
    },
    {
      "inputs": [
        {
          "internalType": "string",
          "name": "fanClubId",
          "type": "string"
        }
      ],
      "name": "getOwner",
      "outputs": [
        {
          "internalType": "address",
          "name": "",
          "type": "address"
        }
      ],
      "stateMutability": "view",
      "type": "function"
    },
    {
      "inputs": [
        {
          "internalType": "string",
          "name": "fanClubId",
          "type": "string"
        }
      ],
      "name": "join",
      "outputs": [],
      "stateMutability": "payable",
      "type": "function"
    },
    {
      "inputs": [
        {
          "internalType": "string",
          "name": "fanClubId",
          "type": "string"
        }
      ],
      "name": "leave",
      "outputs": [],
      "stateMutability": "nonpayable",
      "type": "function"
    },
    {
      "inputs": [
        {
          "internalType": "string",
          "name": "fanClubId",
          "type": "string"
        },
        {
          "internalType": "address",
          "name": "tokenAddress",
          "type": "address"
        },
        {
          "internalType": "address",
          "name": "recipient",
          "type": "address"
        },
        {
          "internalType": "uint256",
          "name": "amount",
          "type": "uint256"
        }
      ],
      "name": "rewardFanToken",
      "outputs": [],
      "stateMutability": "nonpayable",
      "type": "function"
    },
    {
      "inputs": [
        {
          "internalType": "string",
          "name": "fanClubId",
          "type": "string"
        },
        {
          "internalType": "uint256",
          "name": "newPrice",
          "type": "uint256"
        }
      ],
      "name": "updatePrice",
      "outputs": [],
      "stateMutability": "nonpayable",
      "type": "function"
    },
    {
      "inputs": [
        {
          "internalType": "string",
          "name": "fanClubId",
          "type": "string"
        },
        {
          "internalType": "uint256",
          "name": "amount",
          "type": "uint256"
        }
      ],
      "name": "withdraw",
      "outputs": [],
      "stateMutability": "nonpayable",
      "type": "function"
    },
    {
      "inputs": [
        {
          "internalType": "string",
          "name": "fanClubId",
          "type": "string"
        },
        {
          "internalType": "address",
          "name": "tokenAddress",
          "type": "address"
        },
        {
          "internalType": "uint256",
          "name": "amount",
          "type": "uint256"
        }
      ],
      "name": "withdrawFanTokens",
      "outputs": [],
      "stateMutability": "nonpayable",
      "type": "function"
    }
  ],
  "bytecode": "0x608060405234801561001057600080fd5b50612b59806100206000396000f3fe6080604052600436106100dd5760003560e01c8063612e61c81161007f5780638bf918d7116100595780638bf918d7146102bf57806393230fe8146102fc578063c418444414610339578063ca4aab8d14610362576100dd565b8063612e61c8146102515780636a60883a1461027a5780636a786b07146102a3576100dd565b80633a51d246116100bb5780633a51d246146101715780634a432a46146101ae5780634aaf4a12146101d75780635625057114610214576100dd565b8063237a4d51146100e257806330b39a621461010b5780633779e04914610134575b600080fd5b3480156100ee57600080fd5b5061010960048036038101906101049190611ebb565b61038b565b005b34801561011757600080fd5b50610132600480360381019061012d9190611f3a565b61069b565b005b34801561014057600080fd5b5061015b60048036038101906101569190611ff4565b6108db565b604051610168919061205f565b60405180910390f35b34801561017d57600080fd5b5061019860048036038101906101939190611ebb565b610a5d565b6040516101a5919061205f565b60405180910390f35b3480156101ba57600080fd5b506101d560048036038101906101d09190611f3a565b610c0c565b005b3480156101e357600080fd5b506101fe60048036038101906101f99190611ebb565b610d95565b60405161020b9190612089565b60405180910390f35b34801561022057600080fd5b5061023b60048036038101906102369190611ebb565b610e4b565b6040516102489190612162565b60405180910390f35b34801561025d57600080fd5b5061027860048036038101906102739190612184565b610f65565b005b34801561028657600080fd5b506102a1600480360381019061029c9190611f3a565b6110e4565b005b6102bd60048036038101906102b89190611ebb565b6112fa565b005b3480156102cb57600080fd5b506102e660048036038101906102e19190611ff4565b611553565b6040516102f3919061220e565b60405180910390f35b34801561030857600080fd5b50610323600480360381019061031e9190611ebb565b611634565b604051610330919061205f565b60405180910390f35b34801561034557600080fd5b50610360600480360381019061035b9190612184565b6116ca565b005b34801561036e57600080fd5b5061038960048036038101906103849190612229565b611a29565b005b60018160405161039b919061231d565b908152602001604051809103902060009054906101000a900460ff166103f6576040517f08c379a00000000000000000000000000000000000000000000000000000000081526004016103ed90612391565b60405180910390fd5b60008082604051610407919061231d565b908152602001604051809103902090508060030160003373ffffffffffffffffffffffffffffffffffffffff1673ffffffffffffffffffffffffffffffffffffffff16815260200190815260200160002060009054906101000a900460ff166104a5576040517f08c379a000000000000000000000000000000000000000000000000000000000815260040161049c906123fd565b60405180910390fd5b60008160020180549050905060005b8181101561063b573373ffffffffffffffffffffffffffffffffffffffff168360020182815481106104e9576104e861241d565b5b9060005260206000200160009054906101000a900473ffffffffffffffffffffffffffffffffffffffff1673ffffffffffffffffffffffffffffffffffffffff16036106285782600201600183610540919061247b565b815481106105515761055061241d565b5b9060005260206000200160009054906101000a900473ffffffffffffffffffffffffffffffffffffffff168360020182815481106105925761059161241d565b5b9060005260206000200160006101000a81548173ffffffffffffffffffffffffffffffffffffffff021916908373ffffffffffffffffffffffffffffffffffffffff160217905550826002018054806105ee576105ed6124af565b5b6001900381819060005260206000200160006101000a81549073ffffffffffffffffffffffffffffffffffffffff0219169055905561063b565b8080610633906124de565b9150506104b4565b5060008260030160003373ffffffffffffffffffffffffffffffffffffffff1673ffffffffffffffffffffffffffffffffffffffff16815260200190815260200160002060006101000a81548160ff021916908315150217905550505050565b816001816040516106ac919061231d565b908152602001604051809103902060009054906101000a900460ff16610707576040517f08c379a00000000000000000000000000000000000000000000000000000000081526004016106fe90612391565b60405180910390fd5b600081604051610717919061231d565b908152602001604051809103902060000160009054906101000a900473ffffffffffffffffffffffffffffffffffffffff1673ffffffffffffffffffffffffffffffffffffffff163373ffffffffffffffffffffffffffffffffffffffff16146107b6576040517f08c379a00000000000000000000000000000000000000000000000000000000081526004016107ad90612572565b60405180910390fd5b600082116107f9576040517f08c379a00000000000000000000000000000000000000000000000000000000081526004016107f0906125de565b60405180910390fd5b8160028460405161080a919061231d565b908152602001604051809103902054101561085a576040517f08c379a00000000000000000000000000000000000000000000000000000000081526004016108519061264a565b60405180910390fd5b8160028460405161086b919061231d565b90815260200160405180910390206000828254610888919061247b565b925050819055503373ffffffffffffffffffffffffffffffffffffffff166108fc839081150290604051600060405180830381858888f193505050501580156108d5573d6000803e3d6000fd5b50505050565b6000826001816040516108ee919061231d565b908152602001604051809103902060009054906101000a900460ff16610949576040517f08c379a000000000000000000000000000000000000000000000000000000000815260040161094090612391565b60405180910390fd5b600081604051610959919061231d565b908152602001604051809103902060000160009054906101000a900473ffffffffffffffffffffffffffffffffffffffff1673ffffffffffffffffffffffffffffffffffffffff163373ffffffffffffffffffffffffffffffffffffffff16146109f8576040517f08c379a00000000000000000000000000000000000000000000000000000000081526004016109ef90612572565b60405180910390fd5b600384604051610a08919061231d565b908152602001604051809103902060008473ffffffffffffffffffffffffffffffffffffffff1673ffffffffffffffffffffffffffffffffffffffff1681526020019081526020016000205491505092915050565b600081600181604051610a70919061231d565b908152602001604051809103902060009054906101000a900460ff16610acb576040517f08c379a0000000000000000000000000000000000000000000000000000000008152600401610ac290612391565b60405180910390fd5b600081604051610adb919061231d565b908152602001604051809103902060000160009054906101000a900473ffffffffffffffffffffffffffffffffffffffff1673ffffffffffffffffffffffffffffffffffffffff163373ffffffffffffffffffffffffffffffffffffffff1614610b7a576040517f08c379a0000000000000000000000000000000000000000000000000000000008152600401610b7190612572565b60405180910390fd5b600183604051610b8a919061231d565b908152602001604051809103902060009054906101000a900460ff16610be5576040517f08c379a0000000000000000000000000000000000000000000000000000000008152600401610bdc90612391565b60405180910390fd5b600283604051610bf5919061231d565b908152602001604051809103902054915050919050565b81600181604051610c1d919061231d565b908152602001604051809103902060009054906101000a900460ff16610c78576040517f08c379a0000000000000000000000000000000000000000000000000000000008152600401610c6f90612391565b60405180910390fd5b600081604051610c88919061231d565b908152602001604051809103902060000160009054906101000a900473ffffffffffffffffffffffffffffffffffffffff1673ffffffffffffffffffffffffffffffffffffffff163373ffffffffffffffffffffffffffffffffffffffff1614610d27576040517f08c379a0000000000000000000000000000000000000000000000000000000008152600401610d1e90612572565b60405180910390fd5b60008211610d6a576040517f08c379a0000000000000000000000000000000000000000000000000000000008152600401610d61906126b6565b60405180910390fd5b81600084604051610d7b919061231d565b908152602001604051809103902060010181905550505050565b6000600182604051610da7919061231d565b908152602001604051809103902060009054906101000a900460ff16610e02576040517f08c379a0000000000000000000000000000000000000000000000000000000008152600401610df990612391565b60405180910390fd5b600082604051610e12919061231d565b908152602001604051809103902060000160009054906101000a900473ffffffffffffffffffffffffffffffffffffffff169050919050565b6060600182604051610e5d919061231d565b908152602001604051809103902060009054906101000a900460ff16610eb8576040517f08c379a0000000000000000000000000000000000000000000000000000000008152600401610eaf90612391565b60405180910390fd5b600082604051610ec8919061231d565b9081526020016040518091039020600201805480602002602001604051908101604052809291908181526020018280548015610f5957602002820191906000526020600020905b8160009054906101000a900473ffffffffffffffffffffffffffffffffffffffff1673ffffffffffffffffffffffffffffffffffffffff1681526020019060010190808311610f0f575b50505050509050919050565b60008111610fa8576040517f08c379a0000000000000000000000000000000000000000000000000000000008152600401610f9f90612722565b60405180910390fd5b60008273ffffffffffffffffffffffffffffffffffffffff166323b872dd3330856040518463ffffffff1660e01b8152600401610fe793929190612742565b6020604051808303816000875af1158015611006573d6000803e3d6000fd5b505050506040513d601f19601f8201168201806040525081019061102a91906127a5565b90508061106c576040517f08c379a00000000000000000000000000000000000000000000000000000000081526004016110639061281e565b60405180910390fd5b8160038560405161107d919061231d565b908152602001604051809103902060008573ffffffffffffffffffffffffffffffffffffffff1673ffffffffffffffffffffffffffffffffffffffff16815260200190815260200160002060008282546110d7919061283e565b9250508190555050505050565b6001826040516110f4919061231d565b908152602001604051809103902060009054906101000a900460ff1615611150576040517f08c379a0000000000000000000000000000000000000000000000000000000008152600401611147906128be565b60405180910390fd5b60008111611193576040517f08c379a000000000000000000000000000000000000000000000000000000000815260040161118a906126b6565b60405180910390fd5b600080836040516111a4919061231d565b90815260200160405180910390209050338160000160006101000a81548173ffffffffffffffffffffffffffffffffffffffff021916908373ffffffffffffffffffffffffffffffffffffffff16021790555081816001018190555080600201339080600181540180825580915050600190039060005260206000200160009091909190916101000a81548173ffffffffffffffffffffffffffffffffffffffff021916908373ffffffffffffffffffffffffffffffffffffffff16021790555060018160030160003373ffffffffffffffffffffffffffffffffffffffff1673ffffffffffffffffffffffffffffffffffffffff16815260200190815260200160002060006101000a81548160ff021916908315150217905550600180846040516112d0919061231d565b908152602001604051809103902060006101000a81548160ff021916908315150217905550505050565b60018160405161130a919061231d565b908152602001604051809103902060009054906101000a900460ff16611365576040517f08c379a000000000000000000000000000000000000000000000000000000000815260040161135c90612391565b60405180910390fd5b60008082604051611376919061231d565b908152602001604051809103902090508060030160003373ffffffffffffffffffffffffffffffffffffffff1673ffffffffffffffffffffffffffffffffffffffff16815260200190815260200160002060009054906101000a900460ff1615611415576040517f08c379a000000000000000000000000000000000000000000000000000000000815260040161140c9061292a565b60405180910390fd5b8060010154341461145b576040517f08c379a000000000000000000000000000000000000000000000000000000000815260040161145290612996565b60405180910390fd5b80600201339080600181540180825580915050600190039060005260206000200160009091909190916101000a81548173ffffffffffffffffffffffffffffffffffffffff021916908373ffffffffffffffffffffffffffffffffffffffff16021790555060018160030160003373ffffffffffffffffffffffffffffffffffffffff1673ffffffffffffffffffffffffffffffffffffffff16815260200190815260200160002060006101000a81548160ff0219169083151502179055503460028360405161152b919061231d565b90815260200160405180910390206000828254611548919061283e565b925050819055505050565b6000600183604051611565919061231d565b908152602001604051809103902060009054906101000a900460ff166115c0576040517f08c379a00000000000000000000000000000000000000000000000000000000081526004016115b790612391565b60405180910390fd5b6000836040516115d0919061231d565b908152602001604051809103902060030160008373ffffffffffffffffffffffffffffffffffffffff1673ffffffffffffffffffffffffffffffffffffffff16815260200190815260200160002060009054906101000a900460ff16905092915050565b6000600182604051611646919061231d565b908152602001604051809103902060009054906101000a900460ff166116a1576040517f08c379a000000000000000000000000000000000000000000000000000000000815260040161169890612391565b60405180910390fd5b6000826040516116b1919061231d565b9081526020016040518091039020600101549050919050565b826001816040516116db919061231d565b908152602001604051809103902060009054906101000a900460ff16611736576040517f08c379a000000000000000000000000000000000000000000000000000000000815260040161172d90612391565b60405180910390fd5b600081604051611746919061231d565b908152602001604051809103902060000160009054906101000a900473ffffffffffffffffffffffffffffffffffffffff1673ffffffffffffffffffffffffffffffffffffffff163373ffffffffffffffffffffffffffffffffffffffff16146117e5576040517f08c379a00000000000000000000000000000000000000000000000000000000081526004016117dc90612572565b60405180910390fd5b6001846040516117f5919061231d565b908152602001604051809103902060009054906101000a900460ff16611850576040517f08c379a000000000000000000000000000000000000000000000000000000000815260040161184790612391565b60405180910390fd5b81600385604051611861919061231d565b908152602001604051809103902060008573ffffffffffffffffffffffffffffffffffffffff1673ffffffffffffffffffffffffffffffffffffffff1681526020019081526020016000205410156118ee576040517f08c379a00000000000000000000000000000000000000000000000000000000081526004016118e590612a02565b60405180910390fd5b816003856040516118ff919061231d565b908152602001604051809103902060008573ffffffffffffffffffffffffffffffffffffffff1673ffffffffffffffffffffffffffffffffffffffff1681526020019081526020016000206000828254611959919061247b565b9250508190555060008373ffffffffffffffffffffffffffffffffffffffff1663a9059cbb33856040518363ffffffff1660e01b815260040161199d929190612a22565b6020604051808303816000875af11580156119bc573d6000803e3d6000fd5b505050506040513d601f19601f820116820180604052508101906119e091906127a5565b905080611a22576040517f08c379a0000000000000000000000000000000000000000000000000000000008152600401611a1990612a97565b60405180910390fd5b5050505050565b83600181604051611a3a919061231d565b908152602001604051809103902060009054906101000a900460ff16611a95576040517f08c379a0000000000000000000000000000000000000000000000000000000008152600401611a8c90612391565b60405180910390fd5b600081604051611aa5919061231d565b908152602001604051809103902060000160009054906101000a900473ffffffffffffffffffffffffffffffffffffffff1673ffffffffffffffffffffffffffffffffffffffff163373ffffffffffffffffffffffffffffffffffffffff1614611b44576040517f08c379a0000000000000000000000000000000000000000000000000000000008152600401611b3b90612572565b60405180910390fd5b60008211611b87576040517f08c379a0000000000000000000000000000000000000000000000000000000008152600401611b7e90612722565b60405180910390fd5b81600386604051611b98919061231d565b908152602001604051809103902060008673ffffffffffffffffffffffffffffffffffffffff1673ffffffffffffffffffffffffffffffffffffffff168152602001908152602001600020541015611c25576040517f08c379a0000000000000000000000000000000000000000000000000000000008152600401611c1c90612a02565b60405180910390fd5b81600386604051611c36919061231d565b908152602001604051809103902060008673ffffffffffffffffffffffffffffffffffffffff1673ffffffffffffffffffffffffffffffffffffffff1681526020019081526020016000206000828254611c90919061247b565b9250508190555060008473ffffffffffffffffffffffffffffffffffffffff1663a9059cbb85856040518363ffffffff1660e01b8152600401611cd4929190612a22565b6020604051808303816000875af1158015611cf3573d6000803e3d6000fd5b505050506040513d601f19601f82011682018060405250810190611d1791906127a5565b905080611d59576040517f08c379a0000000000000000000000000000000000000000000000000000000008152600401611d5090612b03565b60405180910390fd5b505050505050565b6000604051905090565b600080fd5b600080fd5b600080fd5b600080fd5b6000601f19601f8301169050919050565b7f4e487b7100000000000000000000000000000000000000000000000000000000600052604160045260246000fd5b611dc882611d7f565b810181811067ffffffffffffffff82111715611de757611de6611d90565b5b80604052505050565b6000611dfa611d61565b9050611e068282611dbf565b919050565b600067ffffffffffffffff821115611e2657611e25611d90565b5b611e2f82611d7f565b9050602081019050919050565b82818337600083830152505050565b6000611e5e611e5984611e0b565b611df0565b905082815260208101848484011115611e7a57611e79611d7a565b5b611e85848285611e3c565b509392505050565b600082601f830112611ea257611ea1611d75565b5b8135611eb2848260208601611e4b565b91505092915050565b600060208284031215611ed157611ed0611d6b565b5b600082013567ffffffffffffffff811115611eef57611eee611d70565b5b611efb84828501611e8d565b91505092915050565b6000819050919050565b611f1781611f04565b8114611f2257600080fd5b50565b600081359050611f3481611f0e565b92915050565b60008060408385031215611f5157611f50611d6b565b5b600083013567ffffffffffffffff811115611f6f57611f6e611d70565b5b611f7b85828601611e8d565b9250506020611f8c85828601611f25565b9150509250929050565b600073ffffffffffffffffffffffffffffffffffffffff82169050919050565b6000611fc182611f96565b9050919050565b611fd181611fb6565b8114611fdc57600080fd5b50565b600081359050611fee81611fc8565b92915050565b6000806040838503121561200b5761200a611d6b565b5b600083013567ffffffffffffffff81111561202957612028611d70565b5b61203585828601611e8d565b925050602061204685828601611fdf565b9150509250929050565b61205981611f04565b82525050565b60006020820190506120746000830184612050565b92915050565b61208381611fb6565b82525050565b600060208201905061209e600083018461207a565b92915050565b600081519050919050565b600082825260208201905092915050565b6000819050602082019050919050565b6120d981611fb6565b82525050565b60006120eb83836120d0565b60208301905092915050565b6000602082019050919050565b600061210f826120a4565b61211981856120af565b9350612124836120c0565b8060005b8381101561215557815161213c88826120df565b9750612147836120f7565b925050600181019050612128565b5085935050505092915050565b6000602082019050818103600083015261217c8184612104565b905092915050565b60008060006060848603121561219d5761219c611d6b565b5b600084013567ffffffffffffffff8111156121bb576121ba611d70565b5b6121c786828701611e8d565b93505060206121d886828701611fdf565b92505060406121e986828701611f25565b9150509250925092565b60008115159050919050565b612208816121f3565b82525050565b600060208201905061222360008301846121ff565b92915050565b6000806000806080858703121561224357612242611d6b565b5b600085013567ffffffffffffffff81111561226157612260611d70565b5b61226d87828801611e8d565b945050602061227e87828801611fdf565b935050604061228f87828801611fdf565b92505060606122a087828801611f25565b91505092959194509250565b600081519050919050565b600081905092915050565b60005b838110156122e05780820151818401526020810190506122c5565b60008484015250505050565b60006122f7826122ac565b61230181856122b7565b93506123118185602086016122c2565b80840191505092915050565b600061232982846122ec565b915081905092915050565b600082825260208201905092915050565b7f46616e20636c756220646f6573206e6f74206578697374000000000000000000600082015250565b600061237b601783612334565b915061238682612345565b602082019050919050565b600060208201905081810360008301526123aa8161236e565b9050919050565b7f4e6f742061206d656d6265720000000000000000000000000000000000000000600082015250565b60006123e7600c83612334565b91506123f2826123b1565b602082019050919050565b60006020820190508181036000830152612416816123da565b9050919050565b7f4e487b7100000000000000000000000000000000000000000000000000000000600052603260045260246000fd5b7f4e487b7100000000000000000000000000000000000000000000000000000000600052601160045260246000fd5b600061248682611f04565b915061249183611f04565b92508282039050818111156124a9576124a861244c565b5b92915050565b7f4e487b7100000000000000000000000000000000000000000000000000000000600052603160045260246000fd5b60006124e982611f04565b91507fffffffffffffffffffffffffffffffffffffffffffffffffffffffffffffffff820361251b5761251a61244c565b5b600182019050919050565b7f4f6e6c792066616e20636c7562206f776e657200000000000000000000000000600082015250565b600061255c601383612334565b915061256782612526565b602082019050919050565b6000602082019050818103600083015261258b8161254f565b9050919050565b7f4e6f2062616c616e636520746f20776974686472617700000000000000000000600082015250565b60006125c8601683612334565b91506125d382612592565b602082019050919050565b600060208201905081810360008301526125f7816125bb565b9050919050565b7f496e73756666696369656e742062616c616e6365000000000000000000000000600082015250565b6000612634601483612334565b915061263f826125fe565b602082019050919050565b6000602082019050818103600083015261266381612627565b9050919050565b7f5072696365206d7573742062652067726561746572207468616e207a65726f00600082015250565b60006126a0601f83612334565b91506126ab8261266a565b602082019050919050565b600060208201905081810360008301526126cf81612693565b9050919050565b7f416d6f756e74206d7573742062652067726561746572207468616e2030000000600082015250565b600061270c601d83612334565b9150612717826126d6565b602082019050919050565b6000602082019050818103600083015261273b816126ff565b9050919050565b6000606082019050612757600083018661207a565b612764602083018561207a565b6127716040830184612050565b949350505050565b612782816121f3565b811461278d57600080fd5b50565b60008151905061279f81612779565b92915050565b6000602082840312156127bb576127ba611d6b565b5b60006127c984828501612790565b91505092915050565b7f546f6b656e207472616e73666572206661696c65640000000000000000000000600082015250565b6000612808601583612334565b9150612813826127d2565b602082019050919050565b60006020820190508181036000830152612837816127fb565b9050919050565b600061284982611f04565b915061285483611f04565b925082820190508082111561286c5761286b61244c565b5b92915050565b7f46616e20636c756220616c726561647920657869737473000000000000000000600082015250565b60006128a8601783612334565b91506128b382612872565b602082019050919050565b600060208201905081810360008301526128d78161289b565b9050919050565b7f416c72656164792061206d656d62657200000000000000000000000000000000600082015250565b6000612914601083612334565b915061291f826128de565b602082019050919050565b6000602082019050818103600083015261294381612907565b9050919050565b7f496e636f7272656374207061796d656e74000000000000000000000000000000600082015250565b6000612980601183612334565b915061298b8261294a565b602082019050919050565b600060208201905081810360008301526129af81612973565b9050919050565b7f496e73756666696369656e7420746f6b656e2062616c616e6365000000000000600082015250565b60006129ec601a83612334565b91506129f7826129b6565b602082019050919050565b60006020820190508181036000830152612a1b816129df565b9050919050565b6000604082019050612a37600083018561207a565b612a446020830184612050565b9392505050565b7f546f6b656e207769746864726177616c206661696c6564000000000000000000600082015250565b6000612a81601783612334565b9150612a8c82612a4b565b602082019050919050565b60006020820190508181036000830152612ab081612a74565b9050919050565b7f546f6b656e20726577617264206661696c656400000000000000000000000000600082015250565b6000612aed601383612334565b9150612af882612ab7565b602082019050919050565b60006020820190508181036000830152612b1c81612ae0565b905091905056fea2646970667358221220003f44ebf4b8d6541a3635988d8bd035be5e3787a76fd9be54ba934b672bebe064736f6c63430008140033",
  "linkReferences": {},
  "deployedLinkReferences": {}
}