{
  "_format": "hh-sol-artifact-1",
  "contractName": "FanClub",
  "sourceName": "contracts/FanClub.sol",
  "abi": [
    {
      "inputs": [
        {
          "internalType": "uint256",
          "name": "_price",
          "type": "uint256"
        },
        {
          "internalType": "address",
          "name": "_owner",
          "type": "address"
        }
      ],
      "stateMutability": "nonpayable",
      "type": "constructor"
    },
    {
      "inputs": [
        {
          "internalType": "address",
          "name": "user",
          "type": "address"
        }
      ],
      "name": "checkMember",
      "outputs": [
        {
          "internalType": "bool",
          "name": "",
          "type": "bool"
        }
      ],
      "stateMutability": "view",
      "type": "function"
    },
    {
      "inputs": [],
      "name": "getMembers",
      "outputs": [
        {
          "internalType": "address[]",
          "name": "",
          "type": "address[]"
        }
      ],
      "stateMutability": "view",
      "type": "function"
    },
    {
      "inputs": [],
      "name": "join",
      "outputs": [],
      "stateMutability": "payable",
      "type": "function"
    },
    {
      "inputs": [],
      "name": "joinPrice",
      "outputs": [
        {
          "internalType": "uint256",
          "name": "",
          "type": "uint256"
        }
      ],
      "stateMutability": "view",
      "type": "function"
    },
    {
      "inputs": [],
      "name": "leave",
      "outputs": [],
      "stateMutability": "nonpayable",
      "type": "function"
    },
    {
      "inputs": [],
      "name": "owner",
      "outputs": [
        {
          "internalType": "address",
          "name": "",
          "type": "address"
        }
      ],
      "stateMutability": "view",
      "type": "function"
    },
    {
      "inputs": [
        {
          "internalType": "uint256",
          "name": "newPrice",
          "type": "uint256"
        }
      ],
      "name": "updatePrice",
      "outputs": [],
      "stateMutability": "nonpayable",
      "type": "function"
    },
    {
      "inputs": [],
      "name": "withdraw",
      "outputs": [],
      "stateMutability": "nonpayable",
      "type": "function"
    }
  ],
  "bytecode": "0x60806040523480156200001157600080fd5b50604051620011503803806200115083398181016040528101906200003791906200022c565b806000806101000a81548173ffffffffffffffffffffffffffffffffffffffff021916908373ffffffffffffffffffffffffffffffffffffffff16021790555060008211620000bd576040517f08c379a0000000000000000000000000000000000000000000000000000000008152600401620000b490620002d4565b60405180910390fd5b816001819055506002819080600181540180825580915050600190039060005260206000200160009091909190916101000a81548173ffffffffffffffffffffffffffffffffffffffff021916908373ffffffffffffffffffffffffffffffffffffffff1602179055506001600360008373ffffffffffffffffffffffffffffffffffffffff1673ffffffffffffffffffffffffffffffffffffffff16815260200190815260200160002060006101000a81548160ff0219169083151502179055505050620002f6565b600080fd5b6000819050919050565b620001a1816200018c565b8114620001ad57600080fd5b50565b600081519050620001c18162000196565b92915050565b600073ffffffffffffffffffffffffffffffffffffffff82169050919050565b6000620001f482620001c7565b9050919050565b6200020681620001e7565b81146200021257600080fd5b50565b6000815190506200022681620001fb565b92915050565b6000806040838503121562000246576200024562000187565b5b60006200025685828601620001b0565b9250506020620002698582860162000215565b9150509250929050565b600082825260208201905092915050565b7f5072696365206d7573742062652067726561746572207468616e207a65726f00600082015250565b6000620002bc601f8362000273565b9150620002c98262000284565b602082019050919050565b60006020820190508181036000830152620002ef81620002ad565b9050919050565b610e4a80620003066000396000f3fe60806040526004361061007b5760003560e01c80639eab52531161004e5780639eab525314610116578063aaf2e5d814610141578063b688a3631461017e578063d66d9e19146101885761007b565b80633ccfd60b146100805780633d7ee23b146100975780638d6cc56d146100c25780638da5cb5b146100eb575b600080fd5b34801561008c57600080fd5b5061009561019f565b005b3480156100a357600080fd5b506100ac610296565b6040516100b9919061089a565b60405180910390f35b3480156100ce57600080fd5b506100e960048036038101906100e491906108e6565b61029c565b005b3480156100f757600080fd5b50610100610377565b60405161010d9190610954565b60405180910390f35b34801561012257600080fd5b5061012b61039b565b6040516101389190610a2d565b60405180910390f35b34801561014d57600080fd5b5061016860048036038101906101639190610a7b565b610429565b6040516101759190610ac3565b60405180910390f35b61018661047f565b005b34801561019457600080fd5b5061019d61060d565b005b60008054906101000a900473ffffffffffffffffffffffffffffffffffffffff1673ffffffffffffffffffffffffffffffffffffffff163373ffffffffffffffffffffffffffffffffffffffff161461022d576040517f08c379a000000000000000000000000000000000000000000000000000000000815260040161022490610b3b565b60405180910390fd5b60008054906101000a900473ffffffffffffffffffffffffffffffffffffffff1673ffffffffffffffffffffffffffffffffffffffff166108fc479081150290604051600060405180830381858888f19350505050158015610293573d6000803e3d6000fd5b50565b60015481565b60008054906101000a900473ffffffffffffffffffffffffffffffffffffffff1673ffffffffffffffffffffffffffffffffffffffff163373ffffffffffffffffffffffffffffffffffffffff161461032a576040517f08c379a000000000000000000000000000000000000000000000000000000000815260040161032190610b3b565b60405180910390fd5b6000811161036d576040517f08c379a000000000000000000000000000000000000000000000000000000000815260040161036490610ba7565b60405180910390fd5b8060018190555050565b60008054906101000a900473ffffffffffffffffffffffffffffffffffffffff1681565b6060600280548060200260200160405190810160405280929190818152602001828054801561041f57602002820191906000526020600020905b8160009054906101000a900473ffffffffffffffffffffffffffffffffffffffff1673ffffffffffffffffffffffffffffffffffffffff16815260200190600101908083116103d5575b5050505050905090565b6000600360008373ffffffffffffffffffffffffffffffffffffffff1673ffffffffffffffffffffffffffffffffffffffff16815260200190815260200160002060009054906101000a900460ff169050919050565b600360003373ffffffffffffffffffffffffffffffffffffffff1673ffffffffffffffffffffffffffffffffffffffff16815260200190815260200160002060009054906101000a900460ff161561050c576040517f08c379a000000000000000000000000000000000000000000000000000000000815260040161050390610c13565b60405180910390fd5b6001543414610550576040517f08c379a000000000000000000000000000000000000000000000000000000000815260040161054790610c7f565b60405180910390fd5b6002339080600181540180825580915050600190039060005260206000200160009091909190916101000a81548173ffffffffffffffffffffffffffffffffffffffff021916908373ffffffffffffffffffffffffffffffffffffffff1602179055506001600360003373ffffffffffffffffffffffffffffffffffffffff1673ffffffffffffffffffffffffffffffffffffffff16815260200190815260200160002060006101000a81548160ff021916908315150217905550565b600360003373ffffffffffffffffffffffffffffffffffffffff1673ffffffffffffffffffffffffffffffffffffffff16815260200190815260200160002060009054906101000a900460ff16610699576040517f08c379a000000000000000000000000000000000000000000000000000000000815260040161069090610ceb565b60405180910390fd5b6000600280549050905060005b81811015610825573373ffffffffffffffffffffffffffffffffffffffff16600282815481106106d9576106d8610d0b565b5b9060005260206000200160009054906101000a900473ffffffffffffffffffffffffffffffffffffffff1673ffffffffffffffffffffffffffffffffffffffff160361081257600260018361072e9190610d69565b8154811061073f5761073e610d0b565b5b9060005260206000200160009054906101000a900473ffffffffffffffffffffffffffffffffffffffff166002828154811061077e5761077d610d0b565b5b9060005260206000200160006101000a81548173ffffffffffffffffffffffffffffffffffffffff021916908373ffffffffffffffffffffffffffffffffffffffff16021790555060028054806107d8576107d7610d9d565b5b6001900381819060005260206000200160006101000a81549073ffffffffffffffffffffffffffffffffffffffff02191690559055610825565b808061081d90610dcc565b9150506106a6565b506000600360003373ffffffffffffffffffffffffffffffffffffffff1673ffffffffffffffffffffffffffffffffffffffff16815260200190815260200160002060006101000a81548160ff02191690831515021790555050565b6000819050919050565b61089481610881565b82525050565b60006020820190506108af600083018461088b565b92915050565b600080fd5b6108c381610881565b81146108ce57600080fd5b50565b6000813590506108e0816108ba565b92915050565b6000602082840312156108fc576108fb6108b5565b5b600061090a848285016108d1565b91505092915050565b600073ffffffffffffffffffffffffffffffffffffffff82169050919050565b600061093e82610913565b9050919050565b61094e81610933565b82525050565b60006020820190506109696000830184610945565b92915050565b600081519050919050565b600082825260208201905092915050565b6000819050602082019050919050565b6109a481610933565b82525050565b60006109b6838361099b565b60208301905092915050565b6000602082019050919050565b60006109da8261096f565b6109e4818561097a565b93506109ef8361098b565b8060005b83811015610a20578151610a0788826109aa565b9750610a12836109c2565b9250506001810190506109f3565b5085935050505092915050565b60006020820190508181036000830152610a4781846109cf565b905092915050565b610a5881610933565b8114610a6357600080fd5b50565b600081359050610a7581610a4f565b92915050565b600060208284031215610a9157610a906108b5565b5b6000610a9f84828501610a66565b91505092915050565b60008115159050919050565b610abd81610aa8565b82525050565b6000602082019050610ad86000830184610ab4565b92915050565b600082825260208201905092915050565b7f4f6e6c79206f776e657200000000000000000000000000000000000000000000600082015250565b6000610b25600a83610ade565b9150610b3082610aef565b602082019050919050565b60006020820190508181036000830152610b5481610b18565b9050919050565b7f5072696365206d7573742062652067726561746572207468616e207a65726f00600082015250565b6000610b91601f83610ade565b9150610b9c82610b5b565b602082019050919050565b60006020820190508181036000830152610bc081610b84565b9050919050565b7f416c72656164792061206d656d62657200000000000000000000000000000000600082015250565b6000610bfd601083610ade565b9150610c0882610bc7565b602082019050919050565b60006020820190508181036000830152610c2c81610bf0565b9050919050565b7f496e636f7272656374207061796d656e74000000000000000000000000000000600082015250565b6000610c69601183610ade565b9150610c7482610c33565b602082019050919050565b60006020820190508181036000830152610c9881610c5c565b9050919050565b7f4e6f742061206d656d6265720000000000000000000000000000000000000000600082015250565b6000610cd5600c83610ade565b9150610ce082610c9f565b602082019050919050565b60006020820190508181036000830152610d0481610cc8565b9050919050565b7f4e487b7100000000000000000000000000000000000000000000000000000000600052603260045260246000fd5b7f4e487b7100000000000000000000000000000000000000000000000000000000600052601160045260246000fd5b6000610d7482610881565b9150610d7f83610881565b9250828203905081811115610d9757610d96610d3a565b5b92915050565b7f4e487b7100000000000000000000000000000000000000000000000000000000600052603160045260246000fd5b6000610dd782610881565b91507fffffffffffffffffffffffffffffffffffffffffffffffffffffffffffffffff8203610e0957610e08610d3a565b5b60018201905091905056fea26469706673582212200ced1fddfca171ee9c704594ee5ce62eb3f7fc95ffbeb17901e4aceb5704a7b364736f6c63430008140033",
  "linkReferences": {},
  "deployedLinkReferences": {}
}