{
  "_format": "hh-sol-artifact-1",
  "contractName": "FanClubs",
  "sourceName": "contracts/FanClubs.sol",
  "abi": [
    {
      "inputs": [],
      "stateMutability": "nonpayable",
      "type": "constructor"
    },
    {
      "inputs": [
        {
          "internalType": "string",
          "name": "fanClubId",
          "type": "string"
        },
        {
          "internalType": "address",
          "name": "user",
          "type": "address"
        }
      ],
      "name": "checkMember",
      "outputs": [
        {
          "internalType": "bool",
          "name": "",
          "type": "bool"
        }
      ],
      "stateMutability": "view",
      "type": "function"
    },
    {
      "inputs": [
        {
          "internalType": "string",
          "name": "fanClubId",
          "type": "string"
        },
        {
          "internalType": "uint256",
          "name": "_price",
          "type": "uint256"
        }
      ],
      "name": "createFanClub",
      "outputs": [],
      "stateMutability": "nonpayable",
      "type": "function"
    },
    {
      "inputs": [
        {
          "internalType": "string",
          "name": "fanClubId",
          "type": "string"
        },
        {
          "internalType": "address",
          "name": "tokenAddress",
          "type": "address"
        },
        {
          "internalType": "uint256",
          "name": "amount",
          "type": "uint256"
        }
      ],
      "name": "depositFanTokens",
      "outputs": [],
      "stateMutability": "nonpayable",
      "type": "function"
    },
    {
      "inputs": [
        {
          "internalType": "string",
          "name": "fanClubId",
          "type": "string"
        }
      ],
      "name": "getBalance",
      "outputs": [
        {
          "internalType": "uint256",
          "name": "",
          "type": "uint256"
        }
      ],
      "stateMutability": "view",
      "type": "function"
    },
    {
      "inputs": [
        {
          "internalType": "string",
          "name": "fanClubId",
          "type": "string"
        },
        {
          "internalType": "address",
          "name": "tokenAddress",
          "type": "address"
        }
      ],
      "name": "getFanTokenBalance",
      "outputs": [
        {
          "internalType": "uint256",
          "name": "",
          "type": "uint256"
        }
      ],
      "stateMutability": "view",
      "type": "function"
    },
    {
      "inputs": [
        {
          "internalType": "string",
          "name": "fanClubId",
          "type": "string"
        }
      ],
      "name": "getJoinPrice",
      "outputs": [
        {
          "internalType": "uint256",
          "name": "",
          "type": "uint256"
        }
      ],
      "stateMutability": "view",
      "type": "function"
    },
    {
      "inputs": [
        {
          "internalType": "string",
          "name": "fanClubId",
          "type": "string"
        }
      ],
      "name": "getMembers",
      "outputs": [
        {
          "internalType": "address[]",
          "name": "",
          "type": "address[]"
        }
      ],
      "stateMutability": "view",
      "type": "function"
    },
    {
      "inputs": [
        {
          "internalType": "string",
          "name": "fanClubId",
          "type": "string"
        }
      ],
      "name": "getOwner",
      "outputs": [
        {
          "internalType": "address",
          "name": "",
          "type": "address"
        }
      ],
      "stateMutability": "view",
      "type": "function"
    },
    {
      "inputs": [
        {
          "internalType": "string",
          "name": "fanClubId",
          "type": "string"
        }
      ],
      "name": "join",
      "outputs": [],
      "stateMutability": "payable",
      "type": "function"
    },
    {
      "inputs": [
        {
          "internalType": "string",
          "name": "fanClubId",
          "type": "string"
        }
      ],
      "name": "leave",
      "outputs": [],
      "stateMutability": "nonpayable",
      "type": "function"
    },
    {
      "inputs": [
        {
          "internalType": "string",
          "name": "fanClubId",
          "type": "string"
        },
        {
          "internalType": "address",
          "name": "tokenAddress",
          "type": "address"
        },
        {
          "internalType": "address",
          "name": "recipient",
          "type": "address"
        },
        {
          "internalType": "uint256",
          "name": "amount",
          "type": "uint256"
        }
      ],
      "name": "rewardFanToken",
      "outputs": [],
      "stateMutability": "nonpayable",
      "type": "function"
    },
    {
      "inputs": [
        {
          "internalType": "string",
          "name": "fanClubId",
          "type": "string"
        },
        {
          "internalType": "uint256",
          "name": "newPrice",
          "type": "uint256"
        }
      ],
      "name": "updatePrice",
      "outputs": [],
      "stateMutability": "nonpayable",
      "type": "function"
    },
    {
      "inputs": [
        {
          "internalType": "string",
          "name": "fanClubId",
          "type": "string"
        },
        {
          "internalType": "uint256",
          "name": "amount",
          "type": "uint256"
        }
      ],
      "name": "withdraw",
      "outputs": [],
      "stateMutability": "nonpayable",
      "type": "function"
    },
    {
      "inputs": [
        {
          "internalType": "string",
          "name": "fanClubId",
          "type": "string"
        },
        {
          "internalType": "address",
          "name": "tokenAddress",
          "type": "address"
        },
        {
          "internalType": "uint256",
          "name": "amount",
          "type": "uint256"
        }
      ],
      "name": "withdrawFanTokens",
      "outputs": [],
      "stateMutability": "nonpayable",
      "type": "function"
    }
  ],
  "bytecode": "0x608060405234801561001057600080fd5b50612b57806100206000396000f3fe6080604052600436106100dd5760003560e01c8063612e61c81161007f5780638bf918d7116100595780638bf918d7146102bf57806393230fe8146102fc578063c418444414610339578063ca4aab8d14610362576100dd565b8063612e61c8146102515780636a60883a1461027a5780636a786b07146102a3576100dd565b80633a51d246116100bb5780633a51d246146101715780634a432a46146101ae5780634aaf4a12146101d75780635625057114610214576100dd565b8063237a4d51146100e257806330b39a621461010b5780633779e04914610134575b600080fd5b3480156100ee57600080fd5b5061010960048036038101906101049190611eb9565b61038b565b005b34801561011757600080fd5b50610132600480360381019061012d9190611f38565b61069b565b005b34801561014057600080fd5b5061015b60048036038101906101569190611ff2565b6108db565b604051610168919061205d565b60405180910390f35b34801561017d57600080fd5b5061019860048036038101906101939190611eb9565b610a5d565b6040516101a5919061205d565b60405180910390f35b3480156101ba57600080fd5b506101d560048036038101906101d09190611f38565b610c0c565b005b3480156101e357600080fd5b506101fe60048036038101906101f99190611eb9565b610d95565b60405161020b9190612087565b60405180910390f35b34801561022057600080fd5b5061023b60048036038101906102369190611eb9565b610e4b565b6040516102489190612160565b60405180910390f35b34801561025d57600080fd5b5061027860048036038101906102739190612182565b610f65565b005b34801561028657600080fd5b506102a1600480360381019061029c9190611f38565b6110e4565b005b6102bd60048036038101906102b89190611eb9565b6112fa565b005b3480156102cb57600080fd5b506102e660048036038101906102e19190611ff2565b611553565b6040516102f3919061220c565b60405180910390f35b34801561030857600080fd5b50610323600480360381019061031e9190611eb9565b611634565b604051610330919061205d565b60405180910390f35b34801561034557600080fd5b50610360600480360381019061035b9190612182565b6116ca565b005b34801561036e57600080fd5b5061038960048036038101906103849190612227565b611a28565b005b60018160405161039b919061231b565b908152602001604051809103902060009054906101000a900460ff166103f6576040517f08c379a00000000000000000000000000000000000000000000000000000000081526004016103ed9061238f565b60405180910390fd5b60008082604051610407919061231b565b908152602001604051809103902090508060030160003373ffffffffffffffffffffffffffffffffffffffff1673ffffffffffffffffffffffffffffffffffffffff16815260200190815260200160002060009054906101000a900460ff166104a5576040517f08c379a000000000000000000000000000000000000000000000000000000000815260040161049c906123fb565b60405180910390fd5b60008160020180549050905060005b8181101561063b573373ffffffffffffffffffffffffffffffffffffffff168360020182815481106104e9576104e861241b565b5b9060005260206000200160009054906101000a900473ffffffffffffffffffffffffffffffffffffffff1673ffffffffffffffffffffffffffffffffffffffff160361062857826002016001836105409190612479565b815481106105515761055061241b565b5b9060005260206000200160009054906101000a900473ffffffffffffffffffffffffffffffffffffffff168360020182815481106105925761059161241b565b5b9060005260206000200160006101000a81548173ffffffffffffffffffffffffffffffffffffffff021916908373ffffffffffffffffffffffffffffffffffffffff160217905550826002018054806105ee576105ed6124ad565b5b6001900381819060005260206000200160006101000a81549073ffffffffffffffffffffffffffffffffffffffff0219169055905561063b565b8080610633906124dc565b9150506104b4565b5060008260030160003373ffffffffffffffffffffffffffffffffffffffff1673ffffffffffffffffffffffffffffffffffffffff16815260200190815260200160002060006101000a81548160ff021916908315150217905550505050565b816001816040516106ac919061231b565b908152602001604051809103902060009054906101000a900460ff16610707576040517f08c379a00000000000000000000000000000000000000000000000000000000081526004016106fe9061238f565b60405180910390fd5b600081604051610717919061231b565b908152602001604051809103902060000160009054906101000a900473ffffffffffffffffffffffffffffffffffffffff1673ffffffffffffffffffffffffffffffffffffffff163373ffffffffffffffffffffffffffffffffffffffff16146107b6576040517f08c379a00000000000000000000000000000000000000000000000000000000081526004016107ad90612570565b60405180910390fd5b600082116107f9576040517f08c379a00000000000000000000000000000000000000000000000000000000081526004016107f0906125dc565b60405180910390fd5b8160028460405161080a919061231b565b908152602001604051809103902054101561085a576040517f08c379a000000000000000000000000000000000000000000000000000000000815260040161085190612648565b60405180910390fd5b8160028460405161086b919061231b565b908152602001604051809103902060008282546108889190612479565b925050819055503373ffffffffffffffffffffffffffffffffffffffff166108fc839081150290604051600060405180830381858888f193505050501580156108d5573d6000803e3d6000fd5b50505050565b6000826001816040516108ee919061231b565b908152602001604051809103902060009054906101000a900460ff16610949576040517f08c379a00000000000000000000000000000000000000000000000000000000081526004016109409061238f565b60405180910390fd5b600081604051610959919061231b565b908152602001604051809103902060000160009054906101000a900473ffffffffffffffffffffffffffffffffffffffff1673ffffffffffffffffffffffffffffffffffffffff163373ffffffffffffffffffffffffffffffffffffffff16146109f8576040517f08c379a00000000000000000000000000000000000000000000000000000000081526004016109ef90612570565b60405180910390fd5b600384604051610a08919061231b565b908152602001604051809103902060008473ffffffffffffffffffffffffffffffffffffffff1673ffffffffffffffffffffffffffffffffffffffff1681526020019081526020016000205491505092915050565b600081600181604051610a70919061231b565b908152602001604051809103902060009054906101000a900460ff16610acb576040517f08c379a0000000000000000000000000000000000000000000000000000000008152600401610ac29061238f565b60405180910390fd5b600081604051610adb919061231b565b908152602001604051809103902060000160009054906101000a900473ffffffffffffffffffffffffffffffffffffffff1673ffffffffffffffffffffffffffffffffffffffff163373ffffffffffffffffffffffffffffffffffffffff1614610b7a576040517f08c379a0000000000000000000000000000000000000000000000000000000008152600401610b7190612570565b60405180910390fd5b600183604051610b8a919061231b565b908152602001604051809103902060009054906101000a900460ff16610be5576040517f08c379a0000000000000000000000000000000000000000000000000000000008152600401610bdc9061238f565b60405180910390fd5b600283604051610bf5919061231b565b908152602001604051809103902054915050919050565b81600181604051610c1d919061231b565b908152602001604051809103902060009054906101000a900460ff16610c78576040517f08c379a0000000000000000000000000000000000000000000000000000000008152600401610c6f9061238f565b60405180910390fd5b600081604051610c88919061231b565b908152602001604051809103902060000160009054906101000a900473ffffffffffffffffffffffffffffffffffffffff1673ffffffffffffffffffffffffffffffffffffffff163373ffffffffffffffffffffffffffffffffffffffff1614610d27576040517f08c379a0000000000000000000000000000000000000000000000000000000008152600401610d1e90612570565b60405180910390fd5b60008211610d6a576040517f08c379a0000000000000000000000000000000000000000000000000000000008152600401610d61906126b4565b60405180910390fd5b81600084604051610d7b919061231b565b908152602001604051809103902060010181905550505050565b6000600182604051610da7919061231b565b908152602001604051809103902060009054906101000a900460ff16610e02576040517f08c379a0000000000000000000000000000000000000000000000000000000008152600401610df99061238f565b60405180910390fd5b600082604051610e12919061231b565b908152602001604051809103902060000160009054906101000a900473ffffffffffffffffffffffffffffffffffffffff169050919050565b6060600182604051610e5d919061231b565b908152602001604051809103902060009054906101000a900460ff16610eb8576040517f08c379a0000000000000000000000000000000000000000000000000000000008152600401610eaf9061238f565b60405180910390fd5b600082604051610ec8919061231b565b9081526020016040518091039020600201805480602002602001604051908101604052809291908181526020018280548015610f5957602002820191906000526020600020905b8160009054906101000a900473ffffffffffffffffffffffffffffffffffffffff1673ffffffffffffffffffffffffffffffffffffffff1681526020019060010190808311610f0f575b50505050509050919050565b60008111610fa8576040517f08c379a0000000000000000000000000000000000000000000000000000000008152600401610f9f90612720565b60405180910390fd5b60008273ffffffffffffffffffffffffffffffffffffffff166323b872dd3330856040518463ffffffff1660e01b8152600401610fe793929190612740565b6020604051808303816000875af1158015611006573d6000803e3d6000fd5b505050506040513d601f19601f8201168201806040525081019061102a91906127a3565b90508061106c576040517f08c379a00000000000000000000000000000000000000000000000000000000081526004016110639061281c565b60405180910390fd5b8160038560405161107d919061231b565b908152602001604051809103902060008573ffffffffffffffffffffffffffffffffffffffff1673ffffffffffffffffffffffffffffffffffffffff16815260200190815260200160002060008282546110d7919061283c565b9250508190555050505050565b6001826040516110f4919061231b565b908152602001604051809103902060009054906101000a900460ff1615611150576040517f08c379a0000000000000000000000000000000000000000000000000000000008152600401611147906128bc565b60405180910390fd5b60008111611193576040517f08c379a000000000000000000000000000000000000000000000000000000000815260040161118a906126b4565b60405180910390fd5b600080836040516111a4919061231b565b90815260200160405180910390209050338160000160006101000a81548173ffffffffffffffffffffffffffffffffffffffff021916908373ffffffffffffffffffffffffffffffffffffffff16021790555081816001018190555080600201339080600181540180825580915050600190039060005260206000200160009091909190916101000a81548173ffffffffffffffffffffffffffffffffffffffff021916908373ffffffffffffffffffffffffffffffffffffffff16021790555060018160030160003373ffffffffffffffffffffffffffffffffffffffff1673ffffffffffffffffffffffffffffffffffffffff16815260200190815260200160002060006101000a81548160ff021916908315150217905550600180846040516112d0919061231b565b908152602001604051809103902060006101000a81548160ff021916908315150217905550505050565b60018160405161130a919061231b565b908152602001604051809103902060009054906101000a900460ff16611365576040517f08c379a000000000000000000000000000000000000000000000000000000000815260040161135c9061238f565b60405180910390fd5b60008082604051611376919061231b565b908152602001604051809103902090508060030160003373ffffffffffffffffffffffffffffffffffffffff1673ffffffffffffffffffffffffffffffffffffffff16815260200190815260200160002060009054906101000a900460ff1615611415576040517f08c379a000000000000000000000000000000000000000000000000000000000815260040161140c90612928565b60405180910390fd5b8060010154341461145b576040517f08c379a000000000000000000000000000000000000000000000000000000000815260040161145290612994565b60405180910390fd5b80600201339080600181540180825580915050600190039060005260206000200160009091909190916101000a81548173ffffffffffffffffffffffffffffffffffffffff021916908373ffffffffffffffffffffffffffffffffffffffff16021790555060018160030160003373ffffffffffffffffffffffffffffffffffffffff1673ffffffffffffffffffffffffffffffffffffffff16815260200190815260200160002060006101000a81548160ff0219169083151502179055503460028360405161152b919061231b565b90815260200160405180910390206000828254611548919061283c565b925050819055505050565b6000600183604051611565919061231b565b908152602001604051809103902060009054906101000a900460ff166115c0576040517f08c379a00000000000000000000000000000000000000000000000000000000081526004016115b79061238f565b60405180910390fd5b6000836040516115d0919061231b565b908152602001604051809103902060030160008373ffffffffffffffffffffffffffffffffffffffff1673ffffffffffffffffffffffffffffffffffffffff16815260200190815260200160002060009054906101000a900460ff16905092915050565b6000600182604051611646919061231b565b908152602001604051809103902060009054906101000a900460ff166116a1576040517f08c379a00000000000000000000000000000000000000000000000000000000081526004016116989061238f565b60405180910390fd5b6000826040516116b1919061231b565b9081526020016040518091039020600101549050919050565b826001816040516116db919061231b565b908152602001604051809103902060009054906101000a900460ff16611736576040517f08c379a000000000000000000000000000000000000000000000000000000000815260040161172d9061238f565b60405180910390fd5b600081604051611746919061231b565b908152602001604051809103902060000160009054906101000a900473ffffffffffffffffffffffffffffffffffffffff1673ffffffffffffffffffffffffffffffffffffffff163373ffffffffffffffffffffffffffffffffffffffff16146117e5576040517f08c379a00000000000000000000000000000000000000000000000000000000081526004016117dc90612570565b60405180910390fd5b6001846040516117f5919061231b565b908152602001604051809103902060009054906101000a900460ff16611850576040517f08c379a00000000000000000000000000000000000000000000000000000000081526004016118479061238f565b60405180910390fd5b81600385604051611861919061231b565b908152602001604051809103902060008573ffffffffffffffffffffffffffffffffffffffff1673ffffffffffffffffffffffffffffffffffffffff16815260200190815260200160002054116118ed576040517f08c379a00000000000000000000000000000000000000000000000000000000081526004016118e490612a00565b60405180910390fd5b816003856040516118fe919061231b565b908152602001604051809103902060008573ffffffffffffffffffffffffffffffffffffffff1673ffffffffffffffffffffffffffffffffffffffff16815260200190815260200160002060008282546119589190612479565b9250508190555060008373ffffffffffffffffffffffffffffffffffffffff1663a9059cbb33856040518363ffffffff1660e01b815260040161199c929190612a20565b6020604051808303816000875af11580156119bb573d6000803e3d6000fd5b505050506040513d601f19601f820116820180604052508101906119df91906127a3565b905080611a21576040517f08c379a0000000000000000000000000000000000000000000000000000000008152600401611a1890612a95565b60405180910390fd5b5050505050565b83600181604051611a39919061231b565b908152602001604051809103902060009054906101000a900460ff16611a94576040517f08c379a0000000000000000000000000000000000000000000000000000000008152600401611a8b9061238f565b60405180910390fd5b600081604051611aa4919061231b565b908152602001604051809103902060000160009054906101000a900473ffffffffffffffffffffffffffffffffffffffff1673ffffffffffffffffffffffffffffffffffffffff163373ffffffffffffffffffffffffffffffffffffffff1614611b43576040517f08c379a0000000000000000000000000000000000000000000000000000000008152600401611b3a90612570565b60405180910390fd5b60008211611b86576040517f08c379a0000000000000000000000000000000000000000000000000000000008152600401611b7d90612720565b60405180910390fd5b81600386604051611b97919061231b565b908152602001604051809103902060008673ffffffffffffffffffffffffffffffffffffffff1673ffffffffffffffffffffffffffffffffffffffff1681526020019081526020016000205411611c23576040517f08c379a0000000000000000000000000000000000000000000000000000000008152600401611c1a90612a00565b60405180910390fd5b81600386604051611c34919061231b565b908152602001604051809103902060008673ffffffffffffffffffffffffffffffffffffffff1673ffffffffffffffffffffffffffffffffffffffff1681526020019081526020016000206000828254611c8e9190612479565b9250508190555060008473ffffffffffffffffffffffffffffffffffffffff1663a9059cbb85856040518363ffffffff1660e01b8152600401611cd2929190612a20565b6020604051808303816000875af1158015611cf1573d6000803e3d6000fd5b505050506040513d601f19601f82011682018060405250810190611d1591906127a3565b905080611d57576040517f08c379a0000000000000000000000000000000000000000000000000000000008152600401611d4e90612b01565b60405180910390fd5b505050505050565b6000604051905090565b600080fd5b600080fd5b600080fd5b600080fd5b6000601f19601f8301169050919050565b7f4e487b7100000000000000000000000000000000000000000000000000000000600052604160045260246000fd5b611dc682611d7d565b810181811067ffffffffffffffff82111715611de557611de4611d8e565b5b80604052505050565b6000611df8611d5f565b9050611e048282611dbd565b919050565b600067ffffffffffffffff821115611e2457611e23611d8e565b5b611e2d82611d7d565b9050602081019050919050565b82818337600083830152505050565b6000611e5c611e5784611e09565b611dee565b905082815260208101848484011115611e7857611e77611d78565b5b611e83848285611e3a565b509392505050565b600082601f830112611ea057611e9f611d73565b5b8135611eb0848260208601611e49565b91505092915050565b600060208284031215611ecf57611ece611d69565b5b600082013567ffffffffffffffff811115611eed57611eec611d6e565b5b611ef984828501611e8b565b91505092915050565b6000819050919050565b611f1581611f02565b8114611f2057600080fd5b50565b600081359050611f3281611f0c565b92915050565b60008060408385031215611f4f57611f4e611d69565b5b600083013567ffffffffffffffff811115611f6d57611f6c611d6e565b5b611f7985828601611e8b565b9250506020611f8a85828601611f23565b9150509250929050565b600073ffffffffffffffffffffffffffffffffffffffff82169050919050565b6000611fbf82611f94565b9050919050565b611fcf81611fb4565b8114611fda57600080fd5b50565b600081359050611fec81611fc6565b92915050565b6000806040838503121561200957612008611d69565b5b600083013567ffffffffffffffff81111561202757612026611d6e565b5b61203385828601611e8b565b925050602061204485828601611fdd565b9150509250929050565b61205781611f02565b82525050565b6000602082019050612072600083018461204e565b92915050565b61208181611fb4565b82525050565b600060208201905061209c6000830184612078565b92915050565b600081519050919050565b600082825260208201905092915050565b6000819050602082019050919050565b6120d781611fb4565b82525050565b60006120e983836120ce565b60208301905092915050565b6000602082019050919050565b600061210d826120a2565b61211781856120ad565b9350612122836120be565b8060005b8381101561215357815161213a88826120dd565b9750612145836120f5565b925050600181019050612126565b5085935050505092915050565b6000602082019050818103600083015261217a8184612102565b905092915050565b60008060006060848603121561219b5761219a611d69565b5b600084013567ffffffffffffffff8111156121b9576121b8611d6e565b5b6121c586828701611e8b565b93505060206121d686828701611fdd565b92505060406121e786828701611f23565b9150509250925092565b60008115159050919050565b612206816121f1565b82525050565b600060208201905061222160008301846121fd565b92915050565b6000806000806080858703121561224157612240611d69565b5b600085013567ffffffffffffffff81111561225f5761225e611d6e565b5b61226b87828801611e8b565b945050602061227c87828801611fdd565b935050604061228d87828801611fdd565b925050606061229e87828801611f23565b91505092959194509250565b600081519050919050565b600081905092915050565b60005b838110156122de5780820151818401526020810190506122c3565b60008484015250505050565b60006122f5826122aa565b6122ff81856122b5565b935061230f8185602086016122c0565b80840191505092915050565b600061232782846122ea565b915081905092915050565b600082825260208201905092915050565b7f46616e20636c756220646f6573206e6f74206578697374000000000000000000600082015250565b6000612379601783612332565b915061238482612343565b602082019050919050565b600060208201905081810360008301526123a88161236c565b9050919050565b7f4e6f742061206d656d6265720000000000000000000000000000000000000000600082015250565b60006123e5600c83612332565b91506123f0826123af565b602082019050919050565b60006020820190508181036000830152612414816123d8565b9050919050565b7f4e487b7100000000000000000000000000000000000000000000000000000000600052603260045260246000fd5b7f4e487b7100000000000000000000000000000000000000000000000000000000600052601160045260246000fd5b600061248482611f02565b915061248f83611f02565b92508282039050818111156124a7576124a661244a565b5b92915050565b7f4e487b7100000000000000000000000000000000000000000000000000000000600052603160045260246000fd5b60006124e782611f02565b91507fffffffffffffffffffffffffffffffffffffffffffffffffffffffffffffffff82036125195761251861244a565b5b600182019050919050565b7f4f6e6c792066616e20636c7562206f776e657200000000000000000000000000600082015250565b600061255a601383612332565b915061256582612524565b602082019050919050565b600060208201905081810360008301526125898161254d565b9050919050565b7f4e6f2062616c616e636520746f20776974686472617700000000000000000000600082015250565b60006125c6601683612332565b91506125d182612590565b602082019050919050565b600060208201905081810360008301526125f5816125b9565b9050919050565b7f496e73756666696369656e742062616c616e6365000000000000000000000000600082015250565b6000612632601483612332565b915061263d826125fc565b602082019050919050565b6000602082019050818103600083015261266181612625565b9050919050565b7f5072696365206d7573742062652067726561746572207468616e207a65726f00600082015250565b600061269e601f83612332565b91506126a982612668565b602082019050919050565b600060208201905081810360008301526126cd81612691565b9050919050565b7f416d6f756e74206d7573742062652067726561746572207468616e2030000000600082015250565b600061270a601d83612332565b9150612715826126d4565b602082019050919050565b60006020820190508181036000830152612739816126fd565b9050919050565b60006060820190506127556000830186612078565b6127626020830185612078565b61276f604083018461204e565b949350505050565b612780816121f1565b811461278b57600080fd5b50565b60008151905061279d81612777565b92915050565b6000602082840312156127b9576127b8611d69565b5b60006127c78482850161278e565b91505092915050565b7f546f6b656e207472616e73666572206661696c65640000000000000000000000600082015250565b6000612806601583612332565b9150612811826127d0565b602082019050919050565b60006020820190508181036000830152612835816127f9565b9050919050565b600061284782611f02565b915061285283611f02565b925082820190508082111561286a5761286961244a565b5b92915050565b7f46616e20636c756220616c726561647920657869737473000000000000000000600082015250565b60006128a6601783612332565b91506128b182612870565b602082019050919050565b600060208201905081810360008301526128d581612899565b9050919050565b7f416c72656164792061206d656d62657200000000000000000000000000000000600082015250565b6000612912601083612332565b915061291d826128dc565b602082019050919050565b6000602082019050818103600083015261294181612905565b9050919050565b7f496e636f7272656374207061796d656e74000000000000000000000000000000600082015250565b600061297e601183612332565b915061298982612948565b602082019050919050565b600060208201905081810360008301526129ad81612971565b9050919050565b7f496e73756666696369656e7420746f6b656e2062616c616e6365000000000000600082015250565b60006129ea601a83612332565b91506129f5826129b4565b602082019050919050565b60006020820190508181036000830152612a19816129dd565b9050919050565b6000604082019050612a356000830185612078565b612a42602083018461204e565b9392505050565b7f546f6b656e207769746864726177616c206661696c6564000000000000000000600082015250565b6000612a7f601783612332565b9150612a8a82612a49565b602082019050919050565b60006020820190508181036000830152612aae81612a72565b9050919050565b7f546f6b656e20726577617264206661696c656400000000000000000000000000600082015250565b6000612aeb601383612332565b9150612af682612ab5565b602082019050919050565b60006020820190508181036000830152612b1a81612ade565b905091905056fea2646970667358221220004b5159e11c17544f6ab4685d54801db099cede55bd93eca8ccdb7b83e7e2d164736f6c63430008140033",
  "linkReferences": {},
  "deployedLinkReferences": {}
}