{
  "_format": "hh-sol-artifact-1",
  "contractName": "FanClubs",
  "sourceName": "contracts/FanClubs.sol",
  "abi": [
    {
      "inputs": [],
      "stateMutability": "nonpayable",
      "type": "constructor"
    },
    {
      "inputs": [
        {
          "internalType": "string",
          "name": "fanClubId",
          "type": "string"
        },
        {
          "internalType": "address",
          "name": "user",
          "type": "address"
        }
      ],
      "name": "checkMember",
      "outputs": [
        {
          "internalType": "bool",
          "name": "",
          "type": "bool"
        }
      ],
      "stateMutability": "view",
      "type": "function"
    },
    {
      "inputs": [
        {
          "internalType": "string",
          "name": "fanClubId",
          "type": "string"
        },
        {
          "internalType": "uint256",
          "name": "_price",
          "type": "uint256"
        }
      ],
      "name": "createFanClub",
      "outputs": [],
      "stateMutability": "nonpayable",
      "type": "function"
    },
    {
      "inputs": [
        {
          "internalType": "string",
          "name": "fanClubId",
          "type": "string"
        },
        {
          "internalType": "address",
          "name": "nftAddress",
          "type": "address"
        },
        {
          "internalType": "uint256",
          "name": "tokenId",
          "type": "uint256"
        }
      ],
      "name": "depositFanNFT",
      "outputs": [],
      "stateMutability": "nonpayable",
      "type": "function"
    },
    {
      "inputs": [
        {
          "internalType": "string",
          "name": "fanClubId",
          "type": "string"
        },
        {
          "internalType": "address",
          "name": "tokenAddress",
          "type": "address"
        },
        {
          "internalType": "uint256",
          "name": "amount",
          "type": "uint256"
        }
      ],
      "name": "depositFanTokens",
      "outputs": [],
      "stateMutability": "nonpayable",
      "type": "function"
    },
    {
      "inputs": [
        {
          "internalType": "string",
          "name": "fanClubId",
          "type": "string"
        }
      ],
      "name": "getBalance",
      "outputs": [
        {
          "internalType": "uint256",
          "name": "",
          "type": "uint256"
        }
      ],
      "stateMutability": "view",
      "type": "function"
    },
    {
      "inputs": [
        {
          "internalType": "string",
          "name": "fanClubId",
          "type": "string"
        },
        {
          "internalType": "address",
          "name": "nftAddress",
          "type": "address"
        },
        {
          "internalType": "uint256",
          "name": "tokenId",
          "type": "uint256"
        }
      ],
      "name": "getFanNFT",
      "outputs": [
        {
          "internalType": "bool",
          "name": "",
          "type": "bool"
        }
      ],
      "stateMutability": "view",
      "type": "function"
    },
    {
      "inputs": [
        {
          "internalType": "string",
          "name": "fanClubId",
          "type": "string"
        },
        {
          "internalType": "address",
          "name": "tokenAddress",
          "type": "address"
        }
      ],
      "name": "getFanTokenBalance",
      "outputs": [
        {
          "internalType": "uint256",
          "name": "",
          "type": "uint256"
        }
      ],
      "stateMutability": "view",
      "type": "function"
    },
    {
      "inputs": [
        {
          "internalType": "string",
          "name": "fanClubId",
          "type": "string"
        }
      ],
      "name": "getJoinPrice",
      "outputs": [
        {
          "internalType": "uint256",
          "name": "",
          "type": "uint256"
        }
      ],
      "stateMutability": "view",
      "type": "function"
    },
    {
      "inputs": [
        {
          "internalType": "string",
          "name": "fanClubId",
          "type": "string"
        }
      ],
      "name": "getMembers",
      "outputs": [
        {
          "internalType": "address[]",
          "name": "",
          "type": "address[]"
        }
      ],
      "stateMutability": "view",
      "type": "function"
    },
    {
      "inputs": [
        {
          "internalType": "string",
          "name": "fanClubId",
          "type": "string"
        }
      ],
      "name": "getOwner",
      "outputs": [
        {
          "internalType": "address",
          "name": "",
          "type": "address"
        }
      ],
      "stateMutability": "view",
      "type": "function"
    },
    {
      "inputs": [
        {
          "internalType": "string",
          "name": "fanClubId",
          "type": "string"
        }
      ],
      "name": "join",
      "outputs": [],
      "stateMutability": "payable",
      "type": "function"
    },
    {
      "inputs": [
        {
          "internalType": "string",
          "name": "fanClubId",
          "type": "string"
        }
      ],
      "name": "leave",
      "outputs": [],
      "stateMutability": "nonpayable",
      "type": "function"
    },
    {
      "inputs": [
        {
          "internalType": "string",
          "name": "fanClubId",
          "type": "string"
        },
        {
          "internalType": "address",
          "name": "nftAddress",
          "type": "address"
        },
        {
          "internalType": "address",
          "name": "recipient",
          "type": "address"
        },
        {
          "internalType": "uint256",
          "name": "tokenId",
          "type": "uint256"
        }
      ],
      "name": "rewardFanNFT",
      "outputs": [],
      "stateMutability": "nonpayable",
      "type": "function"
    },
    {
      "inputs": [
        {
          "internalType": "string",
          "name": "fanClubId",
          "type": "string"
        },
        {
          "internalType": "address",
          "name": "tokenAddress",
          "type": "address"
        },
        {
          "internalType": "address",
          "name": "recipient",
          "type": "address"
        },
        {
          "internalType": "uint256",
          "name": "amount",
          "type": "uint256"
        }
      ],
      "name": "rewardFanToken",
      "outputs": [],
      "stateMutability": "nonpayable",
      "type": "function"
    },
    {
      "inputs": [
        {
          "internalType": "string",
          "name": "fanClubId",
          "type": "string"
        },
        {
          "internalType": "uint256",
          "name": "newPrice",
          "type": "uint256"
        }
      ],
      "name": "updatePrice",
      "outputs": [],
      "stateMutability": "nonpayable",
      "type": "function"
    },
    {
      "inputs": [
        {
          "internalType": "string",
          "name": "fanClubId",
          "type": "string"
        },
        {
          "internalType": "uint256",
          "name": "amount",
          "type": "uint256"
        }
      ],
      "name": "withdraw",
      "outputs": [],
      "stateMutability": "nonpayable",
      "type": "function"
    },
    {
      "inputs": [
        {
          "internalType": "string",
          "name": "fanClubId",
          "type": "string"
        },
        {
          "internalType": "address",
          "name": "nftAddress",
          "type": "address"
        },
        {
          "internalType": "uint256",
          "name": "tokenId",
          "type": "uint256"
        }
      ],
      "name": "withdrawFanNFT",
      "outputs": [],
      "stateMutability": "nonpayable",
      "type": "function"
    },
    {
      "inputs": [
        {
          "internalType": "string",
          "name": "fanClubId",
          "type": "string"
        },
        {
          "internalType": "address",
          "name": "tokenAddress",
          "type": "address"
        },
        {
          "internalType": "uint256",
          "name": "amount",
          "type": "uint256"
        }
      ],
      "name": "withdrawFanTokens",
      "outputs": [],
      "stateMutability": "nonpayable",
      "type": "function"
    }
  ],
  "bytecode": "0x608060405234801561001057600080fd5b50613854806100206000396000f3fe6080604052600436106101095760003560e01c80636a786b0711610095578063c418444411610064578063c41844441461038e578063ca4aab8d146103b7578063e1292810146103e0578063e824f6cb14610409578063f4f1e1701461044657610109565b80636a786b07146102cf5780638bf918d7146102eb57806393230fe814610328578063a3f6825d1461036557610109565b80634a432a46116100dc5780634a432a46146101da5780634aaf4a12146102035780635625057114610240578063612e61c81461027d5780636a60883a146102a657610109565b8063237a4d511461010e57806330b39a62146101375780633779e049146101605780633a51d2461461019d575b600080fd5b34801561011a57600080fd5b50610135600480360381019061013091906129e0565b61046f565b005b34801561014357600080fd5b5061015e60048036038101906101599190612a5f565b61077f565b005b34801561016c57600080fd5b5061018760048036038101906101829190612b19565b6109bf565b6040516101949190612b84565b60405180910390f35b3480156101a957600080fd5b506101c460048036038101906101bf91906129e0565b610b41565b6040516101d19190612b84565b60405180910390f35b3480156101e657600080fd5b5061020160048036038101906101fc9190612a5f565b610cf0565b005b34801561020f57600080fd5b5061022a600480360381019061022591906129e0565b610e79565b6040516102379190612bae565b60405180910390f35b34801561024c57600080fd5b50610267600480360381019061026291906129e0565b610f2f565b6040516102749190612c87565b60405180910390f35b34801561028957600080fd5b506102a4600480360381019061029f9190612ca9565b611049565b005b3480156102b257600080fd5b506102cd60048036038101906102c89190612a5f565b6111c8565b005b6102e960048036038101906102e491906129e0565b6113de565b005b3480156102f757600080fd5b50610312600480360381019061030d9190612b19565b611637565b60405161031f9190612d33565b60405180910390f35b34801561033457600080fd5b5061034f600480360381019061034a91906129e0565b611718565b60405161035c9190612b84565b60405180910390f35b34801561037157600080fd5b5061038c60048036038101906103879190612ca9565b6117ae565b005b34801561039a57600080fd5b506103b560048036038101906103b09190612ca9565b611b1a565b005b3480156103c357600080fd5b506103de60048036038101906103d99190612d4e565b611e79565b005b3480156103ec57600080fd5b5061040760048036038101906104029190612ca9565b6121b1565b005b34801561041557600080fd5b50610430600480360381019061042b9190612ca9565b612381565b60405161043d9190612d33565b60405180910390f35b34801561045257600080fd5b5061046d60048036038101906104689190612d4e565b6124aa565b005b60018160405161047f9190612e42565b908152602001604051809103902060009054906101000a900460ff166104da576040517f08c379a00000000000000000000000000000000000000000000000000000000081526004016104d190612eb6565b60405180910390fd5b600080826040516104eb9190612e42565b908152602001604051809103902090508060030160003373ffffffffffffffffffffffffffffffffffffffff1673ffffffffffffffffffffffffffffffffffffffff16815260200190815260200160002060009054906101000a900460ff16610589576040517f08c379a000000000000000000000000000000000000000000000000000000000815260040161058090612f22565b60405180910390fd5b60008160020180549050905060005b8181101561071f573373ffffffffffffffffffffffffffffffffffffffff168360020182815481106105cd576105cc612f42565b5b9060005260206000200160009054906101000a900473ffffffffffffffffffffffffffffffffffffffff1673ffffffffffffffffffffffffffffffffffffffff160361070c57826002016001836106249190612fa0565b8154811061063557610634612f42565b5b9060005260206000200160009054906101000a900473ffffffffffffffffffffffffffffffffffffffff1683600201828154811061067657610675612f42565b5b9060005260206000200160006101000a81548173ffffffffffffffffffffffffffffffffffffffff021916908373ffffffffffffffffffffffffffffffffffffffff160217905550826002018054806106d2576106d1612fd4565b5b6001900381819060005260206000200160006101000a81549073ffffffffffffffffffffffffffffffffffffffff0219169055905561071f565b808061071790613003565b915050610598565b5060008260030160003373ffffffffffffffffffffffffffffffffffffffff1673ffffffffffffffffffffffffffffffffffffffff16815260200190815260200160002060006101000a81548160ff021916908315150217905550505050565b816001816040516107909190612e42565b908152602001604051809103902060009054906101000a900460ff166107eb576040517f08c379a00000000000000000000000000000000000000000000000000000000081526004016107e290612eb6565b60405180910390fd5b6000816040516107fb9190612e42565b908152602001604051809103902060000160009054906101000a900473ffffffffffffffffffffffffffffffffffffffff1673ffffffffffffffffffffffffffffffffffffffff163373ffffffffffffffffffffffffffffffffffffffff161461089a576040517f08c379a000000000000000000000000000000000000000000000000000000000815260040161089190613097565b60405180910390fd5b600082116108dd576040517f08c379a00000000000000000000000000000000000000000000000000000000081526004016108d490613103565b60405180910390fd5b816002846040516108ee9190612e42565b908152602001604051809103902054101561093e576040517f08c379a00000000000000000000000000000000000000000000000000000000081526004016109359061316f565b60405180910390fd5b8160028460405161094f9190612e42565b9081526020016040518091039020600082825461096c9190612fa0565b925050819055503373ffffffffffffffffffffffffffffffffffffffff166108fc839081150290604051600060405180830381858888f193505050501580156109b9573d6000803e3d6000fd5b50505050565b6000826001816040516109d29190612e42565b908152602001604051809103902060009054906101000a900460ff16610a2d576040517f08c379a0000000000000000000000000000000000000000000000000000000008152600401610a2490612eb6565b60405180910390fd5b600081604051610a3d9190612e42565b908152602001604051809103902060000160009054906101000a900473ffffffffffffffffffffffffffffffffffffffff1673ffffffffffffffffffffffffffffffffffffffff163373ffffffffffffffffffffffffffffffffffffffff1614610adc576040517f08c379a0000000000000000000000000000000000000000000000000000000008152600401610ad390613097565b60405180910390fd5b600484604051610aec9190612e42565b908152602001604051809103902060008473ffffffffffffffffffffffffffffffffffffffff1673ffffffffffffffffffffffffffffffffffffffff1681526020019081526020016000205491505092915050565b600081600181604051610b549190612e42565b908152602001604051809103902060009054906101000a900460ff16610baf576040517f08c379a0000000000000000000000000000000000000000000000000000000008152600401610ba690612eb6565b60405180910390fd5b600081604051610bbf9190612e42565b908152602001604051809103902060000160009054906101000a900473ffffffffffffffffffffffffffffffffffffffff1673ffffffffffffffffffffffffffffffffffffffff163373ffffffffffffffffffffffffffffffffffffffff1614610c5e576040517f08c379a0000000000000000000000000000000000000000000000000000000008152600401610c5590613097565b60405180910390fd5b600183604051610c6e9190612e42565b908152602001604051809103902060009054906101000a900460ff16610cc9576040517f08c379a0000000000000000000000000000000000000000000000000000000008152600401610cc090612eb6565b60405180910390fd5b600283604051610cd99190612e42565b908152602001604051809103902054915050919050565b81600181604051610d019190612e42565b908152602001604051809103902060009054906101000a900460ff16610d5c576040517f08c379a0000000000000000000000000000000000000000000000000000000008152600401610d5390612eb6565b60405180910390fd5b600081604051610d6c9190612e42565b908152602001604051809103902060000160009054906101000a900473ffffffffffffffffffffffffffffffffffffffff1673ffffffffffffffffffffffffffffffffffffffff163373ffffffffffffffffffffffffffffffffffffffff1614610e0b576040517f08c379a0000000000000000000000000000000000000000000000000000000008152600401610e0290613097565b60405180910390fd5b60008211610e4e576040517f08c379a0000000000000000000000000000000000000000000000000000000008152600401610e45906131db565b60405180910390fd5b81600084604051610e5f9190612e42565b908152602001604051809103902060010181905550505050565b6000600182604051610e8b9190612e42565b908152602001604051809103902060009054906101000a900460ff16610ee6576040517f08c379a0000000000000000000000000000000000000000000000000000000008152600401610edd90612eb6565b60405180910390fd5b600082604051610ef69190612e42565b908152602001604051809103902060000160009054906101000a900473ffffffffffffffffffffffffffffffffffffffff169050919050565b6060600182604051610f419190612e42565b908152602001604051809103902060009054906101000a900460ff16610f9c576040517f08c379a0000000000000000000000000000000000000000000000000000000008152600401610f9390612eb6565b60405180910390fd5b600082604051610fac9190612e42565b908152602001604051809103902060020180548060200260200160405190810160405280929190818152602001828054801561103d57602002820191906000526020600020905b8160009054906101000a900473ffffffffffffffffffffffffffffffffffffffff1673ffffffffffffffffffffffffffffffffffffffff1681526020019060010190808311610ff3575b50505050509050919050565b6000811161108c576040517f08c379a000000000000000000000000000000000000000000000000000000000815260040161108390613247565b60405180910390fd5b60008273ffffffffffffffffffffffffffffffffffffffff166323b872dd3330856040518463ffffffff1660e01b81526004016110cb93929190613267565b6020604051808303816000875af11580156110ea573d6000803e3d6000fd5b505050506040513d601f19601f8201168201806040525081019061110e91906132ca565b905080611150576040517f08c379a000000000000000000000000000000000000000000000000000000000815260040161114790613343565b60405180910390fd5b816004856040516111619190612e42565b908152602001604051809103902060008573ffffffffffffffffffffffffffffffffffffffff1673ffffffffffffffffffffffffffffffffffffffff16815260200190815260200160002060008282546111bb9190613363565b9250508190555050505050565b6001826040516111d89190612e42565b908152602001604051809103902060009054906101000a900460ff1615611234576040517f08c379a000000000000000000000000000000000000000000000000000000000815260040161122b906133e3565b60405180910390fd5b60008111611277576040517f08c379a000000000000000000000000000000000000000000000000000000000815260040161126e906131db565b60405180910390fd5b600080836040516112889190612e42565b90815260200160405180910390209050338160000160006101000a81548173ffffffffffffffffffffffffffffffffffffffff021916908373ffffffffffffffffffffffffffffffffffffffff16021790555081816001018190555080600201339080600181540180825580915050600190039060005260206000200160009091909190916101000a81548173ffffffffffffffffffffffffffffffffffffffff021916908373ffffffffffffffffffffffffffffffffffffffff16021790555060018160030160003373ffffffffffffffffffffffffffffffffffffffff1673ffffffffffffffffffffffffffffffffffffffff16815260200190815260200160002060006101000a81548160ff021916908315150217905550600180846040516113b49190612e42565b908152602001604051809103902060006101000a81548160ff021916908315150217905550505050565b6001816040516113ee9190612e42565b908152602001604051809103902060009054906101000a900460ff16611449576040517f08c379a000000000000000000000000000000000000000000000000000000000815260040161144090612eb6565b60405180910390fd5b6000808260405161145a9190612e42565b908152602001604051809103902090508060030160003373ffffffffffffffffffffffffffffffffffffffff1673ffffffffffffffffffffffffffffffffffffffff16815260200190815260200160002060009054906101000a900460ff16156114f9576040517f08c379a00000000000000000000000000000000000000000000000000000000081526004016114f09061344f565b60405180910390fd5b8060010154341461153f576040517f08c379a0000000000000000000000000000000000000000000000000000000008152600401611536906134bb565b60405180910390fd5b80600201339080600181540180825580915050600190039060005260206000200160009091909190916101000a81548173ffffffffffffffffffffffffffffffffffffffff021916908373ffffffffffffffffffffffffffffffffffffffff16021790555060018160030160003373ffffffffffffffffffffffffffffffffffffffff1673ffffffffffffffffffffffffffffffffffffffff16815260200190815260200160002060006101000a81548160ff0219169083151502179055503460028360405161160f9190612e42565b9081526020016040518091039020600082825461162c9190613363565b925050819055505050565b60006001836040516116499190612e42565b908152602001604051809103902060009054906101000a900460ff166116a4576040517f08c379a000000000000000000000000000000000000000000000000000000000815260040161169b90612eb6565b60405180910390fd5b6000836040516116b49190612e42565b908152602001604051809103902060030160008373ffffffffffffffffffffffffffffffffffffffff1673ffffffffffffffffffffffffffffffffffffffff16815260200190815260200160002060009054906101000a900460ff16905092915050565b600060018260405161172a9190612e42565b908152602001604051809103902060009054906101000a900460ff16611785576040517f08c379a000000000000000000000000000000000000000000000000000000000815260040161177c90612eb6565b60405180910390fd5b6000826040516117959190612e42565b9081526020016040518091039020600101549050919050565b826001816040516117bf9190612e42565b908152602001604051809103902060009054906101000a900460ff1661181a576040517f08c379a000000000000000000000000000000000000000000000000000000000815260040161181190612eb6565b60405180910390fd5b60008160405161182a9190612e42565b908152602001604051809103902060000160009054906101000a900473ffffffffffffffffffffffffffffffffffffffff1673ffffffffffffffffffffffffffffffffffffffff163373ffffffffffffffffffffffffffffffffffffffff16146118c9576040517f08c379a00000000000000000000000000000000000000000000000000000000081526004016118c090613097565b60405180910390fd5b6001846040516118d99190612e42565b908152602001604051809103902060009054906101000a900460ff16611934576040517f08c379a000000000000000000000000000000000000000000000000000000000815260040161192b90612eb6565b60405180910390fd5b60006003856040516119469190612e42565b908152602001604051809103902060008573ffffffffffffffffffffffffffffffffffffffff1673ffffffffffffffffffffffffffffffffffffffff168152602001908152602001600020905060008080600090505b83805490508110156119eb57858482815481106119bc576119bb612f42565b5b9060005260206000200154036119d857600192508091506119eb565b80806119e390613003565b91505061199c565b5081611a2c576040517f08c379a0000000000000000000000000000000000000000000000000000000008152600401611a239061354d565b60405180910390fd5b8260018480549050611a3e9190612fa0565b81548110611a4f57611a4e612f42565b5b9060005260206000200154838281548110611a6d57611a6c612f42565b5b906000526020600020018190555082805480611a8c57611a8b612fd4565b5b600190038181906000526020600020016000905590558573ffffffffffffffffffffffffffffffffffffffff166323b872dd3033886040518463ffffffff1660e01b8152600401611adf93929190613267565b600060405180830381600087803b158015611af957600080fd5b505af1158015611b0d573d6000803e3d6000fd5b5050505050505050505050565b82600181604051611b2b9190612e42565b908152602001604051809103902060009054906101000a900460ff16611b86576040517f08c379a0000000000000000000000000000000000000000000000000000000008152600401611b7d90612eb6565b60405180910390fd5b600081604051611b969190612e42565b908152602001604051809103902060000160009054906101000a900473ffffffffffffffffffffffffffffffffffffffff1673ffffffffffffffffffffffffffffffffffffffff163373ffffffffffffffffffffffffffffffffffffffff1614611c35576040517f08c379a0000000000000000000000000000000000000000000000000000000008152600401611c2c90613097565b60405180910390fd5b600184604051611c459190612e42565b908152602001604051809103902060009054906101000a900460ff16611ca0576040517f08c379a0000000000000000000000000000000000000000000000000000000008152600401611c9790612eb6565b60405180910390fd5b81600485604051611cb19190612e42565b908152602001604051809103902060008573ffffffffffffffffffffffffffffffffffffffff1673ffffffffffffffffffffffffffffffffffffffff168152602001908152602001600020541015611d3e576040517f08c379a0000000000000000000000000000000000000000000000000000000008152600401611d35906135b9565b60405180910390fd5b81600485604051611d4f9190612e42565b908152602001604051809103902060008573ffffffffffffffffffffffffffffffffffffffff1673ffffffffffffffffffffffffffffffffffffffff1681526020019081526020016000206000828254611da99190612fa0565b9250508190555060008373ffffffffffffffffffffffffffffffffffffffff1663a9059cbb33856040518363ffffffff1660e01b8152600401611ded9291906135d9565b6020604051808303816000875af1158015611e0c573d6000803e3d6000fd5b505050506040513d601f19601f82011682018060405250810190611e3091906132ca565b905080611e72576040517f08c379a0000000000000000000000000000000000000000000000000000000008152600401611e699061364e565b60405180910390fd5b5050505050565b83600181604051611e8a9190612e42565b908152602001604051809103902060009054906101000a900460ff16611ee5576040517f08c379a0000000000000000000000000000000000000000000000000000000008152600401611edc90612eb6565b60405180910390fd5b600081604051611ef59190612e42565b908152602001604051809103902060000160009054906101000a900473ffffffffffffffffffffffffffffffffffffffff1673ffffffffffffffffffffffffffffffffffffffff163373ffffffffffffffffffffffffffffffffffffffff1614611f94576040517f08c379a0000000000000000000000000000000000000000000000000000000008152600401611f8b90613097565b60405180910390fd5b60008211611fd7576040517f08c379a0000000000000000000000000000000000000000000000000000000008152600401611fce90613247565b60405180910390fd5b81600486604051611fe89190612e42565b908152602001604051809103902060008673ffffffffffffffffffffffffffffffffffffffff1673ffffffffffffffffffffffffffffffffffffffff168152602001908152602001600020541015612075576040517f08c379a000000000000000000000000000000000000000000000000000000000815260040161206c906135b9565b60405180910390fd5b816004866040516120869190612e42565b908152602001604051809103902060008673ffffffffffffffffffffffffffffffffffffffff1673ffffffffffffffffffffffffffffffffffffffff16815260200190815260200160002060008282546120e09190612fa0565b9250508190555060008473ffffffffffffffffffffffffffffffffffffffff1663a9059cbb85856040518363ffffffff1660e01b81526004016121249291906135d9565b6020604051808303816000875af1158015612143573d6000803e3d6000fd5b505050506040513d601f19601f8201168201806040525081019061216791906132ca565b9050806121a9576040517f08c379a00000000000000000000000000000000000000000000000000000000081526004016121a0906136ba565b60405180910390fd5b505050505050565b6001836040516121c19190612e42565b908152602001604051809103902060009054906101000a900460ff1661221c576040517f08c379a000000000000000000000000000000000000000000000000000000000815260040161221390612eb6565b60405180910390fd5b600073ffffffffffffffffffffffffffffffffffffffff168273ffffffffffffffffffffffffffffffffffffffff160361228b576040517f08c379a000000000000000000000000000000000000000000000000000000000815260040161228290613726565b60405180910390fd5b8173ffffffffffffffffffffffffffffffffffffffff166323b872dd3330846040518463ffffffff1660e01b81526004016122c893929190613267565b600060405180830381600087803b1580156122e257600080fd5b505af11580156122f6573d6000803e3d6000fd5b5050505060038360405161230a9190612e42565b908152602001604051809103902060008373ffffffffffffffffffffffffffffffffffffffff1673ffffffffffffffffffffffffffffffffffffffff168152602001908152602001600020819080600181540180825580915050600190039060005260206000200160009091909190915055505050565b60006001846040516123939190612e42565b908152602001604051809103902060009054906101000a900460ff166123ee576040517f08c379a00000000000000000000000000000000000000000000000000000000081526004016123e590612eb6565b60405180910390fd5b60006003856040516124009190612e42565b908152602001604051809103902060008573ffffffffffffffffffffffffffffffffffffffff1673ffffffffffffffffffffffffffffffffffffffff16815260200190815260200160002090506000805b828054905081101561249d578483828154811061247157612470612f42565b5b90600052602060002001540361248a576001915061249d565b808061249590613003565b915050612451565b5080925050509392505050565b836001816040516124bb9190612e42565b908152602001604051809103902060009054906101000a900460ff16612516576040517f08c379a000000000000000000000000000000000000000000000000000000000815260040161250d90612eb6565b60405180910390fd5b6000816040516125269190612e42565b908152602001604051809103902060000160009054906101000a900473ffffffffffffffffffffffffffffffffffffffff1673ffffffffffffffffffffffffffffffffffffffff163373ffffffffffffffffffffffffffffffffffffffff16146125c5576040517f08c379a00000000000000000000000000000000000000000000000000000000081526004016125bc90613097565b60405180910390fd5b600073ffffffffffffffffffffffffffffffffffffffff168373ffffffffffffffffffffffffffffffffffffffff1603612634576040517f08c379a000000000000000000000000000000000000000000000000000000000815260040161262b90613792565b60405180910390fd5b6001856040516126449190612e42565b908152602001604051809103902060009054906101000a900460ff1661269f576040517f08c379a000000000000000000000000000000000000000000000000000000000815260040161269690612eb6565b60405180910390fd5b60006003866040516126b19190612e42565b908152602001604051809103902060008673ffffffffffffffffffffffffffffffffffffffff1673ffffffffffffffffffffffffffffffffffffffff168152602001908152602001600020905060008080600090505b8380549050811015612756578584828154811061272757612726612f42565b5b9060005260206000200154036127435760019250809150612756565b808061274e90613003565b915050612707565b5081612797576040517f08c379a000000000000000000000000000000000000000000000000000000000815260040161278e906137fe565b60405180910390fd5b82600184805490506127a99190612fa0565b815481106127ba576127b9612f42565b5b90600052602060002001548382815481106127d8576127d7612f42565b5b9060005260206000200181905550828054806127f7576127f6612fd4565b5b600190038181906000526020600020016000905590558673ffffffffffffffffffffffffffffffffffffffff166323b872dd3088886040518463ffffffff1660e01b815260040161284a93929190613267565b600060405180830381600087803b15801561286457600080fd5b505af1158015612878573d6000803e3d6000fd5b505050505050505050505050565b6000604051905090565b600080fd5b600080fd5b600080fd5b600080fd5b6000601f19601f8301169050919050565b7f4e487b7100000000000000000000000000000000000000000000000000000000600052604160045260246000fd5b6128ed826128a4565b810181811067ffffffffffffffff8211171561290c5761290b6128b5565b5b80604052505050565b600061291f612886565b905061292b82826128e4565b919050565b600067ffffffffffffffff82111561294b5761294a6128b5565b5b612954826128a4565b9050602081019050919050565b82818337600083830152505050565b600061298361297e84612930565b612915565b90508281526020810184848401111561299f5761299e61289f565b5b6129aa848285612961565b509392505050565b600082601f8301126129c7576129c661289a565b5b81356129d7848260208601612970565b91505092915050565b6000602082840312156129f6576129f5612890565b5b600082013567ffffffffffffffff811115612a1457612a13612895565b5b612a20848285016129b2565b91505092915050565b6000819050919050565b612a3c81612a29565b8114612a4757600080fd5b50565b600081359050612a5981612a33565b92915050565b60008060408385031215612a7657612a75612890565b5b600083013567ffffffffffffffff811115612a9457612a93612895565b5b612aa0858286016129b2565b9250506020612ab185828601612a4a565b9150509250929050565b600073ffffffffffffffffffffffffffffffffffffffff82169050919050565b6000612ae682612abb565b9050919050565b612af681612adb565b8114612b0157600080fd5b50565b600081359050612b1381612aed565b92915050565b60008060408385031215612b3057612b2f612890565b5b600083013567ffffffffffffffff811115612b4e57612b4d612895565b5b612b5a858286016129b2565b9250506020612b6b85828601612b04565b9150509250929050565b612b7e81612a29565b82525050565b6000602082019050612b996000830184612b75565b92915050565b612ba881612adb565b82525050565b6000602082019050612bc36000830184612b9f565b92915050565b600081519050919050565b600082825260208201905092915050565b6000819050602082019050919050565b612bfe81612adb565b82525050565b6000612c108383612bf5565b60208301905092915050565b6000602082019050919050565b6000612c3482612bc9565b612c3e8185612bd4565b9350612c4983612be5565b8060005b83811015612c7a578151612c618882612c04565b9750612c6c83612c1c565b925050600181019050612c4d565b5085935050505092915050565b60006020820190508181036000830152612ca18184612c29565b905092915050565b600080600060608486031215612cc257612cc1612890565b5b600084013567ffffffffffffffff811115612ce057612cdf612895565b5b612cec868287016129b2565b9350506020612cfd86828701612b04565b9250506040612d0e86828701612a4a565b9150509250925092565b60008115159050919050565b612d2d81612d18565b82525050565b6000602082019050612d486000830184612d24565b92915050565b60008060008060808587031215612d6857612d67612890565b5b600085013567ffffffffffffffff811115612d8657612d85612895565b5b612d92878288016129b2565b9450506020612da387828801612b04565b9350506040612db487828801612b04565b9250506060612dc587828801612a4a565b91505092959194509250565b600081519050919050565b600081905092915050565b60005b83811015612e05578082015181840152602081019050612dea565b60008484015250505050565b6000612e1c82612dd1565b612e268185612ddc565b9350612e36818560208601612de7565b80840191505092915050565b6000612e4e8284612e11565b915081905092915050565b600082825260208201905092915050565b7f46616e20636c756220646f6573206e6f74206578697374000000000000000000600082015250565b6000612ea0601783612e59565b9150612eab82612e6a565b602082019050919050565b60006020820190508181036000830152612ecf81612e93565b9050919050565b7f4e6f742061206d656d6265720000000000000000000000000000000000000000600082015250565b6000612f0c600c83612e59565b9150612f1782612ed6565b602082019050919050565b60006020820190508181036000830152612f3b81612eff565b9050919050565b7f4e487b7100000000000000000000000000000000000000000000000000000000600052603260045260246000fd5b7f4e487b7100000000000000000000000000000000000000000000000000000000600052601160045260246000fd5b6000612fab82612a29565b9150612fb683612a29565b9250828203905081811115612fce57612fcd612f71565b5b92915050565b7f4e487b7100000000000000000000000000000000000000000000000000000000600052603160045260246000fd5b600061300e82612a29565b91507fffffffffffffffffffffffffffffffffffffffffffffffffffffffffffffffff82036130405761303f612f71565b5b600182019050919050565b7f4f6e6c792066616e20636c7562206f776e657200000000000000000000000000600082015250565b6000613081601383612e59565b915061308c8261304b565b602082019050919050565b600060208201905081810360008301526130b081613074565b9050919050565b7f4e6f2062616c616e636520746f20776974686472617700000000000000000000600082015250565b60006130ed601683612e59565b91506130f8826130b7565b602082019050919050565b6000602082019050818103600083015261311c816130e0565b9050919050565b7f496e73756666696369656e742062616c616e6365000000000000000000000000600082015250565b6000613159601483612e59565b915061316482613123565b602082019050919050565b600060208201905081810360008301526131888161314c565b9050919050565b7f5072696365206d7573742062652067726561746572207468616e207a65726f00600082015250565b60006131c5601f83612e59565b91506131d08261318f565b602082019050919050565b600060208201905081810360008301526131f4816131b8565b9050919050565b7f416d6f756e74206d7573742062652067726561746572207468616e2030000000600082015250565b6000613231601d83612e59565b915061323c826131fb565b602082019050919050565b6000602082019050818103600083015261326081613224565b9050919050565b600060608201905061327c6000830186612b9f565b6132896020830185612b9f565b6132966040830184612b75565b949350505050565b6132a781612d18565b81146132b257600080fd5b50565b6000815190506132c48161329e565b92915050565b6000602082840312156132e0576132df612890565b5b60006132ee848285016132b5565b91505092915050565b7f546f6b656e207472616e73666572206661696c65640000000000000000000000600082015250565b600061332d601583612e59565b9150613338826132f7565b602082019050919050565b6000602082019050818103600083015261335c81613320565b9050919050565b600061336e82612a29565b915061337983612a29565b925082820190508082111561339157613390612f71565b5b92915050565b7f46616e20636c756220616c726561647920657869737473000000000000000000600082015250565b60006133cd601783612e59565b91506133d882613397565b602082019050919050565b600060208201905081810360008301526133fc816133c0565b9050919050565b7f416c72656164792061206d656d62657200000000000000000000000000000000600082015250565b6000613439601083612e59565b915061344482613403565b602082019050919050565b600060208201905081810360008301526134688161342c565b9050919050565b7f496e636f7272656374207061796d656e74000000000000000000000000000000600082015250565b60006134a5601183612e59565b91506134b08261346f565b602082019050919050565b600060208201905081810360008301526134d481613498565b9050919050565b7f546f6b656e206e6f7420666f756e6420666f7220746869732066616e20636c7560008201527f6200000000000000000000000000000000000000000000000000000000000000602082015250565b6000613537602183612e59565b9150613542826134db565b604082019050919050565b600060208201905081810360008301526135668161352a565b9050919050565b7f496e73756666696369656e7420746f6b656e2062616c616e6365000000000000600082015250565b60006135a3601a83612e59565b91506135ae8261356d565b602082019050919050565b600060208201905081810360008301526135d281613596565b9050919050565b60006040820190506135ee6000830185612b9f565b6135fb6020830184612b75565b9392505050565b7f546f6b656e207769746864726177616c206661696c6564000000000000000000600082015250565b6000613638601783612e59565b915061364382613602565b602082019050919050565b600060208201905081810360008301526136678161362b565b9050919050565b7f546f6b656e20726577617264206661696c656400000000000000000000000000600082015250565b60006136a4601383612e59565b91506136af8261366e565b602082019050919050565b600060208201905081810360008301526136d381613697565b9050919050565b7f496e76616c6964204e465420636f6e7472616374000000000000000000000000600082015250565b6000613710601483612e59565b915061371b826136da565b602082019050919050565b6000602082019050818103600083015261373f81613703565b9050919050565b7f496e76616c696420726563697069656e74000000000000000000000000000000600082015250565b600061377c601183612e59565b915061378782613746565b602082019050919050565b600060208201905081810360008301526137ab8161376f565b9050919050565b7f546f6b656e206e6f74206f776e65642062792066616e20636c75620000000000600082015250565b60006137e8601b83612e59565b91506137f3826137b2565b602082019050919050565b60006020820190508181036000830152613817816137db565b905091905056fea264697066735822122039248cad51422d037b6aba685c8d8f9c9dc1f1b9f1e6d33dcb952e8cd247572164736f6c63430008140033",
  "linkReferences": {},
  "deployedLinkReferences": {}
}