{
  "_format": "hh-sol-artifact-1",
  "contractName": "FanClubs",
  "sourceName": "contracts/FanClubs.sol",
  "abi": [
    {
      "inputs": [
        {
          "internalType": "string",
          "name": "fanClubId",
          "type": "string"
        },
        {
          "internalType": "address",
          "name": "user",
          "type": "address"
        }
      ],
      "name": "checkMember",
      "outputs": [
        {
          "internalType": "bool",
          "name": "",
          "type": "bool"
        }
      ],
      "stateMutability": "view",
      "type": "function"
    },
    {
      "inputs": [
        {
          "internalType": "string",
          "name": "fanClubId",
          "type": "string"
        },
        {
          "internalType": "uint256",
          "name": "_price",
          "type": "uint256"
        }
      ],
      "name": "createFanClub",
      "outputs": [],
      "stateMutability": "nonpayable",
      "type": "function"
    },
    {
      "inputs": [
        {
          "internalType": "string",
          "name": "fanClubId",
          "type": "string"
        }
      ],
      "name": "getBalance",
      "outputs": [
        {
          "internalType": "uint256",
          "name": "",
          "type": "uint256"
        }
      ],
      "stateMutability": "view",
      "type": "function"
    },
    {
      "inputs": [
        {
          "internalType": "string",
          "name": "fanClubId",
          "type": "string"
        }
      ],
      "name": "getJoinPrice",
      "outputs": [
        {
          "internalType": "uint256",
          "name": "",
          "type": "uint256"
        }
      ],
      "stateMutability": "view",
      "type": "function"
    },
    {
      "inputs": [
        {
          "internalType": "string",
          "name": "fanClubId",
          "type": "string"
        }
      ],
      "name": "getMembers",
      "outputs": [
        {
          "internalType": "address[]",
          "name": "",
          "type": "address[]"
        }
      ],
      "stateMutability": "view",
      "type": "function"
    },
    {
      "inputs": [
        {
          "internalType": "string",
          "name": "fanClubId",
          "type": "string"
        }
      ],
      "name": "getOwner",
      "outputs": [
        {
          "internalType": "address",
          "name": "",
          "type": "address"
        }
      ],
      "stateMutability": "view",
      "type": "function"
    },
    {
      "inputs": [
        {
          "internalType": "string",
          "name": "fanClubId",
          "type": "string"
        }
      ],
      "name": "join",
      "outputs": [],
      "stateMutability": "payable",
      "type": "function"
    },
    {
      "inputs": [
        {
          "internalType": "string",
          "name": "fanClubId",
          "type": "string"
        }
      ],
      "name": "leave",
      "outputs": [],
      "stateMutability": "nonpayable",
      "type": "function"
    },
    {
      "inputs": [
        {
          "internalType": "string",
          "name": "fanClubId",
          "type": "string"
        },
        {
          "internalType": "uint256",
          "name": "newPrice",
          "type": "uint256"
        }
      ],
      "name": "updatePrice",
      "outputs": [],
      "stateMutability": "nonpayable",
      "type": "function"
    },
    {
      "inputs": [
        {
          "internalType": "string",
          "name": "fanClubId",
          "type": "string"
        },
        {
          "internalType": "uint256",
          "name": "amount",
          "type": "uint256"
        }
      ],
      "name": "withdraw",
      "outputs": [],
      "stateMutability": "nonpayable",
      "type": "function"
    }
  ],
  "bytecode": "0x608060405234801561001057600080fd5b50611d0d806100206000396000f3fe6080604052600436106100915760003560e01c80635625057111610059578063562505711461018b5780636a60883a146101c85780636a786b07146101f15780638bf918d71461020d57806393230fe81461024a57610091565b8063237a4d511461009657806330b39a62146100bf5780633a51d246146100e85780634a432a46146101255780634aaf4a121461014e575b600080fd5b3480156100a257600080fd5b506100bd60048036038101906100b89190611436565b610287565b005b3480156100cb57600080fd5b506100e660048036038101906100e191906114b5565b610597565b005b3480156100f457600080fd5b5061010f600480360381019061010a9190611436565b6107ee565b60405161011c9190611520565b60405180910390f35b34801561013157600080fd5b5061014c600480360381019061014791906114b5565b61099d565b005b34801561015a57600080fd5b5061017560048036038101906101709190611436565b610b26565b604051610182919061157c565b60405180910390f35b34801561019757600080fd5b506101b260048036038101906101ad9190611436565b610bdc565b6040516101bf9190611655565b60405180910390f35b3480156101d457600080fd5b506101ef60048036038101906101ea91906114b5565b610cf6565b005b61020b60048036038101906102069190611436565b610f0c565b005b34801561021957600080fd5b50610234600480360381019061022f91906116a3565b611165565b604051610241919061171a565b60405180910390f35b34801561025657600080fd5b50610271600480360381019061026c9190611436565b611246565b60405161027e9190611520565b60405180910390f35b60018160405161029791906117a6565b908152602001604051809103902060009054906101000a900460ff166102f2576040517f08c379a00000000000000000000000000000000000000000000000000000000081526004016102e99061181a565b60405180910390fd5b6000808260405161030391906117a6565b908152602001604051809103902090508060030160003373ffffffffffffffffffffffffffffffffffffffff1673ffffffffffffffffffffffffffffffffffffffff16815260200190815260200160002060009054906101000a900460ff166103a1576040517f08c379a000000000000000000000000000000000000000000000000000000000815260040161039890611886565b60405180910390fd5b60008160020180549050905060005b81811015610537573373ffffffffffffffffffffffffffffffffffffffff168360020182815481106103e5576103e46118a6565b5b9060005260206000200160009054906101000a900473ffffffffffffffffffffffffffffffffffffffff1673ffffffffffffffffffffffffffffffffffffffff1603610524578260020160018361043c9190611904565b8154811061044d5761044c6118a6565b5b9060005260206000200160009054906101000a900473ffffffffffffffffffffffffffffffffffffffff1683600201828154811061048e5761048d6118a6565b5b9060005260206000200160006101000a81548173ffffffffffffffffffffffffffffffffffffffff021916908373ffffffffffffffffffffffffffffffffffffffff160217905550826002018054806104ea576104e9611938565b5b6001900381819060005260206000200160006101000a81549073ffffffffffffffffffffffffffffffffffffffff02191690559055610537565b808061052f90611967565b9150506103b0565b5060008260030160003373ffffffffffffffffffffffffffffffffffffffff1673ffffffffffffffffffffffffffffffffffffffff16815260200190815260200160002060006101000a81548160ff021916908315150217905550505050565b816001816040516105a891906117a6565b908152602001604051809103902060009054906101000a900460ff16610603576040517f08c379a00000000000000000000000000000000000000000000000000000000081526004016105fa9061181a565b60405180910390fd5b60008160405161061391906117a6565b908152602001604051809103902060000160009054906101000a900473ffffffffffffffffffffffffffffffffffffffff1673ffffffffffffffffffffffffffffffffffffffff163373ffffffffffffffffffffffffffffffffffffffff16146106b2576040517f08c379a00000000000000000000000000000000000000000000000000000000081526004016106a9906119fb565b60405180910390fd5b600082116106f5576040517f08c379a00000000000000000000000000000000000000000000000000000000081526004016106ec90611a67565b60405180910390fd5b8160028460405161070691906117a6565b9081526020016040518091039020541015610756576040517f08c379a000000000000000000000000000000000000000000000000000000000815260040161074d90611ad3565b60405180910390fd5b8160028460405161076791906117a6565b9081526020016040518091039020546107809190611904565b60028460405161079091906117a6565b9081526020016040518091039020819055503373ffffffffffffffffffffffffffffffffffffffff166108fc839081150290604051600060405180830381858888f193505050501580156107e8573d6000803e3d6000fd5b50505050565b60008160018160405161080191906117a6565b908152602001604051809103902060009054906101000a900460ff1661085c576040517f08c379a00000000000000000000000000000000000000000000000000000000081526004016108539061181a565b60405180910390fd5b60008160405161086c91906117a6565b908152602001604051809103902060000160009054906101000a900473ffffffffffffffffffffffffffffffffffffffff1673ffffffffffffffffffffffffffffffffffffffff163373ffffffffffffffffffffffffffffffffffffffff161461090b576040517f08c379a0000000000000000000000000000000000000000000000000000000008152600401610902906119fb565b60405180910390fd5b60018360405161091b91906117a6565b908152602001604051809103902060009054906101000a900460ff16610976576040517f08c379a000000000000000000000000000000000000000000000000000000000815260040161096d9061181a565b60405180910390fd5b60028360405161098691906117a6565b908152602001604051809103902054915050919050565b816001816040516109ae91906117a6565b908152602001604051809103902060009054906101000a900460ff16610a09576040517f08c379a0000000000000000000000000000000000000000000000000000000008152600401610a009061181a565b60405180910390fd5b600081604051610a1991906117a6565b908152602001604051809103902060000160009054906101000a900473ffffffffffffffffffffffffffffffffffffffff1673ffffffffffffffffffffffffffffffffffffffff163373ffffffffffffffffffffffffffffffffffffffff1614610ab8576040517f08c379a0000000000000000000000000000000000000000000000000000000008152600401610aaf906119fb565b60405180910390fd5b60008211610afb576040517f08c379a0000000000000000000000000000000000000000000000000000000008152600401610af290611b3f565b60405180910390fd5b81600084604051610b0c91906117a6565b908152602001604051809103902060010181905550505050565b6000600182604051610b3891906117a6565b908152602001604051809103902060009054906101000a900460ff16610b93576040517f08c379a0000000000000000000000000000000000000000000000000000000008152600401610b8a9061181a565b60405180910390fd5b600082604051610ba391906117a6565b908152602001604051809103902060000160009054906101000a900473ffffffffffffffffffffffffffffffffffffffff169050919050565b6060600182604051610bee91906117a6565b908152602001604051809103902060009054906101000a900460ff16610c49576040517f08c379a0000000000000000000000000000000000000000000000000000000008152600401610c409061181a565b60405180910390fd5b600082604051610c5991906117a6565b9081526020016040518091039020600201805480602002602001604051908101604052809291908181526020018280548015610cea57602002820191906000526020600020905b8160009054906101000a900473ffffffffffffffffffffffffffffffffffffffff1673ffffffffffffffffffffffffffffffffffffffff1681526020019060010190808311610ca0575b50505050509050919050565b600182604051610d0691906117a6565b908152602001604051809103902060009054906101000a900460ff1615610d62576040517f08c379a0000000000000000000000000000000000000000000000000000000008152600401610d5990611bab565b60405180910390fd5b60008111610da5576040517f08c379a0000000000000000000000000000000000000000000000000000000008152600401610d9c90611b3f565b60405180910390fd5b60008083604051610db691906117a6565b90815260200160405180910390209050338160000160006101000a81548173ffffffffffffffffffffffffffffffffffffffff021916908373ffffffffffffffffffffffffffffffffffffffff16021790555081816001018190555080600201339080600181540180825580915050600190039060005260206000200160009091909190916101000a81548173ffffffffffffffffffffffffffffffffffffffff021916908373ffffffffffffffffffffffffffffffffffffffff16021790555060018160030160003373ffffffffffffffffffffffffffffffffffffffff1673ffffffffffffffffffffffffffffffffffffffff16815260200190815260200160002060006101000a81548160ff02191690831515021790555060018084604051610ee291906117a6565b908152602001604051809103902060006101000a81548160ff021916908315150217905550505050565b600181604051610f1c91906117a6565b908152602001604051809103902060009054906101000a900460ff16610f77576040517f08c379a0000000000000000000000000000000000000000000000000000000008152600401610f6e9061181a565b60405180910390fd5b60008082604051610f8891906117a6565b908152602001604051809103902090508060030160003373ffffffffffffffffffffffffffffffffffffffff1673ffffffffffffffffffffffffffffffffffffffff16815260200190815260200160002060009054906101000a900460ff1615611027576040517f08c379a000000000000000000000000000000000000000000000000000000000815260040161101e90611c17565b60405180910390fd5b8060010154341461106d576040517f08c379a000000000000000000000000000000000000000000000000000000000815260040161106490611c83565b60405180910390fd5b80600201339080600181540180825580915050600190039060005260206000200160009091909190916101000a81548173ffffffffffffffffffffffffffffffffffffffff021916908373ffffffffffffffffffffffffffffffffffffffff16021790555060018160030160003373ffffffffffffffffffffffffffffffffffffffff1673ffffffffffffffffffffffffffffffffffffffff16815260200190815260200160002060006101000a81548160ff0219169083151502179055503460028360405161113d91906117a6565b9081526020016040518091039020600082825461115a9190611ca3565b925050819055505050565b600060018360405161117791906117a6565b908152602001604051809103902060009054906101000a900460ff166111d2576040517f08c379a00000000000000000000000000000000000000000000000000000000081526004016111c99061181a565b60405180910390fd5b6000836040516111e291906117a6565b908152602001604051809103902060030160008373ffffffffffffffffffffffffffffffffffffffff1673ffffffffffffffffffffffffffffffffffffffff16815260200190815260200160002060009054906101000a900460ff16905092915050565b600060018260405161125891906117a6565b908152602001604051809103902060009054906101000a900460ff166112b3576040517f08c379a00000000000000000000000000000000000000000000000000000000081526004016112aa9061181a565b60405180910390fd5b6000826040516112c391906117a6565b9081526020016040518091039020600101549050919050565b6000604051905090565b600080fd5b600080fd5b600080fd5b600080fd5b6000601f19601f8301169050919050565b7f4e487b7100000000000000000000000000000000000000000000000000000000600052604160045260246000fd5b611343826112fa565b810181811067ffffffffffffffff821117156113625761136161130b565b5b80604052505050565b60006113756112dc565b9050611381828261133a565b919050565b600067ffffffffffffffff8211156113a1576113a061130b565b5b6113aa826112fa565b9050602081019050919050565b82818337600083830152505050565b60006113d96113d484611386565b61136b565b9050828152602081018484840111156113f5576113f46112f5565b5b6114008482856113b7565b509392505050565b600082601f83011261141d5761141c6112f0565b5b813561142d8482602086016113c6565b91505092915050565b60006020828403121561144c5761144b6112e6565b5b600082013567ffffffffffffffff81111561146a576114696112eb565b5b61147684828501611408565b91505092915050565b6000819050919050565b6114928161147f565b811461149d57600080fd5b50565b6000813590506114af81611489565b92915050565b600080604083850312156114cc576114cb6112e6565b5b600083013567ffffffffffffffff8111156114ea576114e96112eb565b5b6114f685828601611408565b9250506020611507858286016114a0565b9150509250929050565b61151a8161147f565b82525050565b60006020820190506115356000830184611511565b92915050565b600073ffffffffffffffffffffffffffffffffffffffff82169050919050565b60006115668261153b565b9050919050565b6115768161155b565b82525050565b6000602082019050611591600083018461156d565b92915050565b600081519050919050565b600082825260208201905092915050565b6000819050602082019050919050565b6115cc8161155b565b82525050565b60006115de83836115c3565b60208301905092915050565b6000602082019050919050565b600061160282611597565b61160c81856115a2565b9350611617836115b3565b8060005b8381101561164857815161162f88826115d2565b975061163a836115ea565b92505060018101905061161b565b5085935050505092915050565b6000602082019050818103600083015261166f81846115f7565b905092915050565b6116808161155b565b811461168b57600080fd5b50565b60008135905061169d81611677565b92915050565b600080604083850312156116ba576116b96112e6565b5b600083013567ffffffffffffffff8111156116d8576116d76112eb565b5b6116e485828601611408565b92505060206116f58582860161168e565b9150509250929050565b60008115159050919050565b611714816116ff565b82525050565b600060208201905061172f600083018461170b565b92915050565b600081519050919050565b600081905092915050565b60005b8381101561176957808201518184015260208101905061174e565b60008484015250505050565b600061178082611735565b61178a8185611740565b935061179a81856020860161174b565b80840191505092915050565b60006117b28284611775565b915081905092915050565b600082825260208201905092915050565b7f46616e20636c756220646f6573206e6f74206578697374000000000000000000600082015250565b60006118046017836117bd565b915061180f826117ce565b602082019050919050565b60006020820190508181036000830152611833816117f7565b9050919050565b7f4e6f742061206d656d6265720000000000000000000000000000000000000000600082015250565b6000611870600c836117bd565b915061187b8261183a565b602082019050919050565b6000602082019050818103600083015261189f81611863565b9050919050565b7f4e487b7100000000000000000000000000000000000000000000000000000000600052603260045260246000fd5b7f4e487b7100000000000000000000000000000000000000000000000000000000600052601160045260246000fd5b600061190f8261147f565b915061191a8361147f565b9250828203905081811115611932576119316118d5565b5b92915050565b7f4e487b7100000000000000000000000000000000000000000000000000000000600052603160045260246000fd5b60006119728261147f565b91507fffffffffffffffffffffffffffffffffffffffffffffffffffffffffffffffff82036119a4576119a36118d5565b5b600182019050919050565b7f4f6e6c792066616e20636c7562206f776e657200000000000000000000000000600082015250565b60006119e56013836117bd565b91506119f0826119af565b602082019050919050565b60006020820190508181036000830152611a14816119d8565b9050919050565b7f4e6f2062616c616e636520746f20776974686472617700000000000000000000600082015250565b6000611a516016836117bd565b9150611a5c82611a1b565b602082019050919050565b60006020820190508181036000830152611a8081611a44565b9050919050565b7f496e73756666696369656e742062616c616e6365000000000000000000000000600082015250565b6000611abd6014836117bd565b9150611ac882611a87565b602082019050919050565b60006020820190508181036000830152611aec81611ab0565b9050919050565b7f5072696365206d7573742062652067726561746572207468616e207a65726f00600082015250565b6000611b29601f836117bd565b9150611b3482611af3565b602082019050919050565b60006020820190508181036000830152611b5881611b1c565b9050919050565b7f46616e20636c756220616c726561647920657869737473000000000000000000600082015250565b6000611b956017836117bd565b9150611ba082611b5f565b602082019050919050565b60006020820190508181036000830152611bc481611b88565b9050919050565b7f416c72656164792061206d656d62657200000000000000000000000000000000600082015250565b6000611c016010836117bd565b9150611c0c82611bcb565b602082019050919050565b60006020820190508181036000830152611c3081611bf4565b9050919050565b7f496e636f7272656374207061796d656e74000000000000000000000000000000600082015250565b6000611c6d6011836117bd565b9150611c7882611c37565b602082019050919050565b60006020820190508181036000830152611c9c81611c60565b9050919050565b6000611cae8261147f565b9150611cb98361147f565b9250828201905080821115611cd157611cd06118d5565b5b9291505056fea26469706673582212201300418b7cebce79fb4ae41fd14122a8fdc4f0deb55ea41bfa1b4afacbbc3f5264736f6c63430008140033",
  "linkReferences": {},
  "deployedLinkReferences": {}
}