{
  "_format": "hh-sol-artifact-1",
  "contractName": "FanClubs",
  "sourceName": "contracts/FanClubs.sol",
  "abi": [
    {
      "inputs": [],
      "stateMutability": "nonpayable",
      "type": "constructor"
    },
    {
      "inputs": [
        {
          "internalType": "string",
          "name": "fanClubId",
          "type": "string"
        },
        {
          "internalType": "address",
          "name": "nftAddress",
          "type": "address"
        },
        {
          "internalType": "uint256",
          "name": "tokenId",
          "type": "uint256"
        }
      ],
      "name": "buy",
      "outputs": [],
      "stateMutability": "nonpayable",
      "type": "function"
    },
    {
      "inputs": [
        {
          "internalType": "string",
          "name": "fanClubId",
          "type": "string"
        },
        {
          "internalType": "address",
          "name": "user",
          "type": "address"
        }
      ],
      "name": "checkMember",
      "outputs": [
        {
          "internalType": "bool",
          "name": "",
          "type": "bool"
        }
      ],
      "stateMutability": "view",
      "type": "function"
    },
    {
      "inputs": [
        {
          "internalType": "string",
          "name": "fanClubId",
          "type": "string"
        },
        {
          "internalType": "uint256",
          "name": "_price",
          "type": "uint256"
        }
      ],
      "name": "createFanClub",
      "outputs": [],
      "stateMutability": "nonpayable",
      "type": "function"
    },
    {
      "inputs": [
        {
          "internalType": "string",
          "name": "fanClubId",
          "type": "string"
        },
        {
          "internalType": "address",
          "name": "tokenAddress",
          "type": "address"
        }
      ],
      "name": "createMarketplace",
      "outputs": [],
      "stateMutability": "nonpayable",
      "type": "function"
    },
    {
      "inputs": [
        {
          "internalType": "string",
          "name": "fanClubId",
          "type": "string"
        },
        {
          "internalType": "address",
          "name": "nftAddress",
          "type": "address"
        },
        {
          "internalType": "uint256",
          "name": "tokenId",
          "type": "uint256"
        }
      ],
      "name": "delistItem",
      "outputs": [],
      "stateMutability": "nonpayable",
      "type": "function"
    },
    {
      "inputs": [
        {
          "internalType": "string",
          "name": "fanClubId",
          "type": "string"
        },
        {
          "internalType": "address",
          "name": "nftAddress",
          "type": "address"
        },
        {
          "internalType": "uint256",
          "name": "tokenId",
          "type": "uint256"
        }
      ],
      "name": "depositFanNFT",
      "outputs": [],
      "stateMutability": "nonpayable",
      "type": "function"
    },
    {
      "inputs": [
        {
          "internalType": "string",
          "name": "fanClubId",
          "type": "string"
        },
        {
          "internalType": "address",
          "name": "tokenAddress",
          "type": "address"
        },
        {
          "internalType": "uint256",
          "name": "amount",
          "type": "uint256"
        }
      ],
      "name": "depositFanTokens",
      "outputs": [],
      "stateMutability": "nonpayable",
      "type": "function"
    },
    {
      "inputs": [],
      "name": "getAllFanClubIds",
      "outputs": [
        {
          "internalType": "string[]",
          "name": "",
          "type": "string[]"
        }
      ],
      "stateMutability": "view",
      "type": "function"
    },
    {
      "inputs": [
        {
          "internalType": "string",
          "name": "fanClubId",
          "type": "string"
        }
      ],
      "name": "getBalance",
      "outputs": [
        {
          "internalType": "uint256",
          "name": "",
          "type": "uint256"
        }
      ],
      "stateMutability": "view",
      "type": "function"
    },
    {
      "inputs": [
        {
          "internalType": "string",
          "name": "fanClubId",
          "type": "string"
        },
        {
          "internalType": "address",
          "name": "nftAddress",
          "type": "address"
        },
        {
          "internalType": "uint256",
          "name": "tokenId",
          "type": "uint256"
        }
      ],
      "name": "getFanNFT",
      "outputs": [
        {
          "internalType": "bool",
          "name": "",
          "type": "bool"
        }
      ],
      "stateMutability": "view",
      "type": "function"
    },
    {
      "inputs": [
        {
          "internalType": "string",
          "name": "fanClubId",
          "type": "string"
        },
        {
          "internalType": "address",
          "name": "tokenAddress",
          "type": "address"
        }
      ],
      "name": "getFanTokenBalance",
      "outputs": [
        {
          "internalType": "uint256",
          "name": "",
          "type": "uint256"
        }
      ],
      "stateMutability": "view",
      "type": "function"
    },
    {
      "inputs": [
        {
          "internalType": "string",
          "name": "fanClubId",
          "type": "string"
        }
      ],
      "name": "getItems",
      "outputs": [
        {
          "components": [
            {
              "internalType": "address",
              "name": "nftAddress",
              "type": "address"
            },
            {
              "internalType": "uint256",
              "name": "tokenId",
              "type": "uint256"
            },
            {
              "internalType": "uint256",
              "name": "price",
              "type": "uint256"
            },
            {
              "internalType": "bool",
              "name": "isListed",
              "type": "bool"
            }
          ],
          "internalType": "struct FanClubs.MarketplaceItem[]",
          "name": "",
          "type": "tuple[]"
        }
      ],
      "stateMutability": "view",
      "type": "function"
    },
    {
      "inputs": [
        {
          "internalType": "string",
          "name": "fanClubId",
          "type": "string"
        }
      ],
      "name": "getJoinPrice",
      "outputs": [
        {
          "internalType": "uint256",
          "name": "",
          "type": "uint256"
        }
      ],
      "stateMutability": "view",
      "type": "function"
    },
    {
      "inputs": [
        {
          "internalType": "string",
          "name": "fanClubId",
          "type": "string"
        }
      ],
      "name": "getMembers",
      "outputs": [
        {
          "internalType": "address[]",
          "name": "",
          "type": "address[]"
        }
      ],
      "stateMutability": "view",
      "type": "function"
    },
    {
      "inputs": [
        {
          "internalType": "string",
          "name": "fanClubId",
          "type": "string"
        }
      ],
      "name": "getOwner",
      "outputs": [
        {
          "internalType": "address",
          "name": "",
          "type": "address"
        }
      ],
      "stateMutability": "view",
      "type": "function"
    },
    {
      "inputs": [
        {
          "internalType": "string",
          "name": "fanClubId",
          "type": "string"
        }
      ],
      "name": "join",
      "outputs": [],
      "stateMutability": "payable",
      "type": "function"
    },
    {
      "inputs": [
        {
          "internalType": "string",
          "name": "fanClubId",
          "type": "string"
        }
      ],
      "name": "leave",
      "outputs": [],
      "stateMutability": "nonpayable",
      "type": "function"
    },
    {
      "inputs": [
        {
          "internalType": "string",
          "name": "fanClubId",
          "type": "string"
        },
        {
          "internalType": "address",
          "name": "nftAddress",
          "type": "address"
        },
        {
          "internalType": "uint256",
          "name": "tokenId",
          "type": "uint256"
        },
        {
          "internalType": "uint256",
          "name": "price",
          "type": "uint256"
        }
      ],
      "name": "listItem",
      "outputs": [],
      "stateMutability": "nonpayable",
      "type": "function"
    },
    {
      "inputs": [
        {
          "internalType": "string",
          "name": "fanClubId",
          "type": "string"
        },
        {
          "internalType": "address",
          "name": "nftAddress",
          "type": "address"
        },
        {
          "internalType": "address",
          "name": "recipient",
          "type": "address"
        },
        {
          "internalType": "uint256",
          "name": "tokenId",
          "type": "uint256"
        }
      ],
      "name": "rewardFanNFT",
      "outputs": [],
      "stateMutability": "nonpayable",
      "type": "function"
    },
    {
      "inputs": [
        {
          "internalType": "string",
          "name": "fanClubId",
          "type": "string"
        },
        {
          "internalType": "address",
          "name": "tokenAddress",
          "type": "address"
        },
        {
          "internalType": "address",
          "name": "recipient",
          "type": "address"
        },
        {
          "internalType": "uint256",
          "name": "amount",
          "type": "uint256"
        }
      ],
      "name": "rewardFanToken",
      "outputs": [],
      "stateMutability": "nonpayable",
      "type": "function"
    },
    {
      "inputs": [
        {
          "internalType": "string",
          "name": "fanClubId",
          "type": "string"
        },
        {
          "internalType": "uint256",
          "name": "newPrice",
          "type": "uint256"
        }
      ],
      "name": "updatePrice",
      "outputs": [],
      "stateMutability": "nonpayable",
      "type": "function"
    },
    {
      "inputs": [
        {
          "internalType": "string",
          "name": "fanClubId",
          "type": "string"
        },
        {
          "internalType": "uint256",
          "name": "amount",
          "type": "uint256"
        }
      ],
      "name": "withdraw",
      "outputs": [],
      "stateMutability": "nonpayable",
      "type": "function"
    },
    {
      "inputs": [
        {
          "internalType": "string",
          "name": "fanClubId",
          "type": "string"
        },
        {
          "internalType": "address",
          "name": "nftAddress",
          "type": "address"
        },
        {
          "internalType": "uint256",
          "name": "tokenId",
          "type": "uint256"
        }
      ],
      "name": "withdrawFanNFT",
      "outputs": [],
      "stateMutability": "nonpayable",
      "type": "function"
    },
    {
      "inputs": [
        {
          "internalType": "string",
          "name": "fanClubId",
          "type": "string"
        },
        {
          "internalType": "address",
          "name": "tokenAddress",
          "type": "address"
        },
        {
          "internalType": "uint256",
          "name": "amount",
          "type": "uint256"
        }
      ],
      "name": "withdrawFanTokens",
      "outputs": [],
      "stateMutability": "nonpayable",
      "type": "function"
    }
  ],
  "bytecode": "0x608060405234801561001057600080fd5b506156e180620000216000396000f3fe60806040526004361061014b5760003560e01c80638bf918d7116100b6578063ca4aab8d1161006f578063ca4aab8d1461049f578063cb78b527146104c8578063e129281014610505578063e824f6cb1461052e578063f4f1e1701461056b578063fa145266146105945761014b565b80638bf918d71461037f57806393230fe8146103bc578063a3f6825d146103f9578063a4266ef414610422578063ba8fe4651461044d578063c4184444146104765761014b565b80634aaf4a12116101085780634aaf4a121461026e57806356250571146102ab578063612e61c8146102e85780636a60883a146103115780636a786b071461033a5780637782ec50146103565761014b565b8063237a4d511461015057806330b39a62146101795780633779e049146101a25780633a51d246146101df578063486017e01461021c5780634a432a4614610245575b600080fd5b34801561015c57600080fd5b5061017760048036038101906101729190613ece565b6105bd565b005b34801561018557600080fd5b506101a0600480360381019061019b9190613f4d565b6108cd565b005b3480156101ae57600080fd5b506101c960048036038101906101c49190614007565b610b0d565b6040516101d69190614072565b60405180910390f35b3480156101eb57600080fd5b5061020660048036038101906102019190613ece565b610c8f565b6040516102139190614072565b60405180910390f35b34801561022857600080fd5b50610243600480360381019061023e9190614007565b610e3e565b005b34801561025157600080fd5b5061026c60048036038101906102679190613f4d565b611095565b005b34801561027a57600080fd5b5061029560048036038101906102909190613ece565b61121e565b6040516102a2919061409c565b60405180910390f35b3480156102b757600080fd5b506102d260048036038101906102cd9190613ece565b6112d4565b6040516102df9190614175565b60405180910390f35b3480156102f457600080fd5b5061030f600480360381019061030a9190614197565b6113ee565b005b34801561031d57600080fd5b5061033860048036038101906103339190613f4d565b61156d565b005b610354600480360381019061034f9190613ece565b6117b8565b005b34801561036257600080fd5b5061037d60048036038101906103789190614197565b611a11565b005b34801561038b57600080fd5b506103a660048036038101906103a19190614007565b6121d5565b6040516103b39190614221565b60405180910390f35b3480156103c857600080fd5b506103e360048036038101906103de9190613ece565b6122b6565b6040516103f09190614072565b60405180910390f35b34801561040557600080fd5b50610420600480360381019061041b9190614197565b61234c565b005b34801561042e57600080fd5b506104376126b8565b604051610444919061437d565b60405180910390f35b34801561045957600080fd5b50610474600480360381019061046f919061439f565b612791565b005b34801561048257600080fd5b5061049d60048036038101906104989190614197565b612b83565b005b3480156104ab57600080fd5b506104c660048036038101906104c19190614422565b612ee2565b005b3480156104d457600080fd5b506104ef60048036038101906104ea9190613ece565b61321a565b6040516104fc91906145c7565b60405180910390f35b34801561051157600080fd5b5061052c60048036038101906105279190614197565b61331c565b005b34801561053a57600080fd5b5061055560048036038101906105509190614197565b6134ec565b6040516105629190614221565b60405180910390f35b34801561057757600080fd5b50610592600480360381019061058d9190614422565b613615565b005b3480156105a057600080fd5b506105bb60048036038101906105b69190614197565b6139f1565b005b6001816040516105cd9190614625565b908152602001604051809103902060009054906101000a900460ff16610628576040517f08c379a000000000000000000000000000000000000000000000000000000000815260040161061f90614699565b60405180910390fd5b600080826040516106399190614625565b908152602001604051809103902090508060030160003373ffffffffffffffffffffffffffffffffffffffff1673ffffffffffffffffffffffffffffffffffffffff16815260200190815260200160002060009054906101000a900460ff166106d7576040517f08c379a00000000000000000000000000000000000000000000000000000000081526004016106ce90614705565b60405180910390fd5b60008160020180549050905060005b8181101561086d573373ffffffffffffffffffffffffffffffffffffffff1683600201828154811061071b5761071a614725565b5b9060005260206000200160009054906101000a900473ffffffffffffffffffffffffffffffffffffffff1673ffffffffffffffffffffffffffffffffffffffff160361085a57826002016001836107729190614783565b8154811061078357610782614725565b5b9060005260206000200160009054906101000a900473ffffffffffffffffffffffffffffffffffffffff168360020182815481106107c4576107c3614725565b5b9060005260206000200160006101000a81548173ffffffffffffffffffffffffffffffffffffffff021916908373ffffffffffffffffffffffffffffffffffffffff160217905550826002018054806108205761081f6147b7565b5b6001900381819060005260206000200160006101000a81549073ffffffffffffffffffffffffffffffffffffffff0219169055905561086d565b8080610865906147e6565b9150506106e6565b5060008260030160003373ffffffffffffffffffffffffffffffffffffffff1673ffffffffffffffffffffffffffffffffffffffff16815260200190815260200160002060006101000a81548160ff021916908315150217905550505050565b816001816040516108de9190614625565b908152602001604051809103902060009054906101000a900460ff16610939576040517f08c379a000000000000000000000000000000000000000000000000000000000815260040161093090614699565b60405180910390fd5b6000816040516109499190614625565b908152602001604051809103902060000160009054906101000a900473ffffffffffffffffffffffffffffffffffffffff1673ffffffffffffffffffffffffffffffffffffffff163373ffffffffffffffffffffffffffffffffffffffff16146109e8576040517f08c379a00000000000000000000000000000000000000000000000000000000081526004016109df9061487a565b60405180910390fd5b60008211610a2b576040517f08c379a0000000000000000000000000000000000000000000000000000000008152600401610a22906148e6565b60405180910390fd5b81600284604051610a3c9190614625565b9081526020016040518091039020541015610a8c576040517f08c379a0000000000000000000000000000000000000000000000000000000008152600401610a8390614952565b60405180910390fd5b81600284604051610a9d9190614625565b90815260200160405180910390206000828254610aba9190614783565b925050819055503373ffffffffffffffffffffffffffffffffffffffff166108fc839081150290604051600060405180830381858888f19350505050158015610b07573d6000803e3d6000fd5b50505050565b600082600181604051610b209190614625565b908152602001604051809103902060009054906101000a900460ff16610b7b576040517f08c379a0000000000000000000000000000000000000000000000000000000008152600401610b7290614699565b60405180910390fd5b600081604051610b8b9190614625565b908152602001604051809103902060000160009054906101000a900473ffffffffffffffffffffffffffffffffffffffff1673ffffffffffffffffffffffffffffffffffffffff163373ffffffffffffffffffffffffffffffffffffffff1614610c2a576040517f08c379a0000000000000000000000000000000000000000000000000000000008152600401610c219061487a565b60405180910390fd5b600484604051610c3a9190614625565b908152602001604051809103902060008473ffffffffffffffffffffffffffffffffffffffff1673ffffffffffffffffffffffffffffffffffffffff1681526020019081526020016000205491505092915050565b600081600181604051610ca29190614625565b908152602001604051809103902060009054906101000a900460ff16610cfd576040517f08c379a0000000000000000000000000000000000000000000000000000000008152600401610cf490614699565b60405180910390fd5b600081604051610d0d9190614625565b908152602001604051809103902060000160009054906101000a900473ffffffffffffffffffffffffffffffffffffffff1673ffffffffffffffffffffffffffffffffffffffff163373ffffffffffffffffffffffffffffffffffffffff1614610dac576040517f08c379a0000000000000000000000000000000000000000000000000000000008152600401610da39061487a565b60405180910390fd5b600183604051610dbc9190614625565b908152602001604051809103902060009054906101000a900460ff16610e17576040517f08c379a0000000000000000000000000000000000000000000000000000000008152600401610e0e90614699565b60405180910390fd5b600283604051610e279190614625565b908152602001604051809103902054915050919050565b81600181604051610e4f9190614625565b908152602001604051809103902060009054906101000a900460ff16610eaa576040517f08c379a0000000000000000000000000000000000000000000000000000000008152600401610ea190614699565b60405180910390fd5b600081604051610eba9190614625565b908152602001604051809103902060000160009054906101000a900473ffffffffffffffffffffffffffffffffffffffff1673ffffffffffffffffffffffffffffffffffffffff163373ffffffffffffffffffffffffffffffffffffffff1614610f59576040517f08c379a0000000000000000000000000000000000000000000000000000000008152600401610f509061487a565b60405180910390fd5b600183604051610f699190614625565b908152602001604051809103902060009054906101000a900460ff16610fc4576040517f08c379a0000000000000000000000000000000000000000000000000000000008152600401610fbb90614699565b60405180910390fd5b600073ffffffffffffffffffffffffffffffffffffffff168273ffffffffffffffffffffffffffffffffffffffff1603611033576040517f08c379a000000000000000000000000000000000000000000000000000000000815260040161102a906149be565b60405180910390fd5b816006846040516110449190614625565b908152602001604051809103902060006101000a81548173ffffffffffffffffffffffffffffffffffffffff021916908373ffffffffffffffffffffffffffffffffffffffff160217905550505050565b816001816040516110a69190614625565b908152602001604051809103902060009054906101000a900460ff16611101576040517f08c379a00000000000000000000000000000000000000000000000000000000081526004016110f890614699565b60405180910390fd5b6000816040516111119190614625565b908152602001604051809103902060000160009054906101000a900473ffffffffffffffffffffffffffffffffffffffff1673ffffffffffffffffffffffffffffffffffffffff163373ffffffffffffffffffffffffffffffffffffffff16146111b0576040517f08c379a00000000000000000000000000000000000000000000000000000000081526004016111a79061487a565b60405180910390fd5b600082116111f3576040517f08c379a00000000000000000000000000000000000000000000000000000000081526004016111ea90614a2a565b60405180910390fd5b816000846040516112049190614625565b908152602001604051809103902060010181905550505050565b60006001826040516112309190614625565b908152602001604051809103902060009054906101000a900460ff1661128b576040517f08c379a000000000000000000000000000000000000000000000000000000000815260040161128290614699565b60405180910390fd5b60008260405161129b9190614625565b908152602001604051809103902060000160009054906101000a900473ffffffffffffffffffffffffffffffffffffffff169050919050565b60606001826040516112e69190614625565b908152602001604051809103902060009054906101000a900460ff16611341576040517f08c379a000000000000000000000000000000000000000000000000000000000815260040161133890614699565b60405180910390fd5b6000826040516113519190614625565b90815260200160405180910390206002018054806020026020016040519081016040528092919081815260200182805480156113e257602002820191906000526020600020905b8160009054906101000a900473ffffffffffffffffffffffffffffffffffffffff1673ffffffffffffffffffffffffffffffffffffffff1681526020019060010190808311611398575b50505050509050919050565b60008111611431576040517f08c379a000000000000000000000000000000000000000000000000000000000815260040161142890614a96565b60405180910390fd5b60008273ffffffffffffffffffffffffffffffffffffffff166323b872dd3330856040518463ffffffff1660e01b815260040161147093929190614ab6565b6020604051808303816000875af115801561148f573d6000803e3d6000fd5b505050506040513d601f19601f820116820180604052508101906114b39190614b19565b9050806114f5576040517f08c379a00000000000000000000000000000000000000000000000000000000081526004016114ec90614b92565b60405180910390fd5b816004856040516115069190614625565b908152602001604051809103902060008573ffffffffffffffffffffffffffffffffffffffff1673ffffffffffffffffffffffffffffffffffffffff16815260200190815260200160002060008282546115609190614bb2565b9250508190555050505050565b60018260405161157d9190614625565b908152602001604051809103902060009054906101000a900460ff16156115d9576040517f08c379a00000000000000000000000000000000000000000000000000000000081526004016115d090614c32565b60405180910390fd5b6000811161161c576040517f08c379a000000000000000000000000000000000000000000000000000000000815260040161161390614a2a565b60405180910390fd5b6000808360405161162d9190614625565b90815260200160405180910390209050338160000160006101000a81548173ffffffffffffffffffffffffffffffffffffffff021916908373ffffffffffffffffffffffffffffffffffffffff16021790555081816001018190555080600201339080600181540180825580915050600190039060005260206000200160009091909190916101000a81548173ffffffffffffffffffffffffffffffffffffffff021916908373ffffffffffffffffffffffffffffffffffffffff16021790555060018160030160003373ffffffffffffffffffffffffffffffffffffffff1673ffffffffffffffffffffffffffffffffffffffff16815260200190815260200160002060006101000a81548160ff021916908315150217905550600180846040516117599190614625565b908152602001604051809103902060006101000a81548160ff0219169083151502179055506005839080600181540180825580915050600190039060005260206000200160009091909190915090816117b29190614e5e565b50505050565b6001816040516117c89190614625565b908152602001604051809103902060009054906101000a900460ff16611823576040517f08c379a000000000000000000000000000000000000000000000000000000000815260040161181a90614699565b60405180910390fd5b600080826040516118349190614625565b908152602001604051809103902090508060030160003373ffffffffffffffffffffffffffffffffffffffff1673ffffffffffffffffffffffffffffffffffffffff16815260200190815260200160002060009054906101000a900460ff16156118d3576040517f08c379a00000000000000000000000000000000000000000000000000000000081526004016118ca90614f7c565b60405180910390fd5b80600101543414611919576040517f08c379a000000000000000000000000000000000000000000000000000000000815260040161191090614fe8565b60405180910390fd5b80600201339080600181540180825580915050600190039060005260206000200160009091909190916101000a81548173ffffffffffffffffffffffffffffffffffffffff021916908373ffffffffffffffffffffffffffffffffffffffff16021790555060018160030160003373ffffffffffffffffffffffffffffffffffffffff1673ffffffffffffffffffffffffffffffffffffffff16815260200190815260200160002060006101000a81548160ff021916908315150217905550346002836040516119e99190614625565b90815260200160405180910390206000828254611a069190614bb2565b925050819055505050565b600183604051611a219190614625565b908152602001604051809103902060009054906101000a900460ff16611a7c576040517f08c379a0000000000000000000000000000000000000000000000000000000008152600401611a7390614699565b60405180910390fd5b600083604051611a8c9190614625565b908152602001604051809103902060030160003373ffffffffffffffffffffffffffffffffffffffff1673ffffffffffffffffffffffffffffffffffffffff16815260200190815260200160002060009054906101000a900460ff16611b27576040517f08c379a0000000000000000000000000000000000000000000000000000000008152600401611b1e90615054565b60405180910390fd5b600883604051611b379190614625565b908152602001604051809103902060008373ffffffffffffffffffffffffffffffffffffffff1673ffffffffffffffffffffffffffffffffffffffff168152602001908152602001600020600082815260200190815260200160002060009054906101000a900460ff16611be0576040517f08c379a0000000000000000000000000000000000000000000000000000000008152600401611bd7906150c0565b60405180910390fd5b6000600684604051611bf29190614625565b908152602001604051809103902060009054906101000a900473ffffffffffffffffffffffffffffffffffffffff169050600073ffffffffffffffffffffffffffffffffffffffff168173ffffffffffffffffffffffffffffffffffffffff1603611c92576040517f08c379a0000000000000000000000000000000000000000000000000000000008152600401611c899061512c565b60405180910390fd5b6000600785604051611ca49190614625565b9081526020016040518091039020905060007fffffffffffffffffffffffffffffffffffffffffffffffffffffffffffffffff9050600080600090505b8380549050811015611e10578673ffffffffffffffffffffffffffffffffffffffff16848281548110611d1757611d16614725565b5b906000526020600020906004020160000160009054906101000a900473ffffffffffffffffffffffffffffffffffffffff1673ffffffffffffffffffffffffffffffffffffffff16148015611d8f575085848281548110611d7b57611d7a614725565b5b906000526020600020906004020160010154145b8015611dc95750838181548110611da957611da8614725565b5b906000526020600020906004020160030160009054906101000a900460ff165b15611dfd57809250838181548110611de457611de3614725565b5b9060005260206000209060040201600201549150611e10565b8080611e08906147e6565b915050611ce1565b507fffffffffffffffffffffffffffffffffffffffffffffffffffffffffffffffff8203611e73576040517f08c379a0000000000000000000000000000000000000000000000000000000008152600401611e6a90615198565b60405180910390fd5b60008473ffffffffffffffffffffffffffffffffffffffff166323b872dd3360008b604051611ea29190614625565b908152602001604051809103902060000160009054906101000a900473ffffffffffffffffffffffffffffffffffffffff16856040518463ffffffff1660e01b8152600401611ef393929190614ab6565b6020604051808303816000875af1158015611f12573d6000803e3d6000fd5b505050506040513d601f19601f82011682018060405250810190611f369190614b19565b905080611f78576040517f08c379a0000000000000000000000000000000000000000000000000000000008152600401611f6f90615204565b60405180910390fd5b8673ffffffffffffffffffffffffffffffffffffffff166323b872dd3033896040518463ffffffff1660e01b8152600401611fb593929190614ab6565b600060405180830381600087803b158015611fcf57600080fd5b505af1158015611fe3573d6000803e3d6000fd5b505050506000848481548110611ffc57611ffb614725565b5b906000526020600020906004020160030160006101000a81548160ff02191690831515021790555060006008896040516120369190614625565b908152602001604051809103902060008973ffffffffffffffffffffffffffffffffffffffff1673ffffffffffffffffffffffffffffffffffffffff168152602001908152602001600020600088815260200190815260200160002060006101000a81548160ff02191690831515021790555060006003896040516120bb9190614625565b908152602001604051809103902060008973ffffffffffffffffffffffffffffffffffffffff1673ffffffffffffffffffffffffffffffffffffffff168152602001908152602001600020905060005b81805490508110156121c9578782828154811061212b5761212a614725565b5b9060005260206000200154036121b657816001838054905061214d9190614783565b8154811061215e5761215d614725565b5b906000526020600020015482828154811061217c5761217b614725565b5b90600052602060002001819055508180548061219b5761219a6147b7565b5b600190038181906000526020600020016000905590556121c9565b80806121c1906147e6565b91505061210b565b50505050505050505050565b60006001836040516121e79190614625565b908152602001604051809103902060009054906101000a900460ff16612242576040517f08c379a000000000000000000000000000000000000000000000000000000000815260040161223990614699565b60405180910390fd5b6000836040516122529190614625565b908152602001604051809103902060030160008373ffffffffffffffffffffffffffffffffffffffff1673ffffffffffffffffffffffffffffffffffffffff16815260200190815260200160002060009054906101000a900460ff16905092915050565b60006001826040516122c89190614625565b908152602001604051809103902060009054906101000a900460ff16612323576040517f08c379a000000000000000000000000000000000000000000000000000000000815260040161231a90614699565b60405180910390fd5b6000826040516123339190614625565b9081526020016040518091039020600101549050919050565b8260018160405161235d9190614625565b908152602001604051809103902060009054906101000a900460ff166123b8576040517f08c379a00000000000000000000000000000000000000000000000000000000081526004016123af90614699565b60405180910390fd5b6000816040516123c89190614625565b908152602001604051809103902060000160009054906101000a900473ffffffffffffffffffffffffffffffffffffffff1673ffffffffffffffffffffffffffffffffffffffff163373ffffffffffffffffffffffffffffffffffffffff1614612467576040517f08c379a000000000000000000000000000000000000000000000000000000000815260040161245e9061487a565b60405180910390fd5b6001846040516124779190614625565b908152602001604051809103902060009054906101000a900460ff166124d2576040517f08c379a00000000000000000000000000000000000000000000000000000000081526004016124c990614699565b60405180910390fd5b60006003856040516124e49190614625565b908152602001604051809103902060008573ffffffffffffffffffffffffffffffffffffffff1673ffffffffffffffffffffffffffffffffffffffff168152602001908152602001600020905060008080600090505b8380549050811015612589578584828154811061255a57612559614725565b5b9060005260206000200154036125765760019250809150612589565b8080612581906147e6565b91505061253a565b50816125ca576040517f08c379a00000000000000000000000000000000000000000000000000000000081526004016125c190615296565b60405180910390fd5b82600184805490506125dc9190614783565b815481106125ed576125ec614725565b5b906000526020600020015483828154811061260b5761260a614725565b5b90600052602060002001819055508280548061262a576126296147b7565b5b600190038181906000526020600020016000905590558573ffffffffffffffffffffffffffffffffffffffff166323b872dd3033886040518463ffffffff1660e01b815260040161267d93929190614ab6565b600060405180830381600087803b15801561269757600080fd5b505af11580156126ab573d6000803e3d6000fd5b5050505050505050505050565b60606005805480602002602001604051908101604052809291908181526020016000905b828210156127885783829060005260206000200180546126fb90614c81565b80601f016020809104026020016040519081016040528092919081815260200182805461272790614c81565b80156127745780601f1061274957610100808354040283529160200191612774565b820191906000526020600020905b81548152906001019060200180831161275757829003601f168201915b5050505050815260200190600101906126dc565b50505050905090565b836001816040516127a29190614625565b908152602001604051809103902060009054906101000a900460ff166127fd576040517f08c379a00000000000000000000000000000000000000000000000000000000081526004016127f490614699565b60405180910390fd5b60008160405161280d9190614625565b908152602001604051809103902060000160009054906101000a900473ffffffffffffffffffffffffffffffffffffffff1673ffffffffffffffffffffffffffffffffffffffff163373ffffffffffffffffffffffffffffffffffffffff16146128ac576040517f08c379a00000000000000000000000000000000000000000000000000000000081526004016128a39061487a565b60405180910390fd5b600082116128ef576040517f08c379a00000000000000000000000000000000000000000000000000000000081526004016128e690615302565b60405180910390fd5b6128fa8585856134ec565b612939576040517f08c379a00000000000000000000000000000000000000000000000000000000081526004016129309061536e565b60405180910390fd5b6008856040516129499190614625565b908152602001604051809103902060008573ffffffffffffffffffffffffffffffffffffffff1673ffffffffffffffffffffffffffffffffffffffff168152602001908152602001600020600084815260200190815260200160002060009054906101000a900460ff16156129f3576040517f08c379a00000000000000000000000000000000000000000000000000000000081526004016129ea906153da565b60405180910390fd5b600060405180608001604052808673ffffffffffffffffffffffffffffffffffffffff168152602001858152602001848152602001600115158152509050600786604051612a419190614625565b908152602001604051809103902081908060018154018082558091505060019003906000526020600020906004020160009091909190915060008201518160000160006101000a81548173ffffffffffffffffffffffffffffffffffffffff021916908373ffffffffffffffffffffffffffffffffffffffff160217905550602082015181600101556040820151816002015560608201518160030160006101000a81548160ff02191690831515021790555050506001600887604051612b089190614625565b908152602001604051809103902060008773ffffffffffffffffffffffffffffffffffffffff1673ffffffffffffffffffffffffffffffffffffffff168152602001908152602001600020600086815260200190815260200160002060006101000a81548160ff021916908315150217905550505050505050565b82600181604051612b949190614625565b908152602001604051809103902060009054906101000a900460ff16612bef576040517f08c379a0000000000000000000000000000000000000000000000000000000008152600401612be690614699565b60405180910390fd5b600081604051612bff9190614625565b908152602001604051809103902060000160009054906101000a900473ffffffffffffffffffffffffffffffffffffffff1673ffffffffffffffffffffffffffffffffffffffff163373ffffffffffffffffffffffffffffffffffffffff1614612c9e576040517f08c379a0000000000000000000000000000000000000000000000000000000008152600401612c959061487a565b60405180910390fd5b600184604051612cae9190614625565b908152602001604051809103902060009054906101000a900460ff16612d09576040517f08c379a0000000000000000000000000000000000000000000000000000000008152600401612d0090614699565b60405180910390fd5b81600485604051612d1a9190614625565b908152602001604051809103902060008573ffffffffffffffffffffffffffffffffffffffff1673ffffffffffffffffffffffffffffffffffffffff168152602001908152602001600020541015612da7576040517f08c379a0000000000000000000000000000000000000000000000000000000008152600401612d9e90615446565b60405180910390fd5b81600485604051612db89190614625565b908152602001604051809103902060008573ffffffffffffffffffffffffffffffffffffffff1673ffffffffffffffffffffffffffffffffffffffff1681526020019081526020016000206000828254612e129190614783565b9250508190555060008373ffffffffffffffffffffffffffffffffffffffff1663a9059cbb33856040518363ffffffff1660e01b8152600401612e56929190615466565b6020604051808303816000875af1158015612e75573d6000803e3d6000fd5b505050506040513d601f19601f82011682018060405250810190612e999190614b19565b905080612edb576040517f08c379a0000000000000000000000000000000000000000000000000000000008152600401612ed2906154db565b60405180910390fd5b5050505050565b83600181604051612ef39190614625565b908152602001604051809103902060009054906101000a900460ff16612f4e576040517f08c379a0000000000000000000000000000000000000000000000000000000008152600401612f4590614699565b60405180910390fd5b600081604051612f5e9190614625565b908152602001604051809103902060000160009054906101000a900473ffffffffffffffffffffffffffffffffffffffff1673ffffffffffffffffffffffffffffffffffffffff163373ffffffffffffffffffffffffffffffffffffffff1614612ffd576040517f08c379a0000000000000000000000000000000000000000000000000000000008152600401612ff49061487a565b60405180910390fd5b60008211613040576040517f08c379a000000000000000000000000000000000000000000000000000000000815260040161303790614a96565b60405180910390fd5b816004866040516130519190614625565b908152602001604051809103902060008673ffffffffffffffffffffffffffffffffffffffff1673ffffffffffffffffffffffffffffffffffffffff1681526020019081526020016000205410156130de576040517f08c379a00000000000000000000000000000000000000000000000000000000081526004016130d590615446565b60405180910390fd5b816004866040516130ef9190614625565b908152602001604051809103902060008673ffffffffffffffffffffffffffffffffffffffff1673ffffffffffffffffffffffffffffffffffffffff16815260200190815260200160002060008282546131499190614783565b9250508190555060008473ffffffffffffffffffffffffffffffffffffffff1663a9059cbb85856040518363ffffffff1660e01b815260040161318d929190615466565b6020604051808303816000875af11580156131ac573d6000803e3d6000fd5b505050506040513d601f19601f820116820180604052508101906131d09190614b19565b905080613212576040517f08c379a000000000000000000000000000000000000000000000000000000000815260040161320990615547565b60405180910390fd5b505050505050565b606060078260405161322c9190614625565b9081526020016040518091039020805480602002602001604051908101604052809291908181526020016000905b8282101561331157838290600052602060002090600402016040518060800160405290816000820160009054906101000a900473ffffffffffffffffffffffffffffffffffffffff1673ffffffffffffffffffffffffffffffffffffffff1673ffffffffffffffffffffffffffffffffffffffff16815260200160018201548152602001600282015481526020016003820160009054906101000a900460ff1615151515815250508152602001906001019061325a565b505050509050919050565b60018360405161332c9190614625565b908152602001604051809103902060009054906101000a900460ff16613387576040517f08c379a000000000000000000000000000000000000000000000000000000000815260040161337e90614699565b60405180910390fd5b600073ffffffffffffffffffffffffffffffffffffffff168273ffffffffffffffffffffffffffffffffffffffff16036133f6576040517f08c379a00000000000000000000000000000000000000000000000000000000081526004016133ed906155b3565b60405180910390fd5b8173ffffffffffffffffffffffffffffffffffffffff166323b872dd3330846040518463ffffffff1660e01b815260040161343393929190614ab6565b600060405180830381600087803b15801561344d57600080fd5b505af1158015613461573d6000803e3d6000fd5b505050506003836040516134759190614625565b908152602001604051809103902060008373ffffffffffffffffffffffffffffffffffffffff1673ffffffffffffffffffffffffffffffffffffffff168152602001908152602001600020819080600181540180825580915050600190039060005260206000200160009091909190915055505050565b60006001846040516134fe9190614625565b908152602001604051809103902060009054906101000a900460ff16613559576040517f08c379a000000000000000000000000000000000000000000000000000000000815260040161355090614699565b60405180910390fd5b600060038560405161356b9190614625565b908152602001604051809103902060008573ffffffffffffffffffffffffffffffffffffffff1673ffffffffffffffffffffffffffffffffffffffff16815260200190815260200160002090506000805b828054905081101561360857848382815481106135dc576135db614725565b5b9060005260206000200154036135f55760019150613608565b8080613600906147e6565b9150506135bc565b5080925050509392505050565b836001816040516136269190614625565b908152602001604051809103902060009054906101000a900460ff16613681576040517f08c379a000000000000000000000000000000000000000000000000000000000815260040161367890614699565b60405180910390fd5b6000816040516136919190614625565b908152602001604051809103902060000160009054906101000a900473ffffffffffffffffffffffffffffffffffffffff1673ffffffffffffffffffffffffffffffffffffffff163373ffffffffffffffffffffffffffffffffffffffff1614613730576040517f08c379a00000000000000000000000000000000000000000000000000000000081526004016137279061487a565b60405180910390fd5b600073ffffffffffffffffffffffffffffffffffffffff168373ffffffffffffffffffffffffffffffffffffffff160361379f576040517f08c379a00000000000000000000000000000000000000000000000000000000081526004016137969061561f565b60405180910390fd5b6001856040516137af9190614625565b908152602001604051809103902060009054906101000a900460ff1661380a576040517f08c379a000000000000000000000000000000000000000000000000000000000815260040161380190614699565b60405180910390fd5b600060038660405161381c9190614625565b908152602001604051809103902060008673ffffffffffffffffffffffffffffffffffffffff1673ffffffffffffffffffffffffffffffffffffffff168152602001908152602001600020905060008080600090505b83805490508110156138c1578584828154811061389257613891614725565b5b9060005260206000200154036138ae57600192508091506138c1565b80806138b9906147e6565b915050613872565b5081613902576040517f08c379a00000000000000000000000000000000000000000000000000000000081526004016138f99061568b565b60405180910390fd5b82600184805490506139149190614783565b8154811061392557613924614725565b5b906000526020600020015483828154811061394357613942614725565b5b906000526020600020018190555082805480613962576139616147b7565b5b600190038181906000526020600020016000905590558673ffffffffffffffffffffffffffffffffffffffff166323b872dd3088886040518463ffffffff1660e01b81526004016139b593929190614ab6565b600060405180830381600087803b1580156139cf57600080fd5b505af11580156139e3573d6000803e3d6000fd5b505050505050505050505050565b82600181604051613a029190614625565b908152602001604051809103902060009054906101000a900460ff16613a5d576040517f08c379a0000000000000000000000000000000000000000000000000000000008152600401613a5490614699565b60405180910390fd5b600081604051613a6d9190614625565b908152602001604051809103902060000160009054906101000a900473ffffffffffffffffffffffffffffffffffffffff1673ffffffffffffffffffffffffffffffffffffffff163373ffffffffffffffffffffffffffffffffffffffff1614613b0c576040517f08c379a0000000000000000000000000000000000000000000000000000000008152600401613b039061487a565b60405180910390fd5b6000600785604051613b1e9190614625565b908152602001604051809103902080549050905060005b81811015613d6c578473ffffffffffffffffffffffffffffffffffffffff16600787604051613b649190614625565b90815260200160405180910390208281548110613b8457613b83614725565b5b906000526020600020906004020160000160009054906101000a900473ffffffffffffffffffffffffffffffffffffffff1673ffffffffffffffffffffffffffffffffffffffff16148015613c19575083600787604051613be59190614625565b90815260200160405180910390208281548110613c0557613c04614725565b5b906000526020600020906004020160010154145b8015613c705750600786604051613c309190614625565b90815260200160405180910390208181548110613c5057613c4f614725565b5b906000526020600020906004020160030160009054906101000a900460ff165b15613d59576000600787604051613c879190614625565b90815260200160405180910390208281548110613ca757613ca6614725565b5b906000526020600020906004020160030160006101000a81548160ff0219169083151502179055506000600887604051613ce19190614625565b908152602001604051809103902060008773ffffffffffffffffffffffffffffffffffffffff1673ffffffffffffffffffffffffffffffffffffffff168152602001908152602001600020600086815260200190815260200160002060006101000a81548160ff021916908315150217905550613d6c565b8080613d64906147e6565b915050613b35565b505050505050565b6000604051905090565b600080fd5b600080fd5b600080fd5b600080fd5b6000601f19601f8301169050919050565b7f4e487b7100000000000000000000000000000000000000000000000000000000600052604160045260246000fd5b613ddb82613d92565b810181811067ffffffffffffffff82111715613dfa57613df9613da3565b5b80604052505050565b6000613e0d613d74565b9050613e198282613dd2565b919050565b600067ffffffffffffffff821115613e3957613e38613da3565b5b613e4282613d92565b9050602081019050919050565b82818337600083830152505050565b6000613e71613e6c84613e1e565b613e03565b905082815260208101848484011115613e8d57613e8c613d8d565b5b613e98848285613e4f565b509392505050565b600082601f830112613eb557613eb4613d88565b5b8135613ec5848260208601613e5e565b91505092915050565b600060208284031215613ee457613ee3613d7e565b5b600082013567ffffffffffffffff811115613f0257613f01613d83565b5b613f0e84828501613ea0565b91505092915050565b6000819050919050565b613f2a81613f17565b8114613f3557600080fd5b50565b600081359050613f4781613f21565b92915050565b60008060408385031215613f6457613f63613d7e565b5b600083013567ffffffffffffffff811115613f8257613f81613d83565b5b613f8e85828601613ea0565b9250506020613f9f85828601613f38565b9150509250929050565b600073ffffffffffffffffffffffffffffffffffffffff82169050919050565b6000613fd482613fa9565b9050919050565b613fe481613fc9565b8114613fef57600080fd5b50565b60008135905061400181613fdb565b92915050565b6000806040838503121561401e5761401d613d7e565b5b600083013567ffffffffffffffff81111561403c5761403b613d83565b5b61404885828601613ea0565b925050602061405985828601613ff2565b9150509250929050565b61406c81613f17565b82525050565b60006020820190506140876000830184614063565b92915050565b61409681613fc9565b82525050565b60006020820190506140b1600083018461408d565b92915050565b600081519050919050565b600082825260208201905092915050565b6000819050602082019050919050565b6140ec81613fc9565b82525050565b60006140fe83836140e3565b60208301905092915050565b6000602082019050919050565b6000614122826140b7565b61412c81856140c2565b9350614137836140d3565b8060005b8381101561416857815161414f88826140f2565b975061415a8361410a565b92505060018101905061413b565b5085935050505092915050565b6000602082019050818103600083015261418f8184614117565b905092915050565b6000806000606084860312156141b0576141af613d7e565b5b600084013567ffffffffffffffff8111156141ce576141cd613d83565b5b6141da86828701613ea0565b93505060206141eb86828701613ff2565b92505060406141fc86828701613f38565b9150509250925092565b60008115159050919050565b61421b81614206565b82525050565b60006020820190506142366000830184614212565b92915050565b600081519050919050565b600082825260208201905092915050565b6000819050602082019050919050565b600081519050919050565b600082825260208201905092915050565b60005b838110156142a2578082015181840152602081019050614287565b60008484015250505050565b60006142b982614268565b6142c38185614273565b93506142d3818560208601614284565b6142dc81613d92565b840191505092915050565b60006142f383836142ae565b905092915050565b6000602082019050919050565b60006143138261423c565b61431d8185614247565b93508360208202850161432f85614258565b8060005b8581101561436b578484038952815161434c85826142e7565b9450614357836142fb565b925060208a01995050600181019050614333565b50829750879550505050505092915050565b600060208201905081810360008301526143978184614308565b905092915050565b600080600080608085870312156143b9576143b8613d7e565b5b600085013567ffffffffffffffff8111156143d7576143d6613d83565b5b6143e387828801613ea0565b94505060206143f487828801613ff2565b935050604061440587828801613f38565b925050606061441687828801613f38565b91505092959194509250565b6000806000806080858703121561443c5761443b613d7e565b5b600085013567ffffffffffffffff81111561445a57614459613d83565b5b61446687828801613ea0565b945050602061447787828801613ff2565b935050604061448887828801613ff2565b925050606061449987828801613f38565b91505092959194509250565b600081519050919050565b600082825260208201905092915050565b6000819050602082019050919050565b6144da81613f17565b82525050565b6144e981614206565b82525050565b60808201600082015161450560008501826140e3565b50602082015161451860208501826144d1565b50604082015161452b60408501826144d1565b50606082015161453e60608501826144e0565b50505050565b600061455083836144ef565b60808301905092915050565b6000602082019050919050565b6000614574826144a5565b61457e81856144b0565b9350614589836144c1565b8060005b838110156145ba5781516145a18882614544565b97506145ac8361455c565b92505060018101905061458d565b5085935050505092915050565b600060208201905081810360008301526145e18184614569565b905092915050565b600081905092915050565b60006145ff82614268565b61460981856145e9565b9350614619818560208601614284565b80840191505092915050565b600061463182846145f4565b915081905092915050565b600082825260208201905092915050565b7f46616e20636c756220646f6573206e6f74206578697374000000000000000000600082015250565b600061468360178361463c565b915061468e8261464d565b602082019050919050565b600060208201905081810360008301526146b281614676565b9050919050565b7f4e6f742061206d656d6265720000000000000000000000000000000000000000600082015250565b60006146ef600c8361463c565b91506146fa826146b9565b602082019050919050565b6000602082019050818103600083015261471e816146e2565b9050919050565b7f4e487b7100000000000000000000000000000000000000000000000000000000600052603260045260246000fd5b7f4e487b7100000000000000000000000000000000000000000000000000000000600052601160045260246000fd5b600061478e82613f17565b915061479983613f17565b92508282039050818111156147b1576147b0614754565b5b92915050565b7f4e487b7100000000000000000000000000000000000000000000000000000000600052603160045260246000fd5b60006147f182613f17565b91507fffffffffffffffffffffffffffffffffffffffffffffffffffffffffffffffff820361482357614822614754565b5b600182019050919050565b7f4f6e6c792066616e20636c7562206f776e657200000000000000000000000000600082015250565b600061486460138361463c565b915061486f8261482e565b602082019050919050565b6000602082019050818103600083015261489381614857565b9050919050565b7f4e6f2062616c616e636520746f20776974686472617700000000000000000000600082015250565b60006148d060168361463c565b91506148db8261489a565b602082019050919050565b600060208201905081810360008301526148ff816148c3565b9050919050565b7f496e73756666696369656e742062616c616e6365000000000000000000000000600082015250565b600061493c60148361463c565b915061494782614906565b602082019050919050565b6000602082019050818103600083015261496b8161492f565b9050919050565b7f496e76616c696420746f6b656e20616464726573730000000000000000000000600082015250565b60006149a860158361463c565b91506149b382614972565b602082019050919050565b600060208201905081810360008301526149d78161499b565b9050919050565b7f5072696365206d7573742062652067726561746572207468616e207a65726f00600082015250565b6000614a14601f8361463c565b9150614a1f826149de565b602082019050919050565b60006020820190508181036000830152614a4381614a07565b9050919050565b7f416d6f756e74206d7573742062652067726561746572207468616e2030000000600082015250565b6000614a80601d8361463c565b9150614a8b82614a4a565b602082019050919050565b60006020820190508181036000830152614aaf81614a73565b9050919050565b6000606082019050614acb600083018661408d565b614ad8602083018561408d565b614ae56040830184614063565b949350505050565b614af681614206565b8114614b0157600080fd5b50565b600081519050614b1381614aed565b92915050565b600060208284031215614b2f57614b2e613d7e565b5b6000614b3d84828501614b04565b91505092915050565b7f546f6b656e207472616e73666572206661696c65640000000000000000000000600082015250565b6000614b7c60158361463c565b9150614b8782614b46565b602082019050919050565b60006020820190508181036000830152614bab81614b6f565b9050919050565b6000614bbd82613f17565b9150614bc883613f17565b9250828201905080821115614be057614bdf614754565b5b92915050565b7f46616e20636c756220616c726561647920657869737473000000000000000000600082015250565b6000614c1c60178361463c565b9150614c2782614be6565b602082019050919050565b60006020820190508181036000830152614c4b81614c0f565b9050919050565b7f4e487b7100000000000000000000000000000000000000000000000000000000600052602260045260246000fd5b60006002820490506001821680614c9957607f821691505b602082108103614cac57614cab614c52565b5b50919050565b60008190508160005260206000209050919050565b60006020601f8301049050919050565b600082821b905092915050565b600060088302614d147fffffffffffffffffffffffffffffffffffffffffffffffffffffffffffffffff82614cd7565b614d1e8683614cd7565b95508019841693508086168417925050509392505050565b6000819050919050565b6000614d5b614d56614d5184613f17565b614d36565b613f17565b9050919050565b6000819050919050565b614d7583614d40565b614d89614d8182614d62565b848454614ce4565b825550505050565b600090565b614d9e614d91565b614da9818484614d6c565b505050565b5b81811015614dcd57614dc2600082614d96565b600181019050614daf565b5050565b601f821115614e1257614de381614cb2565b614dec84614cc7565b81016020851015614dfb578190505b614e0f614e0785614cc7565b830182614dae565b50505b505050565b600082821c905092915050565b6000614e3560001984600802614e17565b1980831691505092915050565b6000614e4e8383614e24565b9150826002028217905092915050565b614e6782614268565b67ffffffffffffffff811115614e8057614e7f613da3565b5b614e8a8254614c81565b614e95828285614dd1565b600060209050601f831160018114614ec85760008415614eb6578287015190505b614ec08582614e42565b865550614f28565b601f198416614ed686614cb2565b60005b82811015614efe57848901518255600182019150602085019450602081019050614ed9565b86831015614f1b5784890151614f17601f891682614e24565b8355505b6001600288020188555050505b505050505050565b7f416c72656164792061206d656d62657200000000000000000000000000000000600082015250565b6000614f6660108361463c565b9150614f7182614f30565b602082019050919050565b60006020820190508181036000830152614f9581614f59565b9050919050565b7f496e636f7272656374207061796d656e74000000000000000000000000000000600082015250565b6000614fd260118361463c565b9150614fdd82614f9c565b602082019050919050565b6000602082019050818103600083015261500181614fc5565b9050919050565b7f4f6e6c79206d656d626572732063616e20627579000000000000000000000000600082015250565b600061503e60148361463c565b915061504982615008565b602082019050919050565b6000602082019050818103600083015261506d81615031565b9050919050565b7f4974656d206e6f74206c69737465640000000000000000000000000000000000600082015250565b60006150aa600f8361463c565b91506150b582615074565b602082019050919050565b600060208201905081810360008301526150d98161509d565b9050919050565b7f4d61726b6574706c616365206e6f7420696e697469616c697a65640000000000600082015250565b6000615116601b8361463c565b9150615121826150e0565b602082019050919050565b6000602082019050818103600083015261514581615109565b9050919050565b7f4974656d206e6f7420666f756e64000000000000000000000000000000000000600082015250565b6000615182600e8361463c565b915061518d8261514c565b602082019050919050565b600060208201905081810360008301526151b181615175565b9050919050565b7f5061796d656e74206661696c6564000000000000000000000000000000000000600082015250565b60006151ee600e8361463c565b91506151f9826151b8565b602082019050919050565b6000602082019050818103600083015261521d816151e1565b9050919050565b7f546f6b656e206e6f7420666f756e6420666f7220746869732066616e20636c7560008201527f6200000000000000000000000000000000000000000000000000000000000000602082015250565b600061528060218361463c565b915061528b82615224565b604082019050919050565b600060208201905081810360008301526152af81615273565b9050919050565b7f5072696365206d7573742062652067726561746572207468616e203000000000600082015250565b60006152ec601c8361463c565b91506152f7826152b6565b602082019050919050565b6000602082019050818103600083015261531b816152df565b9050919050565b7f4e4654206e6f742068656c642062792066616e20636c75620000000000000000600082015250565b600061535860188361463c565b915061536382615322565b602082019050919050565b600060208201905081810360008301526153878161534b565b9050919050565b7f416c7265616479206c6973746564000000000000000000000000000000000000600082015250565b60006153c4600e8361463c565b91506153cf8261538e565b602082019050919050565b600060208201905081810360008301526153f3816153b7565b9050919050565b7f496e73756666696369656e7420746f6b656e2062616c616e6365000000000000600082015250565b6000615430601a8361463c565b915061543b826153fa565b602082019050919050565b6000602082019050818103600083015261545f81615423565b9050919050565b600060408201905061547b600083018561408d565b6154886020830184614063565b9392505050565b7f546f6b656e207769746864726177616c206661696c6564000000000000000000600082015250565b60006154c560178361463c565b91506154d08261548f565b602082019050919050565b600060208201905081810360008301526154f4816154b8565b9050919050565b7f546f6b656e20726577617264206661696c656400000000000000000000000000600082015250565b600061553160138361463c565b915061553c826154fb565b602082019050919050565b6000602082019050818103600083015261556081615524565b9050919050565b7f496e76616c6964204e465420636f6e7472616374000000000000000000000000600082015250565b600061559d60148361463c565b91506155a882615567565b602082019050919050565b600060208201905081810360008301526155cc81615590565b9050919050565b7f496e76616c696420726563697069656e74000000000000000000000000000000600082015250565b600061560960118361463c565b9150615614826155d3565b602082019050919050565b60006020820190508181036000830152615638816155fc565b9050919050565b7f546f6b656e206e6f74206f776e65642062792066616e20636c75620000000000600082015250565b6000615675601b8361463c565b91506156808261563f565b602082019050919050565b600060208201905081810360008301526156a481615668565b905091905056fea2646970667358221220ada22f936b575043f8c428257c996ed4a3aaa2072dfb8a778f94f5ae84574bbf64736f6c63430008140033",
  "linkReferences": {},
  "deployedLinkReferences": {}
}