{
  "_format": "hh-sol-artifact-1",
  "contractName": "NFTBadge",
  "sourceName": "contracts/NFTBadge.sol",
  "abi": [
    {
      "inputs": [
        {
          "internalType": "string",
          "name": "name",
          "type": "string"
        },
        {
          "internalType": "string",
          "name": "symbol",
          "type": "string"
        },
        {
          "internalType": "string",
          "name": "initialBaseURI",
          "type": "string"
        }
      ],
      "stateMutability": "nonpayable",
      "type": "constructor"
    },
    {
      "inputs": [
        {
          "internalType": "address",
          "name": "sender",
          "type": "address"
        },
        {
          "internalType": "uint256",
          "name": "tokenId",
          "type": "uint256"
        },
        {
          "internalType": "address",
          "name": "owner",
          "type": "address"
        }
      ],
      "name": "ERC721IncorrectOwner",
      "type": "error"
    },
    {
      "inputs": [
        {
          "internalType": "address",
          "name": "operator",
          "type": "address"
        },
        {
          "internalType": "uint256",
          "name": "tokenId",
          "type": "uint256"
        }
      ],
      "name": "ERC721InsufficientApproval",
      "type": "error"
    },
    {
      "inputs": [
        {
          "internalType": "address",
          "name": "approver",
          "type": "address"
        }
      ],
      "name": "ERC721InvalidApprover",
      "type": "error"
    },
    {
      "inputs": [
        {
          "internalType": "address",
          "name": "operator",
          "type": "address"
        }
      ],
      "name": "ERC721InvalidOperator",
      "type": "error"
    },
    {
      "inputs": [
        {
          "internalType": "address",
          "name": "owner",
          "type": "address"
        }
      ],
      "name": "ERC721InvalidOwner",
      "type": "error"
    },
    {
      "inputs": [
        {
          "internalType": "address",
          "name": "receiver",
          "type": "address"
        }
      ],
      "name": "ERC721InvalidReceiver",
      "type": "error"
    },
    {
      "inputs": [
        {
          "internalType": "address",
          "name": "sender",
          "type": "address"
        }
      ],
      "name": "ERC721InvalidSender",
      "type": "error"
    },
    {
      "inputs": [
        {
          "internalType": "uint256",
          "name": "tokenId",
          "type": "uint256"
        }
      ],
      "name": "ERC721NonexistentToken",
      "type": "error"
    },
    {
      "inputs": [
        {
          "internalType": "address",
          "name": "owner",
          "type": "address"
        }
      ],
      "name": "OwnableInvalidOwner",
      "type": "error"
    },
    {
      "inputs": [
        {
          "internalType": "address",
          "name": "account",
          "type": "address"
        }
      ],
      "name": "OwnableUnauthorizedAccount",
      "type": "error"
    },
    {
      "anonymous": false,
      "inputs": [
        {
          "indexed": true,
          "internalType": "address",
          "name": "owner",
          "type": "address"
        },
        {
          "indexed": true,
          "internalType": "address",
          "name": "approved",
          "type": "address"
        },
        {
          "indexed": true,
          "internalType": "uint256",
          "name": "tokenId",
          "type": "uint256"
        }
      ],
      "name": "Approval",
      "type": "event"
    },
    {
      "anonymous": false,
      "inputs": [
        {
          "indexed": true,
          "internalType": "address",
          "name": "owner",
          "type": "address"
        },
        {
          "indexed": true,
          "internalType": "address",
          "name": "operator",
          "type": "address"
        },
        {
          "indexed": false,
          "internalType": "bool",
          "name": "approved",
          "type": "bool"
        }
      ],
      "name": "ApprovalForAll",
      "type": "event"
    },
    {
      "anonymous": false,
      "inputs": [
        {
          "indexed": true,
          "internalType": "address",
          "name": "previousOwner",
          "type": "address"
        },
        {
          "indexed": true,
          "internalType": "address",
          "name": "newOwner",
          "type": "address"
        }
      ],
      "name": "OwnershipTransferred",
      "type": "event"
    },
    {
      "anonymous": false,
      "inputs": [
        {
          "indexed": true,
          "internalType": "address",
          "name": "from",
          "type": "address"
        },
        {
          "indexed": true,
          "internalType": "address",
          "name": "to",
          "type": "address"
        },
        {
          "indexed": true,
          "internalType": "uint256",
          "name": "tokenId",
          "type": "uint256"
        }
      ],
      "name": "Transfer",
      "type": "event"
    },
    {
      "inputs": [
        {
          "internalType": "address",
          "name": "to",
          "type": "address"
        },
        {
          "internalType": "uint256",
          "name": "tokenId",
          "type": "uint256"
        }
      ],
      "name": "approve",
      "outputs": [],
      "stateMutability": "nonpayable",
      "type": "function"
    },
    {
      "inputs": [
        {
          "internalType": "address",
          "name": "owner",
          "type": "address"
        }
      ],
      "name": "balanceOf",
      "outputs": [
        {
          "internalType": "uint256",
          "name": "",
          "type": "uint256"
        }
      ],
      "stateMutability": "view",
      "type": "function"
    },
    {
      "inputs": [
        {
          "internalType": "uint256",
          "name": "tokenId",
          "type": "uint256"
        }
      ],
      "name": "getApproved",
      "outputs": [
        {
          "internalType": "address",
          "name": "",
          "type": "address"
        }
      ],
      "stateMutability": "view",
      "type": "function"
    },
    {
      "inputs": [
        {
          "internalType": "address",
          "name": "owner",
          "type": "address"
        },
        {
          "internalType": "address",
          "name": "operator",
          "type": "address"
        }
      ],
      "name": "isApprovedForAll",
      "outputs": [
        {
          "internalType": "bool",
          "name": "",
          "type": "bool"
        }
      ],
      "stateMutability": "view",
      "type": "function"
    },
    {
      "inputs": [
        {
          "internalType": "address",
          "name": "to",
          "type": "address"
        }
      ],
      "name": "mint",
      "outputs": [
        {
          "internalType": "uint256",
          "name": "",
          "type": "uint256"
        }
      ],
      "stateMutability": "nonpayable",
      "type": "function"
    },
    {
      "inputs": [],
      "name": "name",
      "outputs": [
        {
          "internalType": "string",
          "name": "",
          "type": "string"
        }
      ],
      "stateMutability": "view",
      "type": "function"
    },
    {
      "inputs": [],
      "name": "owner",
      "outputs": [
        {
          "internalType": "address",
          "name": "",
          "type": "address"
        }
      ],
      "stateMutability": "view",
      "type": "function"
    },
    {
      "inputs": [
        {
          "internalType": "uint256",
          "name": "tokenId",
          "type": "uint256"
        }
      ],
      "name": "ownerOf",
      "outputs": [
        {
          "internalType": "address",
          "name": "",
          "type": "address"
        }
      ],
      "stateMutability": "view",
      "type": "function"
    },
    {
      "inputs": [],
      "name": "renounceOwnership",
      "outputs": [],
      "stateMutability": "nonpayable",
      "type": "function"
    },
    {
      "inputs": [
        {
          "internalType": "address",
          "name": "from",
          "type": "address"
        },
        {
          "internalType": "address",
          "name": "to",
          "type": "address"
        },
        {
          "internalType": "uint256",
          "name": "tokenId",
          "type": "uint256"
        }
      ],
      "name": "safeTransferFrom",
      "outputs": [],
      "stateMutability": "nonpayable",
      "type": "function"
    },
    {
      "inputs": [
        {
          "internalType": "address",
          "name": "from",
          "type": "address"
        },
        {
          "internalType": "address",
          "name": "to",
          "type": "address"
        },
        {
          "internalType": "uint256",
          "name": "tokenId",
          "type": "uint256"
        },
        {
          "internalType": "bytes",
          "name": "data",
          "type": "bytes"
        }
      ],
      "name": "safeTransferFrom",
      "outputs": [],
      "stateMutability": "nonpayable",
      "type": "function"
    },
    {
      "inputs": [
        {
          "internalType": "address",
          "name": "operator",
          "type": "address"
        },
        {
          "internalType": "bool",
          "name": "approved",
          "type": "bool"
        }
      ],
      "name": "setApprovalForAll",
      "outputs": [],
      "stateMutability": "nonpayable",
      "type": "function"
    },
    {
      "inputs": [
        {
          "internalType": "bytes4",
          "name": "interfaceId",
          "type": "bytes4"
        }
      ],
      "name": "supportsInterface",
      "outputs": [
        {
          "internalType": "bool",
          "name": "",
          "type": "bool"
        }
      ],
      "stateMutability": "view",
      "type": "function"
    },
    {
      "inputs": [],
      "name": "symbol",
      "outputs": [
        {
          "internalType": "string",
          "name": "",
          "type": "string"
        }
      ],
      "stateMutability": "view",
      "type": "function"
    },
    {
      "inputs": [
        {
          "internalType": "uint256",
          "name": "tokenId",
          "type": "uint256"
        }
      ],
      "name": "tokenURI",
      "outputs": [
        {
          "internalType": "string",
          "name": "",
          "type": "string"
        }
      ],
      "stateMutability": "view",
      "type": "function"
    },
    {
      "inputs": [],
      "name": "totalMinted",
      "outputs": [
        {
          "internalType": "uint256",
          "name": "",
          "type": "uint256"
        }
      ],
      "stateMutability": "view",
      "type": "function"
    },
    {
      "inputs": [
        {
          "internalType": "address",
          "name": "from",
          "type": "address"
        },
        {
          "internalType": "address",
          "name": "to",
          "type": "address"
        },
        {
          "internalType": "uint256",
          "name": "tokenId",
          "type": "uint256"
        }
      ],
      "name": "transferFrom",
      "outputs": [],
      "stateMutability": "nonpayable",
      "type": "function"
    },
    {
      "inputs": [
        {
          "internalType": "address",
          "name": "newOwner",
          "type": "address"
        }
      ],
      "name": "transferOwnership",
      "outputs": [],
      "stateMutability": "nonpayable",
      "type": "function"
    }
  ],
  "bytecode": "0x60806040523480156200001157600080fd5b50604051620029933803806200299383398181016040528101906200003791906200035b565b33838381600090816200004b91906200065f565b5080600190816200005d91906200065f565b505050600073ffffffffffffffffffffffffffffffffffffffff168173ffffffffffffffffffffffffffffffffffffffff1603620000d55760006040517f1e4fbdf7000000000000000000000000000000000000000000000000000000008152600401620000cc91906200078b565b60405180910390fd5b620000e6816200010260201b60201c565b508060089081620000f891906200065f565b50505050620007a8565b6000600660009054906101000a900473ffffffffffffffffffffffffffffffffffffffff16905081600660006101000a81548173ffffffffffffffffffffffffffffffffffffffff021916908373ffffffffffffffffffffffffffffffffffffffff1602179055508173ffffffffffffffffffffffffffffffffffffffff168173ffffffffffffffffffffffffffffffffffffffff167f8be0079c531659141344cd1fd0a4f28419497f9722a3daafe3b4186f6b6457e060405160405180910390a35050565b6000604051905090565b600080fd5b600080fd5b600080fd5b600080fd5b6000601f19601f8301169050919050565b7f4e487b7100000000000000000000000000000000000000000000000000000000600052604160045260246000fd5b6200023182620001e6565b810181811067ffffffffffffffff82111715620002535762000252620001f7565b5b80604052505050565b600062000268620001c8565b905062000276828262000226565b919050565b600067ffffffffffffffff821115620002995762000298620001f7565b5b620002a482620001e6565b9050602081019050919050565b60005b83811015620002d1578082015181840152602081019050620002b4565b60008484015250505050565b6000620002f4620002ee846200027b565b6200025c565b905082815260208101848484011115620003135762000312620001e1565b5b62000320848285620002b1565b509392505050565b600082601f83011262000340576200033f620001dc565b5b815162000352848260208601620002dd565b91505092915050565b600080600060608486031215620003775762000376620001d2565b5b600084015167ffffffffffffffff811115620003985762000397620001d7565b5b620003a68682870162000328565b935050602084015167ffffffffffffffff811115620003ca57620003c9620001d7565b5b620003d88682870162000328565b925050604084015167ffffffffffffffff811115620003fc57620003fb620001d7565b5b6200040a8682870162000328565b9150509250925092565b600081519050919050565b7f4e487b7100000000000000000000000000000000000000000000000000000000600052602260045260246000fd5b600060028204905060018216806200046757607f821691505b6020821081036200047d576200047c6200041f565b5b50919050565b60008190508160005260206000209050919050565b60006020601f8301049050919050565b600082821b905092915050565b600060088302620004e77fffffffffffffffffffffffffffffffffffffffffffffffffffffffffffffffff82620004a8565b620004f38683620004a8565b95508019841693508086168417925050509392505050565b6000819050919050565b6000819050919050565b6000620005406200053a62000534846200050b565b62000515565b6200050b565b9050919050565b6000819050919050565b6200055c836200051f565b620005746200056b8262000547565b848454620004b5565b825550505050565b600090565b6200058b6200057c565b6200059881848462000551565b505050565b5b81811015620005c057620005b460008262000581565b6001810190506200059e565b5050565b601f8211156200060f57620005d98162000483565b620005e48462000498565b81016020851015620005f4578190505b6200060c620006038562000498565b8301826200059d565b50505b505050565b600082821c905092915050565b6000620006346000198460080262000614565b1980831691505092915050565b60006200064f838362000621565b9150826002028217905092915050565b6200066a8262000414565b67ffffffffffffffff811115620006865762000685620001f7565b5b6200069282546200044e565b6200069f828285620005c4565b600060209050601f831160018114620006d75760008415620006c2578287015190505b620006ce858262000641565b8655506200073e565b601f198416620006e78662000483565b60005b828110156200071157848901518255600182019150602085019450602081019050620006ea565b868310156200073157848901516200072d601f89168262000621565b8355505b6001600288020188555050505b505050505050565b600073ffffffffffffffffffffffffffffffffffffffff82169050919050565b6000620007738262000746565b9050919050565b620007858162000766565b82525050565b6000602082019050620007a260008301846200077a565b92915050565b6121db80620007b86000396000f3fe608060405234801561001057600080fd5b50600436106101165760003560e01c8063715018a6116100a2578063a2309ff811610071578063a2309ff8146102df578063b88d4fde146102fd578063c87b56dd14610319578063e985e9c514610349578063f2fde38b1461037957610116565b8063715018a61461027d5780638da5cb5b1461028757806395d89b41146102a5578063a22cb465146102c357610116565b806323b872dd116100e957806323b872dd146101b557806342842e0e146101d15780636352211e146101ed5780636a6278421461021d57806370a082311461024d57610116565b806301ffc9a71461011b57806306fdde031461014b578063081812fc14610169578063095ea7b314610199575b600080fd5b610135600480360381019061013091906119ae565b610395565b60405161014291906119f6565b60405180910390f35b610153610477565b6040516101609190611aa1565b60405180910390f35b610183600480360381019061017e9190611af9565b610509565b6040516101909190611b67565b60405180910390f35b6101b360048036038101906101ae9190611bae565b610525565b005b6101cf60048036038101906101ca9190611bee565b61053b565b005b6101eb60048036038101906101e69190611bee565b61063d565b005b61020760048036038101906102029190611af9565b61065d565b6040516102149190611b67565b60405180910390f35b61023760048036038101906102329190611c41565b61066f565b6040516102449190611c7d565b60405180910390f35b61026760048036038101906102629190611c41565b6106ab565b6040516102749190611c7d565b60405180910390f35b610285610765565b005b61028f610779565b60405161029c9190611b67565b60405180910390f35b6102ad6107a3565b6040516102ba9190611aa1565b60405180910390f35b6102dd60048036038101906102d89190611cc4565b610835565b005b6102e761084b565b6040516102f49190611c7d565b60405180910390f35b61031760048036038101906103129190611e39565b610855565b005b610333600480360381019061032e9190611af9565b61087a565b6040516103409190611aa1565b60405180910390f35b610363600480360381019061035e9190611ebc565b6108e3565b60405161037091906119f6565b60405180910390f35b610393600480360381019061038e9190611c41565b610977565b005b60007f80ac58cd000000000000000000000000000000000000000000000000000000007bffffffffffffffffffffffffffffffffffffffffffffffffffffffff1916827bffffffffffffffffffffffffffffffffffffffffffffffffffffffff1916148061046057507f5b5e139f000000000000000000000000000000000000000000000000000000007bffffffffffffffffffffffffffffffffffffffffffffffffffffffff1916827bffffffffffffffffffffffffffffffffffffffffffffffffffffffff1916145b80610470575061046f826109fd565b5b9050919050565b60606000805461048690611f2b565b80601f01602080910402602001604051908101604052809291908181526020018280546104b290611f2b565b80156104ff5780601f106104d4576101008083540402835291602001916104ff565b820191906000526020600020905b8154815290600101906020018083116104e257829003601f168201915b5050505050905090565b600061051482610a67565b5061051e82610aef565b9050919050565b6105378282610532610b2c565b610b34565b5050565b600073ffffffffffffffffffffffffffffffffffffffff168273ffffffffffffffffffffffffffffffffffffffff16036105ad5760006040517f64a0ae920000000000000000000000000000000000000000000000000000000081526004016105a49190611b67565b60405180910390fd5b60006105c183836105bc610b2c565b610b46565b90508373ffffffffffffffffffffffffffffffffffffffff168173ffffffffffffffffffffffffffffffffffffffff1614610637578382826040517f64283d7b00000000000000000000000000000000000000000000000000000000815260040161062e93929190611f5c565b60405180910390fd5b50505050565b61065883838360405180602001604052806000815250610855565b505050565b600061066882610a67565b9050919050565b6000610679610d60565b6007600081548092919061068c90611fc2565b9190505550600060075490506106a28382610de7565b80915050919050565b60008073ffffffffffffffffffffffffffffffffffffffff168273ffffffffffffffffffffffffffffffffffffffff160361071e5760006040517f89c62b640000000000000000000000000000000000000000000000000000000081526004016107159190611b67565b60405180910390fd5b600360008373ffffffffffffffffffffffffffffffffffffffff1673ffffffffffffffffffffffffffffffffffffffff168152602001908152602001600020549050919050565b61076d610d60565b6107776000610e05565b565b6000600660009054906101000a900473ffffffffffffffffffffffffffffffffffffffff16905090565b6060600180546107b290611f2b565b80601f01602080910402602001604051908101604052809291908181526020018280546107de90611f2b565b801561082b5780601f106108005761010080835404028352916020019161082b565b820191906000526020600020905b81548152906001019060200180831161080e57829003601f168201915b5050505050905090565b610847610840610b2c565b8383610ecb565b5050565b6000600754905090565b61086084848461053b565b61087461086b610b2c565b8585858561103a565b50505050565b606061088582610a67565b5060006108906111eb565b905060008151116108b057604051806020016040528060008152506108db565b806108ba8461127d565b6040516020016108cb929190612046565b6040516020818303038152906040525b915050919050565b6000600560008473ffffffffffffffffffffffffffffffffffffffff1673ffffffffffffffffffffffffffffffffffffffff16815260200190815260200160002060008373ffffffffffffffffffffffffffffffffffffffff1673ffffffffffffffffffffffffffffffffffffffff16815260200190815260200160002060009054906101000a900460ff16905092915050565b61097f610d60565b600073ffffffffffffffffffffffffffffffffffffffff168173ffffffffffffffffffffffffffffffffffffffff16036109f15760006040517f1e4fbdf70000000000000000000000000000000000000000000000000000000081526004016109e89190611b67565b60405180910390fd5b6109fa81610e05565b50565b60007f01ffc9a7000000000000000000000000000000000000000000000000000000007bffffffffffffffffffffffffffffffffffffffffffffffffffffffff1916827bffffffffffffffffffffffffffffffffffffffffffffffffffffffff1916149050919050565b600080610a738361134b565b9050600073ffffffffffffffffffffffffffffffffffffffff168173ffffffffffffffffffffffffffffffffffffffff1603610ae657826040517f7e273289000000000000000000000000000000000000000000000000000000008152600401610add9190611c7d565b60405180910390fd5b80915050919050565b60006004600083815260200190815260200160002060009054906101000a900473ffffffffffffffffffffffffffffffffffffffff169050919050565b600033905090565b610b418383836001611388565b505050565b600080610b528461134b565b9050600073ffffffffffffffffffffffffffffffffffffffff168373ffffffffffffffffffffffffffffffffffffffff1614610b9457610b9381848661154d565b5b600073ffffffffffffffffffffffffffffffffffffffff168173ffffffffffffffffffffffffffffffffffffffff1614610c2557610bd6600085600080611388565b6001600360008373ffffffffffffffffffffffffffffffffffffffff1673ffffffffffffffffffffffffffffffffffffffff168152602001908152602001600020600082825403925050819055505b600073ffffffffffffffffffffffffffffffffffffffff168573ffffffffffffffffffffffffffffffffffffffff1614610ca8576001600360008773ffffffffffffffffffffffffffffffffffffffff1673ffffffffffffffffffffffffffffffffffffffff168152602001908152602001600020600082825401925050819055505b846002600086815260200190815260200160002060006101000a81548173ffffffffffffffffffffffffffffffffffffffff021916908373ffffffffffffffffffffffffffffffffffffffff160217905550838573ffffffffffffffffffffffffffffffffffffffff168273ffffffffffffffffffffffffffffffffffffffff167fddf252ad1be2c89b69c2b068fc378daa952ba7f163c4a11628f55a4df523b3ef60405160405180910390a4809150509392505050565b610d68610b2c565b73ffffffffffffffffffffffffffffffffffffffff16610d86610779565b73ffffffffffffffffffffffffffffffffffffffff1614610de557610da9610b2c565b6040517f118cdaa7000000000000000000000000000000000000000000000000000000008152600401610ddc9190611b67565b60405180910390fd5b565b610e01828260405180602001604052806000815250611611565b5050565b6000600660009054906101000a900473ffffffffffffffffffffffffffffffffffffffff16905081600660006101000a81548173ffffffffffffffffffffffffffffffffffffffff021916908373ffffffffffffffffffffffffffffffffffffffff1602179055508173ffffffffffffffffffffffffffffffffffffffff168173ffffffffffffffffffffffffffffffffffffffff167f8be0079c531659141344cd1fd0a4f28419497f9722a3daafe3b4186f6b6457e060405160405180910390a35050565b600073ffffffffffffffffffffffffffffffffffffffff168273ffffffffffffffffffffffffffffffffffffffff1603610f3c57816040517f5b08ba18000000000000000000000000000000000000000000000000000000008152600401610f339190611b67565b60405180910390fd5b80600560008573ffffffffffffffffffffffffffffffffffffffff1673ffffffffffffffffffffffffffffffffffffffff16815260200190815260200160002060008473ffffffffffffffffffffffffffffffffffffffff1673ffffffffffffffffffffffffffffffffffffffff16815260200190815260200160002060006101000a81548160ff0219169083151502179055508173ffffffffffffffffffffffffffffffffffffffff168373ffffffffffffffffffffffffffffffffffffffff167f17307eab39ab6107e8899845ad3d59bd9653f200f220920489ca2b5937696c318360405161102d91906119f6565b60405180910390a3505050565b60008373ffffffffffffffffffffffffffffffffffffffff163b11156111e4578273ffffffffffffffffffffffffffffffffffffffff1663150b7a02868685856040518563ffffffff1660e01b815260040161109994939291906120bf565b6020604051808303816000875af19250505080156110d557506040513d601f19601f820116820180604052508101906110d29190612120565b60015b611159573d8060008114611105576040519150601f19603f3d011682016040523d82523d6000602084013e61110a565b606091505b50600081510361115157836040517f64a0ae920000000000000000000000000000000000000000000000000000000081526004016111489190611b67565b60405180910390fd5b805181602001fd5b63150b7a0260e01b7bffffffffffffffffffffffffffffffffffffffffffffffffffffffff1916817bffffffffffffffffffffffffffffffffffffffffffffffffffffffff1916146111e257836040517f64a0ae920000000000000000000000000000000000000000000000000000000081526004016111d99190611b67565b60405180910390fd5b505b5050505050565b6060600880546111fa90611f2b565b80601f016020809104026020016040519081016040528092919081815260200182805461122690611f2b565b80156112735780601f1061124857610100808354040283529160200191611273565b820191906000526020600020905b81548152906001019060200180831161125657829003601f168201915b5050505050905090565b60606000600161128c84611635565b01905060008167ffffffffffffffff8111156112ab576112aa611d0e565b5b6040519080825280601f01601f1916602001820160405280156112dd5781602001600182028036833780820191505090505b509050600082602001820190505b600115611340578080600190039150507f3031323334353637383961626364656600000000000000000000000000000000600a86061a8153600a85816113345761133361214d565b5b049450600085036112eb575b819350505050919050565b60006002600083815260200190815260200160002060009054906101000a900473ffffffffffffffffffffffffffffffffffffffff169050919050565b80806113c15750600073ffffffffffffffffffffffffffffffffffffffff168273ffffffffffffffffffffffffffffffffffffffff1614155b156114f55760006113d184610a67565b9050600073ffffffffffffffffffffffffffffffffffffffff168373ffffffffffffffffffffffffffffffffffffffff161415801561143c57508273ffffffffffffffffffffffffffffffffffffffff168173ffffffffffffffffffffffffffffffffffffffff1614155b801561144f575061144d81846108e3565b155b1561149157826040517fa9fbf51f0000000000000000000000000000000000000000000000000000000081526004016114889190611b67565b60405180910390fd5b81156114f357838573ffffffffffffffffffffffffffffffffffffffff168273ffffffffffffffffffffffffffffffffffffffff167f8c5be1e5ebec7d5bd14f71427d1e84f3dd0314c0f7b2291e5b200ac8c7c3b92560405160405180910390a45b505b836004600085815260200190815260200160002060006101000a81548173ffffffffffffffffffffffffffffffffffffffff021916908373ffffffffffffffffffffffffffffffffffffffff16021790555050505050565b611558838383611788565b61160c57600073ffffffffffffffffffffffffffffffffffffffff168373ffffffffffffffffffffffffffffffffffffffff16036115cd57806040517f7e2732890000000000000000000000000000000000000000000000000000000081526004016115c49190611c7d565b60405180910390fd5b81816040517f177e802f00000000000000000000000000000000000000000000000000000000815260040161160392919061217c565b60405180910390fd5b505050565b61161b8383611849565b611630611626610b2c565b600085858561103a565b505050565b600080600090507a184f03e93ff9f4daa797ed6e38ed64bf6a1f0100000000000000008310611693577a184f03e93ff9f4daa797ed6e38ed64bf6a1f01000000000000000083816116895761168861214d565b5b0492506040810190505b6d04ee2d6d415b85acef810000000083106116d0576d04ee2d6d415b85acef810000000083816116c6576116c561214d565b5b0492506020810190505b662386f26fc1000083106116ff57662386f26fc1000083816116f5576116f461214d565b5b0492506010810190505b6305f5e1008310611728576305f5e100838161171e5761171d61214d565b5b0492506008810190505b612710831061174d5761271083816117435761174261214d565b5b0492506004810190505b6064831061177057606483816117665761176561214d565b5b0492506002810190505b600a831061177f576001810190505b80915050919050565b60008073ffffffffffffffffffffffffffffffffffffffff168373ffffffffffffffffffffffffffffffffffffffff161415801561184057508273ffffffffffffffffffffffffffffffffffffffff168473ffffffffffffffffffffffffffffffffffffffff161480611801575061180084846108e3565b5b8061183f57508273ffffffffffffffffffffffffffffffffffffffff1661182783610aef565b73ffffffffffffffffffffffffffffffffffffffff16145b5b90509392505050565b600073ffffffffffffffffffffffffffffffffffffffff168273ffffffffffffffffffffffffffffffffffffffff16036118bb5760006040517f64a0ae920000000000000000000000000000000000000000000000000000000081526004016118b29190611b67565b60405180910390fd5b60006118c983836000610b46565b9050600073ffffffffffffffffffffffffffffffffffffffff168173ffffffffffffffffffffffffffffffffffffffff161461193d5760006040517f73c6ac6e0000000000000000000000000000000000000000000000000000000081526004016119349190611b67565b60405180910390fd5b505050565b6000604051905090565b600080fd5b600080fd5b60007fffffffff0000000000000000000000000000000000000000000000000000000082169050919050565b61198b81611956565b811461199657600080fd5b50565b6000813590506119a881611982565b92915050565b6000602082840312156119c4576119c361194c565b5b60006119d284828501611999565b91505092915050565b60008115159050919050565b6119f0816119db565b82525050565b6000602082019050611a0b60008301846119e7565b92915050565b600081519050919050565b600082825260208201905092915050565b60005b83811015611a4b578082015181840152602081019050611a30565b60008484015250505050565b6000601f19601f8301169050919050565b6000611a7382611a11565b611a7d8185611a1c565b9350611a8d818560208601611a2d565b611a9681611a57565b840191505092915050565b60006020820190508181036000830152611abb8184611a68565b905092915050565b6000819050919050565b611ad681611ac3565b8114611ae157600080fd5b50565b600081359050611af381611acd565b92915050565b600060208284031215611b0f57611b0e61194c565b5b6000611b1d84828501611ae4565b91505092915050565b600073ffffffffffffffffffffffffffffffffffffffff82169050919050565b6000611b5182611b26565b9050919050565b611b6181611b46565b82525050565b6000602082019050611b7c6000830184611b58565b92915050565b611b8b81611b46565b8114611b9657600080fd5b50565b600081359050611ba881611b82565b92915050565b60008060408385031215611bc557611bc461194c565b5b6000611bd385828601611b99565b9250506020611be485828601611ae4565b9150509250929050565b600080600060608486031215611c0757611c0661194c565b5b6000611c1586828701611b99565b9350506020611c2686828701611b99565b9250506040611c3786828701611ae4565b9150509250925092565b600060208284031215611c5757611c5661194c565b5b6000611c6584828501611b99565b91505092915050565b611c7781611ac3565b82525050565b6000602082019050611c926000830184611c6e565b92915050565b611ca1816119db565b8114611cac57600080fd5b50565b600081359050611cbe81611c98565b92915050565b60008060408385031215611cdb57611cda61194c565b5b6000611ce985828601611b99565b9250506020611cfa85828601611caf565b9150509250929050565b600080fd5b600080fd5b7f4e487b7100000000000000000000000000000000000000000000000000000000600052604160045260246000fd5b611d4682611a57565b810181811067ffffffffffffffff82111715611d6557611d64611d0e565b5b80604052505050565b6000611d78611942565b9050611d848282611d3d565b919050565b600067ffffffffffffffff821115611da457611da3611d0e565b5b611dad82611a57565b9050602081019050919050565b82818337600083830152505050565b6000611ddc611dd784611d89565b611d6e565b905082815260208101848484011115611df857611df7611d09565b5b611e03848285611dba565b509392505050565b600082601f830112611e2057611e1f611d04565b5b8135611e30848260208601611dc9565b91505092915050565b60008060008060808587031215611e5357611e5261194c565b5b6000611e6187828801611b99565b9450506020611e7287828801611b99565b9350506040611e8387828801611ae4565b925050606085013567ffffffffffffffff811115611ea457611ea3611951565b5b611eb087828801611e0b565b91505092959194509250565b60008060408385031215611ed357611ed261194c565b5b6000611ee185828601611b99565b9250506020611ef285828601611b99565b9150509250929050565b7f4e487b7100000000000000000000000000000000000000000000000000000000600052602260045260246000fd5b60006002820490506001821680611f4357607f821691505b602082108103611f5657611f55611efc565b5b50919050565b6000606082019050611f716000830186611b58565b611f7e6020830185611c6e565b611f8b6040830184611b58565b949350505050565b7f4e487b7100000000000000000000000000000000000000000000000000000000600052601160045260246000fd5b6000611fcd82611ac3565b91507fffffffffffffffffffffffffffffffffffffffffffffffffffffffffffffffff8203611fff57611ffe611f93565b5b600182019050919050565b600081905092915050565b600061202082611a11565b61202a818561200a565b935061203a818560208601611a2d565b80840191505092915050565b60006120528285612015565b915061205e8284612015565b91508190509392505050565b600081519050919050565b600082825260208201905092915050565b60006120918261206a565b61209b8185612075565b93506120ab818560208601611a2d565b6120b481611a57565b840191505092915050565b60006080820190506120d46000830187611b58565b6120e16020830186611b58565b6120ee6040830185611c6e565b81810360608301526121008184612086565b905095945050505050565b60008151905061211a81611982565b92915050565b6000602082840312156121365761213561194c565b5b60006121448482850161210b565b91505092915050565b7f4e487b7100000000000000000000000000000000000000000000000000000000600052601260045260246000fd5b60006040820190506121916000830185611b58565b61219e6020830184611c6e565b939250505056fea26469706673582212202278c43167ee3e0610e7a93a84a33a5a9b5576bf11e8beeda6cbcd71770dca7464736f6c63430008140033",
  "linkReferences": {},
  "deployedLinkReferences": {}
}