{
  "_format": "hh-sol-artifact-1",
  "contractName": "ScoreUser",
  "sourceName": "contracts/ScoreUser.sol",
  "abi": [
    {
      "inputs": [],
      "stateMutability": "nonpayable",
      "type": "constructor"
    },
    {
      "inputs": [
        {
          "internalType": "address",
          "name": "user",
          "type": "address"
        },
        {
          "internalType": "int256",
          "name": "likes",
          "type": "int256"
        },
        {
          "internalType": "int256",
          "name": "comments",
          "type": "int256"
        },
        {
          "internalType": "int256",
          "name": "retweets",
          "type": "int256"
        },
        {
          "internalType": "int256",
          "name": "hashtag",
          "type": "int256"
        },
        {
          "internalType": "int256",
          "name": "checkEvents",
          "type": "int256"
        },
        {
          "internalType": "int256",
          "name": "gamesId",
          "type": "int256"
        },
        {
          "internalType": "int256",
          "name": "reports",
          "type": "int256"
        }
      ],
      "name": "calculateReputation",
      "outputs": [],
      "stateMutability": "nonpayable",
      "type": "function"
    },
    {
      "inputs": [
        {
          "internalType": "address",
          "name": "user",
          "type": "address"
        }
      ],
      "name": "getReputation",
      "outputs": [
        {
          "internalType": "int256",
          "name": "",
          "type": "int256"
        }
      ],
      "stateMutability": "view",
      "type": "function"
    },
    {
      "inputs": [],
      "name": "owner",
      "outputs": [
        {
          "internalType": "address",
          "name": "",
          "type": "address"
        }
      ],
      "stateMutability": "view",
      "type": "function"
    },
    {
      "inputs": [
        {
          "internalType": "address",
          "name": "",
          "type": "address"
        }
      ],
      "name": "reputationUser",
      "outputs": [
        {
          "internalType": "int256",
          "name": "",
          "type": "int256"
        }
      ],
      "stateMutability": "view",
      "type": "function"
    }
  ],
  "bytecode": "0x608060405234801561001057600080fd5b50336000806101000a81548173ffffffffffffffffffffffffffffffffffffffff021916908373ffffffffffffffffffffffffffffffffffffffff160217905550610681806100606000396000f3fe608060405234801561001057600080fd5b506004361061004c5760003560e01c80638837c0ae146100515780638da5cb5b146100815780639c89a0e21461009f578063ee9e3e6e146100cf575b600080fd5b61006b60048036038101906100669190610333565b6100eb565b6040516100789190610379565b60405180910390f35b610089610103565b60405161009691906103a3565b60405180910390f35b6100b960048036038101906100b49190610333565b610127565b6040516100c69190610379565b60405180910390f35b6100e960048036038101906100e491906103ea565b610170565b005b60016020528060005260406000206000915090505481565b60008054906101000a900473ffffffffffffffffffffffffffffffffffffffff1681565b6000600160008373ffffffffffffffffffffffffffffffffffffffff1673ffffffffffffffffffffffffffffffffffffffff168152602001908152602001600020549050919050565b60008054906101000a900473ffffffffffffffffffffffffffffffffffffffff1673ffffffffffffffffffffffffffffffffffffffff163373ffffffffffffffffffffffffffffffffffffffff16146101fe576040517f08c379a00000000000000000000000000000000000000000000000000000000081526004016101f5906104fd565b60405180910390fd5b6000600a8261020d919061054c565b60038461021a919061054c565b600386610227919061054c565b600388610234919061054c565b8960028c610242919061054c565b8d61024d91906105c4565b61025791906105c4565b61026191906105c4565b61026b91906105c4565b61027591906105c4565b61027f9190610608565b905080600160008b73ffffffffffffffffffffffffffffffffffffffff1673ffffffffffffffffffffffffffffffffffffffff16815260200190815260200160002081905550505050505050505050565b600080fd5b600073ffffffffffffffffffffffffffffffffffffffff82169050919050565b6000610300826102d5565b9050919050565b610310816102f5565b811461031b57600080fd5b50565b60008135905061032d81610307565b92915050565b600060208284031215610349576103486102d0565b5b60006103578482850161031e565b91505092915050565b6000819050919050565b61037381610360565b82525050565b600060208201905061038e600083018461036a565b92915050565b61039d816102f5565b82525050565b60006020820190506103b86000830184610394565b92915050565b6103c781610360565b81146103d257600080fd5b50565b6000813590506103e4816103be565b92915050565b600080600080600080600080610100898b03121561040b5761040a6102d0565b5b60006104198b828c0161031e565b985050602061042a8b828c016103d5565b975050604061043b8b828c016103d5565b965050606061044c8b828c016103d5565b955050608061045d8b828c016103d5565b94505060a061046e8b828c016103d5565b93505060c061047f8b828c016103d5565b92505060e06104908b828c016103d5565b9150509295985092959890939650565b600082825260208201905092915050565b7f4e6f7420617574686f72697a6564000000000000000000000000000000000000600082015250565b60006104e7600e836104a0565b91506104f2826104b1565b602082019050919050565b60006020820190508181036000830152610516816104da565b9050919050565b7f4e487b7100000000000000000000000000000000000000000000000000000000600052601160045260246000fd5b600061055782610360565b915061056283610360565b925082820261057081610360565b91507f800000000000000000000000000000000000000000000000000000000000000084146000841216156105a8576105a761051d565b5b82820584148315176105bd576105bc61051d565b5b5092915050565b60006105cf82610360565b91506105da83610360565b9250828201905082811215600083121683821260008412151617156106025761060161051d565b5b92915050565b600061061382610360565b915061061e83610360565b92508282039050818112600084121682821360008512151617156106455761064461051d565b5b9291505056fea264697066735822122027210b255dedfc41609de7dd3395e739246888a62797b4b8d09b1b677c533cbe64736f6c63430008140033",
  "linkReferences": {},
  "deployedLinkReferences": {}
}